:020000040800F2
:100000007808002001010008B72A00088F240008A2
:10001000B52A0008070900082D300008000000007C
:10002000000000000000000000000000E12A0008BD
:10003000FB0E000800000000B92A0008C92B0008C8
:100040001B0100081B0100081B0100081B01000820
:100050001B0100081B0100081B0100081B01000810
:100060001B0100081B0100081B0100081B01000800
:100070001B0100081B0100081B0100081B010008F0
:100080001B0100081B0100081B0100081B010008E0
:100090001B0100081B0100081B0100081B010008D0
:1000A0001B0100081B0100081B0100081B010008C0
:1000B0002D2C00081B010008392C00081B0100082A
:1000C0001B0100081B0100081B0100081B010008A0
:1000D0001B0100081B010008213000081B0100085B
:1000E0001B0100081B0100081B010008DFF80CD0F1
:1000F00000F0D6FB00480047B93900087808002016
:100100000648804706480047FEE7FEE7FEE7FEE7B1
:10011000FEE7FEE7FEE7FEE7FEE7FEE72B2C000822
:10012000ED000008202A04DB203A21FA02F0002129
:10013000704721FA02F3D040C2F1200291400843F7
:100140001946704740EA01039B0703D009E008C93C
:10015000121F08C0042AFAD203E011F8013B00F88C
:10016000013B521EF9D27047D2B201E000F8012BD8
:10017000491EFBD270470022F6E710B513460A4627
:1001800004461946FFF7F0FF204610BD30B505467E
:100190002A460B4612F8010B13F8014B08B1A04296
:1001A000F8D01CB1002802D06D1CF1E7284630BD04
:1001B000421C10F8011B0029FBD1801A704780EA0D
:1001C000010210B502F00043400022D04A001FD0C7
:1001D000010E01EB1261C0F35600C2F3560240F467
:1001E000000042F40002A0FB022000047F39140446
:1001F00000D0401C50EA124001D44000491EC2B257
:100200000C0604EBD010401C4008802A02D003E00A
:10021000002010BD20F00100002900DA0020184362
:1002200010BD30B480EA010202F0004530F0004217
:1002300021F0004013D090B1C30DD40DC2F31601CC
:10024000C0F31600E41A41F4000140F400027D34CA
:10025000914201D3641C00E04900002C02DA30BC5A
:10026000002070474FF400000023914201D3891A07
:10027000034340084FEA4101F7D151B1914202D105
:100280004FF0004105E002D24FF0010101E06FF0B4
:10029000010103EBC450284430BC00F0B4B8420064
:1002A00005D0C0F3C7525242914201DC0020704792
:1002B00000EBC150704770B521F0004303430CD0F0
:1002C000C1F30A550024D5EB040564EB0403D617EB
:1002D000AD1AB34102DB0020014670BD201841EB8E
:1002E000025170BDC10F80EAE0700844CA0796232E
:1002F000002100F091B896230022114600F08CB83E
:100300000EB540F2334102910021CDE900110A46B9
:100310000B4600F0BEF803B000BD00F0004230F024
:1003200000400AD0C10D01F56071C0F3160042EA29
:100330000151C20840071143704700200146704731
:1003400001F0004330B421F0004150EA010206D030
:100350000A0DA2F56072C1F31301002A02DC30BC61
:1003600000207047440F44EAC104C100E01830BCCB
:1003700000EBC25000F047B830B50B4601460020F4
:100380002022012409E021FA02F59D4205D303FA57
:1003900002F5491B04FA02F52844151EA2F10102D8
:1003A000F1DC30BD2DE9F05F0546002092469B460A
:1003B00088460646814640241BE02846414647467B
:1003C0002246FFF7AFFE53465A46C01A914110D35A
:1003D00011461846224600F075FA2D1A67EB0108FF
:1003E0004F4622460120002100F06CFA17EB00096D
:1003F0004E41201EA4F10104DFDC484631462A4666
:100400004346BDE8F09F0029A8BF7047401C490043
:1004100008BF20F00100704710B4B0FA80FC00FA69
:100420000CF050EA010404BF10BC704749B1CCF194
:10043000200421FA04F411FA0CF118BF0121214320
:100440000843A3EB0C01CB1D4FEA00614FEA1020DB
:1004500042BF002010BC704700EBC350104400297D
:10046000A4BF10BC7047401C490008BF20F0010029
:1004700010BC704710B5141E73F1000408DA401C5C
:1004800041F1000192185B411A4301D120F00100B3
:1004900010BD2DE9F04D92469B4611B1B1FA81F2A3
:1004A00002E0B0FA80F22032904600F00BFA0446E7
:1004B0000F4640EA0A0041EA0B0153465A460843F8
:1004C00013D0114653EA010019D0C8F1400250463A
:1004D000FFF728FE05460E4650465946424600F0B4
:1004E000F1F9084305D0012004E020463946BDE873
:1004F000F08D0020054346EAE0762C4337430A9806
:100500006305E40AA0EB08000022FD0A44EA475410
:100510000A3002D500200146E9E7010510196941BA
:10052000DDE9084500196941BDE8F04DA2E72DE974
:10053000FE4F804681EA0300C00F0C46009021F078
:10054000004123F00045B8EB0200A94105D2404626
:10055000214690461C460B46024623F000401043BD
:1005600047D0270DC7F30A00C3F30A510290401A7F
:10057000019040286BDAC3F3130040F4801B00980D
:10058000924620B10023D2EB030A63EB0B0B0198D8
:100590005946C0F14002504600F094F906460D4617
:1005A00050465946019A00F09CF910EB0800614151
:1005B000002487EA115284EAE7731A4340D0009A74
:1005C00062B3019A012A4FEA075215DC001B61EB66
:1005D00002014FF0004202EA0752CDE90042001C3E
:1005E00041F5801132462B46FFF753FF03B0BDE8BB
:1005F000F08F40462146F9E7001B61EB0201001C29
:1006000041F5801300185B412018A2F5001747EB55
:10061000030140EAD570B6196D4111E06D084FEA4B
:10062000360645EAC0754FEA0752001B61EB02012E
:10063000001C41F5801149084FEA30000019514172
:1006400032462B4603B0BDE8F04FFFF713BF0098CA
:10065000012240000023D0EB020263EBE07300981C
:1006600021464FEAE074B8EB000061EB0401E9E7D2
:1006700083F000435BE781F0004158E72DE9FE4F2E
:1006800081EA030404F0004421F0004100944FF09B
:10069000000B23F0004350EA01045ED052EA030449
:1006A0005BD0C3F30A54C1F30A552C44A4F2F334CB
:1006B0000194A0FB0254C1F3130141F48011C3F370
:1006C000130343F4801301FB024400FB034E840A2E
:1006D000970A44EA815447EA8357A4FB07680295C6
:1006E0008D0A05FB07854FEA932C04FB0C54270564
:1006F000029D4FEA065847EA1637B5EB08056EEB40
:10070000070C870E920E47EA811742EA8312A7FB75
:100710000201B6EB0B0164EB00042B0D43EA0C3332
:100720005E1844EB1C50DA465146E7FB0201C5F364
:1007300013044FEA0B3343EA14534FEA0432019C8B
:1007400043EA0603A4F10C040294009CCDE900B432
:10075000FFF79FFE03B0BDE8F08F00200146F9E7E8
:100760002DE9F04D81EA030404F0004B21F000452F
:1007700014464FF0000A23F0004150EA050220D051
:1007800054EA01021DD0C5F30A570246C5F313030C
:10079000C1F31300C1F30A5640F4801543F48013EB
:1007A000A7EB0608101BD64608F2FD3873EB0500D0
:1007B00002D308F1010801E092185B41B8F1000F83
:1007C00003DA00200146BDE8F08D00204FF48011CF
:1007D000064684460EE0171B73EB050705D3121B74
:1007E00063EB050306434CEA010C49084FEA30006D
:1007F00092185B4150EA0107EDD152EA030012D092
:1008000082EA040083EA0501084305D0101BAB41CE
:1008100006D20122002306E000224FF0004302E04E
:100820006FF0010253101AEB06004CEB085110EB6D
:100830000A0041EB0B01BDE8F04DFFF71BBEC1F311
:100840000A52C1F3130140F2FF3341F480119A427E
:1008500002DA00200146704740F233439A42A2F286
:10086000334202DC5242FFF75DBC00F02BB80000BF
:1008700030B5041E71F1000404DB4FF00044404227
:1008800064EB0101141E73F1000405DB1C464FF0FC
:100890000043524263EB0403994208BF904230BDCB
:1008A000064C074D06E0E06840F0010394E80700BD
:1008B00098471034AC42F6D3FFF71CFC1C3E0008EE
:1008C0003C3E0008202A04DB203A00FA02F1002016
:1008D00070479140C2F1200320FA03F3194390407E
:1008E0007047202A06DBCB17203A41FA02F043EA90
:1008F000E07306E041FA02F3D040C2F120029140D9
:10090000084319467047FEE70648016841F08071C8
:100910000160054800214160016841F0010101606A
:1009200070470000FCED00E0001000E00148406866
:1009300070470000001000E001B50022FFF7E4FF5F
:100940000D480E490068B0FBF1F300984343FFF7F0
:10095000EDFF0146FFF7EAFF8842FBD003D9A0EB89
:1009600001010A4403E06FEA010101440A4401461F
:100970009A42EFD308BD00003400002040420F002F
:1009800070B505460E4600243146284600F00FF9A2
:1009900004E0641CE4B20120FFF7CEFF3146284694
:1009A00000F0CEFC08B1642CF3D3642C01D30120F9
:1009B00070BD002404E0641CE4B20120FFF7BCFF1A
:1009C0003146284600F0BCFC08B9F02CF3D3F02CDB
:1009D00001D3012070BD002070BD30B50446002059
:1009E00011E014F8013B002280EA0305ED0705D071
:1009F00080F01800400840F0800000E040085B08EC
:100A0000521C082AF0DB491EC9B2EAD230BD7FB5BC
:100A100005460C4600210291009411210191032109
:100A200003916946284600F093FB0122214628469F
:100A300000F095FC7FBD00002DE9F04106460F4611
:100A400090461D463946304600F034F93946304666
:100A5000FFF796FF55223946304600F006FA00248B
:100A6000474800EB881000EBC50539462A5D304643
:100A700000F0FBF9641CE4B2082CF6D3442239469A
:100A8000304600F0F2F901223946304600F067FCAA
:100A90003C48FFF751FF3946304600F00BF9394624
:100AA0003046FFF76DFF55223946304600F0DDF93C
:100AB000002439462A5D304600F0D7F9641CE4B2C0
:100AC000082CF6D3BE223946304600F0CEF939461E
:100AD000304600F0DBF880463946304600F0D6F864
:100AE0000546294C84F8008065703946304600F090
:100AF000CDF8A0703946304600F0C8F8E0703946AD
:100B0000304600F0C3F820713946304600F0BEF898
:100B100060713946304600F0B9F8A0713946304668
:100B200000F0B4F8E0713946304600F0AFF82072BA
:100B300008212046FFF751FF60723946304600F029
:100B4000B9F839463046FFF71BFFA8086FF00304D9
:100B50000BD048EA052000B2C043401CFFF7C2FB9F
:100B60002146BDE8F041FFF79ABB48EA0520FFF7B0
:100B7000C7FB2246FFF79FFBBDE8F041FFF7E0BB54
:100B8000EC020020B0710B006C04002070B504462C
:100B90000D4629462046FFF73AFF2946204600F039
:100BA00089F829462046BDE87040FFF7E9BE1FB529
:100BB00000220192029203920091694600F0C8FA65
:100BC0001FBD1FB500220292009111210191032146
:100BD0000391694600F0BCFA1FBD2DE9F0410646BD
:100BE0000F46002402256006040E39463046FFF702
:100BF000E8FF00223946304600F0B1FB0220FFF743
:100C00009BFE01223946304600F0A9FB39463046AA
:100C1000FFF7CDFF0C20FFF78FFE3946304600F07E
:100C20008FFB08B144F001043220FFF785FE6D1EF2
:100C3000EDB2002DD7D12046BDE8F08170B5044655
:100C40000D4629462046FFF7BCFF002229462046D4
:100C500000F085FB0220FFF76FFE012229462046A7
:100C600000F07DFB0C20FFF767FE29462046FFF7CA
:100C70009EFF2946204600F063FB08B1012400E0F6
:100C800000243220FFF758FE204670BD2DE9F041C8
:100C900006460F460025002439463046FFF7CEFFB2
:100CA000A0402843C5B2641CE4B2082CF4D3284603
:100CB000BDE8F08170B504460D4629462046FFF791
:100CC00080FF00222946204600F049FB4FF4F070D7
:100CD000FFF732FE01222946204600F040FBBDE826
:100CE00070400F20FFF728BE2DE9F74F92B000208B
:100CF0001090119000278146EA46DDE91201FFF7C6
:100D0000D9FF4FF4F070FFF717FEDDE91201F02272
:100D100000F0ABF8002600240025DDE91201FFF702
:100D20005CFF00F003006408012803D002280CD007
:100D3000C0B148E0DDE91201002200F069F805EBDE
:100D4000C60100200AF801003DE044F08004DDE91E
:100D50001201012200F05CF805EBC60101200AF83F
:100D6000010030E005EBC60808F1010000F0FF0BC0
:100D700010A8C05D58450ED2DDE912014FF0000207
:100D800000F046F800200AF808007F1CFFB210A807
:100D900000F807B017E00AD91AF8082002F001009D
:100DA00044EAC014DDE9120100F032F80BE044F02F
:100DB0008004DDE91201012200F02AF801200AF87E
:100DC00008007F1EFFB26D1CEDB2082DA5D30E49A1
:100DD000149801EB801000EBC9008455761CF6B224
:100DE000082E98D309F1010909F0FF0910A8C05D88
:100DF00010B1B9F1080F80D30449149801F800909C
:100E000015B0BDE8F08F0000EC0200203E0000208D
:100E100070B505460E46144631462846FFF7D1FE0A
:100E20008CB100223146284600F099FA0220FFF7E3
:100E300083FD01223146284600F091FABDE870405A
:100E40003C20FFF779BD00223146284600F087FAA2
:100E50003C20FFF771FD01223146284600F07FFA61
:100E6000BDE870400220FFF767BD2DE9F04107465D
:100E70008846154641463846FFF7A3FE012405F093
:100E800001066D0800224146384600F068FA092044
:100E9000FFF752FD86B100224146384600F05FFA66
:100EA0000A20FFF749FD01224146384600F057FA73
:100EB0003220FFF741FD0FE000224146384600F0A6
:100EC0004EFA3C20FFF738FD01224146384600F03B
:100ED00046FA0220FFF730FD641CE4B2082CCED99C
:100EE0006420FFF729FD01224146384600F037FA19
:100EF000BDE8F0410420FFF71FBD704772B6FEE762
:100F00002DE9FE4F8046DDE90C76894693461D4665
:100F100000203860306049464046FFF7CBFE4FF472
:100F2000F07A5046FFF708FD552249464046FFF744
:100F30009CFF0024434800EB8B1000EBC50549469D
:100F40002A5D4046FFF791FF641CE4B2082CF6D3FB
:100F5000442249464046FFF788FF01224946404661
:100F600000F0FDF94CF25030FFF7E6FC49464046F0
:100F7000FFF7A0FE5046FFF7DFFC552249464046EA
:100F8000FFF773FF002449462A5D4046FFF76DFFD7
:100F9000641CE4B2082CF6D3BE2249464046FFF753
:100FA00064FF00246D4649464046FFF76FFE285512
:100FB000641CE4B2092CF6D308216846FFF70DFD46
:100FC0009DF8081088422FD19DF8060000F0030418
:100FD000012C2BD0022C2CD04FF072559DF8000024
:100FE0009DF8011040EA012000B2FFF77BF9294685
:100FF000FFF7E5F83860012C1ED0022C1FD043F615
:10100000FF709DF802109DF8032041EA0224FFF7CB
:1010100072F905462046FFF76EF90B49FFF7CFF846
:101020002946FFF7FEF83060BDE8FE8F4FF0765599
:10103000D4E74FF07055D1E740F6FF70E1E747F68F
:10104000FF70DEE7EC0200200000C84210B590F807
:1010500021100022022905D00421816380F820207C
:10106000012010BD01680B6823F00E030B600168BE
:101070000B6823F001030B6090F84030C46B012132
:1010800001FA03F3636080F8211080F820201046F5
:1010900010BD000010B5002490F82110022903D0E3
:1010A0000421816301243DE001680A6822F00E02F8
:1010B0000A6001680A6822F001020A601A4A01689F
:1010C000914201D1012121E0174A1432914201D10C
:1010D00010211BE0144A2832914201D1891515E0F4
:1010E000114A3C32914201D189140FE00E4A50322C
:1010F000914202D14FF4803108E00B4A64329142B0
:1011000002D14FF4801101E04FF08071064A083A95
:101110005160012180F82110002180F82010416BDE
:1011200001B18847204610BD0800024070B5044652
:1011300000F01CF90546601C02D004480078044405
:1011400000F014F9401BA042FAD370BD2800002023
:101150002DE9F84F00240023DFF8C4914FF00F0869
:10116000A9F1040B09F1040AABF1040ED1E0012747
:10117000A7403A40BA4275D1DFF8A8C14D68A5EB47
:101180000C0665452BD00DDC032D34D005DC35B3C2
:10119000012D19D0022D2FD11BE0112D16D0122DAB
:1011A0002AD119E0B6F5881F19D006DCB6F5803FC4
:1011B00015D0B6F5801F1FD111E0B6F5001F0ED077
:1011C000B6F5041F18D10AE0CB6815E0CB681B1DEB
:1011D00012E0CB6808330FE0CB680C330CE08B686F
:1011E00023B1012B04D00823476105E0042303E069
:1011F0000823076100E00023FF2A01D8054601E02B
:1012000000F1040502D84FEA840603E0A4F10806C1
:101210004FEA86062F6808FA06FC27EA0C0703FA4D
:1012200006F647EA06072F604D68ED0070D53E4D83
:10123000AE6946F00106AE61AD6905F001050095A5
:101240003A4D24F003067719BE68A5072D0F08FA5A
:1012500005FC26EA0C06DFF8D8C0604503D14FF044
:10126000000C17E054E0DFF8CCC0604502D14FF02D
:10127000010C0FE0DFF8C0C0604502D14FF0020C56
:1012800008E0DFF8B8C0604502D14FF0030C01E080
:101290004FF0040C0CFA05FC4CEA060CC7F808C029
:1012A0004D68ED0205D5D9F800501543C9F8005036
:1012B00004E0D9F800509543C9F800504D68AD02DC
:1012C00005D5DAF800501543CAF8005004E0DAF802
:1012D00000509543CAF800504D68AD0305D5DBF8C2
:1012E00000501543CBF8005004E0DBF80050954364
:1012F000CBF800504D68ED0305D5DEF800501543DE
:10130000CEF8005004E0DEF800509543CEF80050CF
:10131000641C0A6832FA04F57FF429AFBDE8F88F3F
:1013200008040140000011100010024000000140BC
:1013300000080140000C0140001001400014014071
:101340008068084201D00120704700207047C268C1
:1013500021EA02030A4043EA024101617047002A80
:1013600001D001617047090401617047014880683C
:10137000704700002800002070B50446002C04D0FF
:1013800094F83D00002510B106E0012070BD84F8FE
:101390003C50204600F0BCF8242084F83D00206832
:1013A000016821F0010101602068016841F40041F9
:1013B00001602068016821F40041016000F022FA18
:1013C0004F4B6168994203D84E49884203D304E0E9
:1013D0004D49884201D2012070BD4C49B0FBF1F16A
:1013E0002268566826F03F060E43566062689A42AD
:1013F00001D8491C07E04FF4967251434FF47A72BA
:10140000B1FBF2F1491C2268166A26F03F0631430F
:1014100011626168994210D84900401EB0FBF1F298
:10142000521CC2F30B02042A01D2042022E0B0FBBA
:10143000F1F0401CC0F30B001CE0A268F2B301EB1A
:10144000C10303EB0116431EB3FBF6F35B1C43F42D
:1014500080431B0549D092B301EBC10202EB01119D
:10146000401EB0FBF1F0401CC0F30B0040F4804084
:1014700040F400402168CA694CF6FF739A43104358
:10148000C861D4E9071001432068026822F0C00255
:1014900011430160D4E9030101432068826848F2E6
:1014A000FF339A4311438160D4E90510014320685A
:1014B000C26822F0FF021143C16001E00EE016E0B5
:1014C0002068016841F0010101602564202084F852
:1014D0003D00256384F83E50002070BD01EB4106BD
:1014E000431EB3FBF6F35B1CB3E70120C2E701EB3D
:1014F0004101401EB0FBF1F0401CC0F30B00B7E708
:10150000A086010080841E0000093D0040420F00BB
:1015100010B586B0002102910391049105910068F5
:10152000104988421BD1104CA06940F00800A0610E
:10153000A06900F0080001904FF440600290122072
:1015400003900320059002A90848FFF701FEE06917
:1015500040F48000E061E06900F48000019006B092
:1015600010BD00000058004000100240000C014077
:101570000248816802781144816070472800002089
:1015800010B50748016841F010010160032000F028
:1015900077F80F2000F006F800F026F8002010BDC4
:1015A0000020024070B504460D4D4FF47A71287842
:1015B000B1FBF0F00B490968B1FBF0F000F02AFB39
:1015C00008B1012070BD102C07D200222146501E08
:1015D00000F036F86C60002070BD012070BD000086
:1015E000280000203400002008B50C48816941F033
:1015F00001018161816901F001010091C16941F03E
:101600008051C161C06900F0805000900449486871
:1016100020F0E06040F00070486008BD001002401B
:1016200000000140002809DB00F01F020121914069
:101630004009800000F1E020C0F800117047000070
:10164000F0B40D460D4B1B68C3F30223C3F107042E
:10165000042C00D90424191D072901D2002300E01D
:10166000DB1E012606FA04F1491E294099409E40DE
:10167000761E16403143F0BC01F014BD0CED00E0C5
:1016800000F00701054A10684FF6FF03184040EAD2
:101690000120034908431060704700000CED00E092
:1016A0000000FA052DE9F04704460D46002C17D03E
:1016B000DFF83081D8F8000000F00700A84211D20E
:1016C000D8F8000020F007002843C8F80000D8F838
:1016D000000000F00700A84204D00120BDE8F08718
:1016E0000120FBE72068404E810712D5400703D553
:1016F000706840F4E06070602078000703D570687F
:1017000040F4605070607068A16820F0F0000843F9
:1017100070602078C0072CD06068012806D00228AD
:1017200009D0316889070BD40120D7E731688903D4
:1017300006D40120D2E73168890101D40120CDE728
:10174000716821F0030101437160FFF70FFE074646
:1017500041F2883906E0FFF709FEC01B484501D970
:101760000320BBE77068616800F00C00B0EB810FEC
:10177000F1D1D8F8000000F00700A8420ED9D8F83F
:10178000000020F007002843C8F80000D8F8000047
:1017900000F00700A84201D001209FE72078400711
:1017A00005D57068E16820F4E06008437060207837
:1017B000000706D57068216920F4605040EAC10036
:1017C000706000F03FF87168084AC1F30311515C82
:1017D000C8400749086007480068FFF7E3FE00209B
:1017E0007CE700000020024000100240023E00089A
:1017F000340000202C0000200148006870470000E1
:101800003400002000B5FFF7F7FF04494968044A97
:10181000C1F30221515CC84000BD0000001002402D
:10182000123E000800B5FFF7E7FF04494968044A83
:10183000C1F3C221515CC84000BD0000001002404D
:10184000123E00080E4B59680E4801F00C02042AA3
:1018500011D0082A0FD10C48C1F38342805CC90320
:101860000AD55968084AC1F34041921E515C054AA5
:101870005043B0FBF1F07047044948437047000003
:101880000010024000127A00F23D000800093D00FD
:101890002DE9F84F0446002C0ED02078D94DC00712
:1018A0005ED06868C0F3810001280BD06868C0F37F
:1018B0008100022803D00CE00120BDE8F88F6868A1
:1018C000C00306D5286880034AD56068A8BB0120FC
:1018D000F3E76068B0F5803F11D0A8B1B0F5A02F54
:1018E0001BD0286820F480302860286820F48020ED
:1018F0002860606830B3FFF739FD06461EE02868AF
:1019000040F480302860F4E7286820F480302860B4
:10191000286820F480202860EBE7286840F48020C5
:101920002860286840F480302860E2E7FFF71EFD59
:10193000801B642802D90320BFE711E028688003D8
:10194000F4D50DE0FFF712FD064606E0FFF70EFDA9
:10195000801B642801D90320AFE728688003F5D4F1
:101960002078DFF8A48280074FF0010A4FF00009C9
:1019700045D5686810F00C0F07D06868C0F3810087
:10198000022812D16868C0030FD42868800704D5E4
:101990002069012801D001208FE72868616920F0C3
:1019A000F80040EAC100286029E02069B8B1C8F811
:1019B00000A0FFF7DBFC064606E0FFF7D7FC801B24
:1019C000022801D9032078E728688007F5D5286820
:1019D000616920F0F80040EAC10028600FE0C8F813
:1019E0000090FFF7C3FC064606E0FFF7BFFC801B34
:1019F000022801D9032060E728688007F5D4207801
:101A0000000726D58148A16999B1C0F800A0FFF769
:101A1000ADFC064606E0FFF7A9FC801B022801D9B1
:101A200003204AE7686A8007F5D5012001F046F8EF
:101A30000FE0C0F80090FFF799FC064606E0FFF7BC
:101A400095FC801B022801D9032036E7686A8007CD
:101A5000F5D42078400773D50026E869C00008D483
:101A6000E86940F08050E861E86900F0805000903B
:101A70000126DFF89CB1DBF80000C00514D4DBF8C8
:101A8000000040F48070CBF80000FFF76FFC0746C1
:101A900006E0FFF76BFCC01B642801D903200CE7AC
:101AA000DBF80000C005F4D5E068012812D0B0B121
:101AB00005281DD0286A20F001002862286A20F03D
:101AC00004002862E06841F2883B28B3FFF74EFC2F
:101AD00007461DE0286A40F001002862F2E7286A04
:101AE00020F001002862286A20F004002862E9E75B
:101AF000286A40F004002862286A40F00100286249
:101B0000E0E7FFF733FCC01B584501D90320D4E6BA
:101B1000286A8007F5D50DE0FFF728FC074606E0A8
:101B2000FFF724FCC01B584501D90320C5E6286AED
:101B30008007F5D4012E03D1E86920F08050E861D8
:101B4000E069A0B36968C1F38101022946D0022887
:101B500005D0C8F86090FFF709FC04463AE0C8F8E1
:101B60006090FFF703FC064606E0FFF7FFFB801BD3
:101B7000022801D90320A0E628688001F5D4206A54
:101B8000B0F5803F05D16868A16820F400300843B3
:101B90006860D4E908010843696821F474110843B6
:101BA0006860C8F860A0FFF7E1FB044607E026E0A4
:101BB000FFF7DCFB001B022801D903207DE6286823
:101BC0008001F5D51BE0FFF7D1FB001B022801D9EE
:101BD000032072E628688001F5D410E001280CD0BB
:101BE0006868226A00F48031914204D1616A00F48D
:101BF0007010884203D001205FE601205DE60020DE
:101C00005BE60000001002400000424280044242B5
:101C10000070004010B5401EB0F1807F01D301205C
:101C200010BD4FF0E02460610F21601701F03AFA17
:101C30000020A06107202061002010BD7047704780
:101C400070B590F83C20012A25D0012680F83C6030
:101C5000022280F83D2002685468936824F07005E1
:101C60000C682C4354600D4C0268A24208D0B2F1BB
:101C7000804F05D00A4CA24202D00A4CA24204D1A5
:101C800023F080034968194391603C30467000217D
:101C90000170002070BD022070BD0000002C0140CA
:101CA000000400400008004010B50446002C03D09A
:101CB00094F83D0010B107E0012010BD002084F829
:101CC0003C00204600F016F8022084F83D00211D5B
:101CD000206800F0B7FF01203D3460726070A07092
:101CE000E07020716071A071E0712072207000209E
:101CF00010BD000008B500681549B0F1804F14D040
:101D0000144A904223D1C86940F00400C861C869F0
:101D100000F004000090002211461E20FFF790FC06
:101D2000BDE808401E20FFF77DBCC86940F00100F7
:101D3000C861C86900F001000090002211461C2013
:101D4000FFF77EFCBDE808401C20FFF76BBC08BD18
:101D5000001002400008004090F83D10012901D019
:101D600001207047022180F83D100168CA6842F0E6
:101D70000102CA6000680E49884208D0B0F1804F65
:101D800005D00C49884202D00B49884209D18168AC
:101D900001F00701062908D0016841F00101016046
:101DA00003E0016841F0010101600020704700007C
:101DB000002C0140000400400008004070B50446BB
:101DC000002594F83C00012817D0012684F83C60D7
:101DD000022084F83D002068826822F0770222F415
:101DE0007F4282600868502838D00DDC202853D00C
:101DF00005DC90B3102811D14EE0022070BD3028D0
:101E00004AD040280AD13DE0602831D070280CD05B
:101E1000B0F5805F03D0B0F5005F12D001253C34EF
:101E2000667000202070284670BDCB68D1E9012182
:101E3000206800F03DFF2068816841F077018160F3
:101E4000EDE7CB68D1E90121206800F031FF20687F
:101E5000816841F480418160E1E71DE0CA6849681A
:101E6000206800F037FF5021206800F02BFFD6E7F4
:101E7000CA684968206800F03EFF6021206800F0D1
:101E800021FFCCE7CA684968206800F023FF4021A1
:101E9000206800F017FFC2E722680146104600F0F4
:101EA00011FFBCE7704770B50446206801694FF028
:101EB0000005C943890716D4C168C943890712D4EC
:101EC000E91E01610120207720688069800703D026
:101ED0002046FFF7E7FF05E0204600F09BF820468C
:101EE00000F099F8257720680169C943490718D49B
:101EF000C168C943490714D46FF00401016102208D
:101F000020772068806910F4407F03D02046FFF7D7
:101F1000C9FF05E0204600F07DF8204600F07BF880
:101F2000257720680169C943090717D4C168C943E7
:101F3000090713D46FF0080101610420207720689D
:101F4000C069800703D02046FFF7ACFF05E02046BC
:101F500000F060F8204600F05EF8257720680169FF
:101F6000C943C90618D4C168C943C90614D46FF05F
:101F700010010161082020772068C06910F4407FBB
:101F800003D02046FFF78EFF05E0204600F042F820
:101F9000204600F040F8257720680169C943C90749
:101FA00008D1C168C943C90704D1891E016120460F
:101FB00000F032F820680169C943090609D4C168F4
:101FC000C943090605D46FF0800101612046FFF77F
:101FD00035FE20680169C943490609D4C168C9436F
:101FE000490605D46FF040010161204600F024F855
:101FF00020680169C94389060BD4C168C9438906B1
:1020000007D46FF0200101612046BDE87040FFF762
:1020100016BE70BD7047704700680549884206D1FA
:1020200004488188491C81804188491C418070474F
:1020300000080040380000207047704770470000DB
:10204000F8B5044622681068D168536900F00F069D
:10205000002E08D1850606D58D0604D52046BDE89C
:10206000F84000F096BE0025002E66D003F0010671
:1020700001F49077374360D0C20705D0CA0503D575
:10208000626C42F001026264420705D5DA0703D0B0
:10209000626C42F002026264820705D5DA0703D05F
:1020A000626C42F004026264020707D501F020026C
:1020B000324303D0626C42F008026264626C002A10
:1020C00031D0800604D5880602D5204600F061FE96
:1020D00020684069C0F38010616C090700D438B3F0
:1020E000204600F022FE2068406940061CD520688A
:1020F000143050E8001F21F0400140E80012002A8F
:10210000F5D1E06B60B159494163E06BFEF7C2FF66
:10211000002808D0E06B416B01B0BDE8F0400847F3
:102120002046FFF78BFFF8BD2046FFF787FFF8BD7D
:102130002046FFF783FF6564F8BD236B012B7DD13B
:10214000C3067BD5CB067ED51068506800905069D9
:102150004FF0200340064FF0020643D5E16B0868BC
:10216000406880B20028E7D0A28D8242E4D9E085A1
:10217000886920282DD020680C3050E8001F21F4F9
:10218000807140E80012002AF5D12068143050E830
:10219000001F21F0010140E80012002AF5D120685B
:1021A000143050E8001F21F0400140E80012002ADE
:1021B000F5D184F84230256320680C3050E8001FC8
:1021C00021F0100140E80012002AF5D1E06BFEF783
:1021D0003DFF6663A08DE18D401A81B22046FFF776
:1021E0002CFFF8BDA08DE18D401A81B2E08D002852
:1021F000F7D00029F5D020680C3050E8002F22F4E9
:10220000907240E80027002FF5D12068143050E884
:10221000002F22F0010240E80027002FF5D184F8BA
:102220004230256320680C3050E8002F22F0100265
:1022300040E80023002BF5D1666300E003E0204670
:10224000FFF7FBFEF8BD020606D50A0604D52046B8
:10225000BDE8F84000F07ABE4006F3D54806F1D557
:102260002046BDE8F84000F087BD00001B2D0008A7
:1022700070B50446002C04D094F84100002510B13C
:1022800006E0012070BD84F84050204600F024F89C
:10229000242084F841002068C16821F40051C16005
:1022A000204600F0DBFD2068016921F490410161C6
:1022B0002068416921F02A0141612068C16841F428
:1022C0000051C1606564202084F8410084F8420018
:1022D0006563002070BD000070B586B000240294D4
:1022E0000394049405942B4E02682B490220032387
:1022F0002A4DB24221D18A6942F480428A618A69B8
:1023000002F4804201928A6942F004028A6189697A
:1023100001F004010191010202910390059302A9C9
:102320002846FEF715FF291502910394049402A98B
:102330002846FEF70DFF06B070BD194EB242FAD125
:10234000CA6942F40032CA61CA6902F400320192D9
:102350008A6942F004028A61896901F004010191ED
:10236000042102910390059302A92846FEF7F0FE8E
:10237000082102910394049402A92846FEF7E8FE7E
:10238000002211462620FFF75BF92620FFF74AF9C5
:10239000D1E7000000380140001002400008014071
:1023A0000044004090F84230202B01D002207047BA
:1023B00021B11AB10023036300F0ACBD01207047C6
:1023C000064908784B78421C0A7005490B540349AA
:1023D0000122491C0348FFF7E5BF00003800002038
:1023E00088020020400200202DE9F84304460E46F2
:1023F00015461F4694F84100202802D00220BDE86F
:10240000F8837EB175B100206064212084F841001A
:10241000FEF7ACFF8046A584E584A068B0F5805F38
:1024200002D003E00120EAE7206910B1354600261A
:1024300013E0002511E0434600228021204600974A
:1024400000F0B3FD08B10320D9E79DB1216815F86C
:10245000010B4860E08C401EE084E08C0028EAD14B
:102460004346002240212046009700F09EFD40B1E7
:102470000320C4E736F8020B2168C0F30800486067
:10248000E8E7202084F841000020B8E77047FEE725
:1024900010B564210348FDF76EFE03490020087063
:1024A00010BD0000880200203800002010B5FFF7A2
:1024B000EFFF5CA15CA000F043F902E03220FEF7E0
:1024C00035FE5CA15CA000F03BF90028F6D102E0EB
:1024D0003220FEF72BFE59A156A000F031F900285A
:1024E000F6D102E03220FEF721FE54A154A000F004
:1024F00027F90028F6D102E03220FEF717FE4FA19F
:1025000054A000F01DF90028F6D102E03220FEF7B9
:102510000DFE4AA153A000F013F90028F6D102E005
:102520003220FEF703FE45A151A000F009F9002872
:10253000F6D102E03220FEF7F9FD40A150A000F0F4
:10254000FFF80028F6D102E03220FEF7EFFD3BA1B4
:102550004FA000F0F5F80028F6D102E03220FEF797
:10256000E5FD36A14EA000F0EBF80028F6D102E020
:102570003220FEF7DBFD31A14DA000F0E1F800288C
:10258000F6D102E03220FEF7D1FD2CA14BA000F0E5
:10259000D7F80028F6D102E03220FEF7C7FD27A1C8
:1025A00049A000F0CDF80028F6D102E03220FEF775
:1025B000BDFD22A147A000F0C3F80028F6D102E03B
:1025C0003220FEF7B3FD1DA146A000F0B9F80028A7
:1025D000F6D102E03220FEF7A9FD18A145A000F0D7
:1025E000AFF80028F6D102E03220FEF79FFD13A1DC
:1025F00043A000F0A5F80028F6D102E03220FEF753
:1026000095FD0EA142A000F09BF80028F6D102E053
:102610003220FEF78BFD46A147A000F091F800287C
:10262000F6D110BD0000000041542B454E544D0D15
:102630000A000000610000002B2B2B004F4B000014
:1026400041542B574D4F44453D5452414E530D0A72
:102650000000000041542B504D4F44453D52554E13
:102660000D0A000041542B49544D3D32300D0A00F3
:1026700041542B57544D3D323030300D0A0000008C
:1026800041542B52544F3D3530300D0A00000000AC
:1026900041542B46444D4F44453D4F46460D0A009C
:1026A00041542B43483D343730300D0A00000000C0
:1026B00041542B5350443D31300D0A0041542B50AE
:1026C00057523D32320D0A0041542B4645433D31AD
:1026D0000D0A000041542B4C42543D4F46460D0A12
:1026E0000000000041542B414444523D38380D0A4B
:1026F0000000000041542B4C52544F3D330D0A0052
:1027000041542B5541525446543D31300D0A00007E
:1027100041542B554152543D3131353230302C38F3
:102720002C312C4E4F4E452C4E46430D0A000000D6
:10273000537461727400000041542B5A0D0A00005A
:102740002DE9F041A2B080460E46C8244046FDF770
:102750002FFD87B22622234910A8FDF7F3FC214D57
:10276000E88CADF86600A86A1A90A88DADF86C00E8
:10277000E88DADF86E00286B1C90686B1D900922E7
:1027800005F138011EA8FDF7DDFC95F841008DF834
:10279000810095F842008DF88200686C2190CDE9A7
:1027A0000E87382214A96846FDF7CCFC10A80FC884
:1027B00000F03DFC10E000F053F850B931460A48F3
:1027C000FDF7E4FC28B1FFF763FE002022B0BDE86E
:1027D000F0810A20FEF7AAFC641EE4B2EBD20120CD
:1027E000F4E70000400200208802002070B5A2B08B
:1027F00005460E46FFF74CFE2622184910A8FDF7A5
:10280000A1FC164CE08CADF86600A06A1A90A08D71
:10281000ADF86C00E08DADF86E00206B1C90606B25
:102820001D90092204F138011EA8FDF78BFC94F8D5
:1028300041008DF8810094F842008DF88200606CB0
:102840002190CDE90E56382214A96846FDF77AFC8E
:1028500010A80FC800F0EBFB22B070BD40020020B2
:1028600007490878002806D0064A1388984204D100
:1028700000200870704701207047108001207047C9
:1028800038000020440000202DE9F04186B00024EB
:1028900002940394049405942348816941F0200133
:1028A0008161816901F020010191816941F0040198
:1028B0008161816901F004010191816941F00801A0
:1028C0008161806900F008000190184F012248F2F0
:1028D00012013846FEF743FDDFF85480012208213B
:1028E0004046FEF73CFD022502950126039604941E
:1028F0000320059002A93846FEF72AFC48F2100092
:10290000029003960494059502A93846FEF720FC30
:102910000820029003960494059502A94046FEF70C
:1029200017FC06B0BDE8F08100100240000801402D
:10293000000C014010B50D480B4901600C49416085
:1029400000218160C1604FF4804202614161816178
:10295000C1610162FEF710FD002803D0BDE8104000
:10296000FEF7CCBA10BD0000005800401401002052
:10297000A086010010B586B000240294039404944C
:1029800005940094019414484FF08041016041F691
:102990001F414160846041F28731C16004618461FC
:1029A000FFF782F908B1FEF7A9FA4FF480500290C0
:1029B00002A90948FFF702FA08B1FEF79FFA00944E
:1029C000019469460448FFF73BF9002801D0FEF75F
:1029D00095FA06B010BD00006801002010B586B061
:1029E00000240294039404940594009401941448E0
:1029F0001249016040F2CF214160846040F2E7312A
:102A0000C16004618461FFF74FF908B1FEF776FAFF
:102A10004FF48050029002A90948FFF7CFF908B19E
:102A2000FEF76CFA0094019469460548FFF708F92F
:102A3000002801D0FEF762FA06B010BD0008004081
:102A4000B001002010B50C480A4901604FF4E13193
:102A5000416000218160C16001610C22426181619D
:102A6000C161FFF705FC002803D0BDE81040FEF768
:102A700045BA10BD00380140F801002010B50C48DF
:102A80000A4901604FF4E131416000218160C16079
:102A900001610C2242618161C161FFF7E9FB0028FD
:102AA00003D0BDE81040FEF729BA10BD0044004035
:102AB00040020020FEE7FEE77047000008B5074926
:102AC0004FF4FA520968B1FBF2F14143009100BFA3
:102AD0000098411E0091FAD208BD00003400002089
:102AE000704700002DE9FE43074688460026002572
:102AF00041463846FDF78BFF012241463846FEF736
:102B00002EFC4FF4FA60FEF711FB002241463846D6
:102B1000FEF7EAF800232B48294990F800C019E095
:102B20000124002201EBC30010F80290B9F1000F5C
:102B300001D0002403E0521CD2B2082AF4D33CB9DD
:102B400011F83300282800D101262C2800D10125B6
:102B50005B1CDBB29C45E3D856EA050027D1414611
:102B60003846FEF7A7F83C20FDF7E6FECC224146AA
:102B70003846FEF77AF9BE2241463846FEF775F927
:102B80000024E94641463846FEF780F809F804007B
:102B9000641CE4B2092CF5D3002019F80010FF29B9
:102BA00001D0012503E0401CC0B20928F5D315B1BE
:102BB0000220BDE8FE830EB10120FAE70020F8E70D
:102BC000EC0200203E000020FEF7D2BC30B58FB0F2
:102BD000282105A8FDF7CFFA14216846FDF7CBFAA6
:102BE000012105910804069000240794099102250B
:102BF0000C950D904FF4E0100E9005A8FEF748FEDE
:102C000008B1FEF77BF90F200090019502944FF474
:102C100080600390049402216846FEF743FD00287B
:102C200001D0FEF76BF90FB030BD70470148FFF7D8
:102C30003AB90000680100200148FFF734B90000EC
:102C4000B0010020F0B50268164C174D174E4FF03A
:102C50008047A04205D0B84203D0A84201D0B0427C
:102C600003D122F070034A681A43A04205D0B8424B
:102C700003D0A84201D0B04203D122F44073CA6805
:102C80001A434B6922F080021A4302608A68C262CA
:102C90000A688262A04201D1096901630121416190
:102CA000F0BD0000002C014000040040000800407E
:102CB00010B5846824F47F4442EA03220A43224385
:102CC000826010BD826822F070020A4342F0070160
:102CD0008160704710B5036A046A24F0010404623D
:102CE000846924F0F00444EA021423F00A020A433F
:102CF0008461026210BD10B5036A046A24F01004F6
:102D00000462846924F4704444EA023223F0A0038C
:102D100043EA01118261016210BD10B5406A0021D1
:102D2000C185C184FFF78AF910BD01680C3151E8F3
:102D3000002F22F4907241E80023002BF5D10168A6
:102D4000143151E8002F22F0010241E80023002B4A
:102D5000F5D1016B012909D101680C3151E8002F2F
:102D600022F0100241E80023002BF5D1202180F849
:102D7000421000210163704710B50168CA6822F053
:102D80004002CA60202180F84110FFF77FFB00203D
:102D900010BD08B590F84210222901D0022008BDCC
:102DA00082684FF480539A4201D1016921B1816A4E
:102DB0009A421DD052B10BE0816A02685268C2F398
:102DC00008020A80816A891C816209E002697AB17D
:102DD0000268526802F07F020A70816A491C8162AF
:102DE000C18D491E0904090CC18505D0002008BD0C
:102DF000026852680A70F0E70168CA6822F020028F
:102E0000CA600168CA6822F48072CA6001684A69AF
:102E100022F001024A61202180F842100021416322
:102E2000026B012A03D0FFF7CBFA002008BD016333
:102E300001680C3151E8002F22F0100241E8002314
:102E4000002BF5D101680A68D20602D50A684968E4
:102E50000091818DFFF7F1F8E7E7000070B50446B7
:102E600020680169E26821F4405111430161A168C1
:102E700020690143606901432068C26841F20C6324
:102E80009A430A43C26020684169A26921F44071F3
:102E9000114341611E492068884202D1FEF7C2FCFD
:102EA00001E0FEF7AFFC00EBC00101EB0010616830
:102EB00064228900B0FBF1F3B3FBF2F36FF0180664
:102EC0007343B0FBF1F5B0FBF1F605EB830532235C
:102ED00003EB0515B5FBF2F5B6FBF2F605F0F005D0
:102EE00005EB0615B0FBF1F6B0FBF1F0B0FBF2F02C
:102EF0006FF01801484306EB800003EB0010B0FBB5
:102F0000F2F0216800F00F002844886070BD0000D6
:102F10000038014081628285C285002141642221FE
:102F200080F842100169002904D00168CA6842F49F
:102F30008072CA6001684A6942F001024A61006811
:102F4000C16841F02001C1600020704790F8411035
:102F5000212901D0022070478168B1F5805F01D13D
:102F6000016961B1016A4A1C026202680978516014
:102F7000C18C491E0904090CC1840AD013E0016AFE
:102F800002680988C1F308015160016A891C016265
:102F9000EEE70168CA6822F08002CA600068C16872
:102FA00041F04001C160002070472DE9F041044626
:102FB0000E4617469846069D25E0681C23D02DB185
:102FC000FEF7D4F9A0EB0800A8421CD920680C3009
:102FD00050E8001F21F4D07140E80012002AF5D11A
:102FE0002068143050E8001F21F0010140E8001271
:102FF000002AF5D1202040346070A070002020709D
:103000000320BDE8F0812068006836EA000004D0A3
:103010000020B842D1D00020F3E70120F9E70000FA
:103020000148FFF70DB8000040020020FEE70FB492
:103030002DE9F041DDE918560024671E08E0294615
:103040006D1C3B46012206A8FFF7CEF9641CA4B212
:10305000B442F4D3BDE8F0015DF814FB0FB4054BA6
:1030600010B503A9044A029800F0FEF810BC5DF800
:1030700014FB0000A1390008480000200FB4084BE1
:1030800010B504A902AA039800F0EEF8044602A9BC
:10309000002000F080FC204610BC5DF814FB00000E
:1030A000973900080907090E002804DB00F1E02029
:1030B00080F80014704700F00F0000F1E02080F865
:1030C000141D704702E008C8121F08C1002AFAD177
:1030D00070477047002001E001C1121F002AFBD198
:1030E000704700002DE9FF5F82B00021DDE9043068
:1030F000020DDDF840B0034318D044F61050A2F2A0
:10310000FF3242431514119801281FD0A5EB0B0084
:10311000401C5FEA000A4FF000064E4FDFF838917E
:10312000B046504615D5CAF1000413E011980124A9
:103130004AA3012801D16FEA0B010298119AC0E954
:103140000031C0E9024206B0BDE8F09FCBF10000BB
:10315000DFE704460021404A491842EB0450CDE91C
:10316000001012E0E00707D032463B464046494691
:10317000FDF784FA8046894632463B46104619469A
:10318000FDF77CFA06460F466410002CEAD1DDE913
:103190000401DDE90023BAF1000F06DAFDF76EFA4B
:1031A00042464B46FDF76AFA05E0FDF7D9FA42467A
:1031B0004B46FDF7D5FA04460E460022284BFDF794
:1031C00057FB03D84FF0FF30014607E00022254BA4
:1031D00020463146FDF7ABF9FDF731FB102409E03D
:1031E000002C0ADB0A220023FDF7DCF8039B3032B7
:1031F0001A55641E50EA0102F2D1641C039AC4F10C
:1032000011031444119A012A03D0012208430DD15D
:103210000AE0084304D000204FF0110B119072E730
:10322000A3EB0B056D1E0DE05B4504DD4FF00002C6
:1032300005F1010504E003DA4FF00002A5F10105F4
:10324000002AECD002981199C0E90231C0E900458A
:1032500079E70000000014400000F03F300000005B
:103260000000F0430000E03F2DE9FF4F95B09B4682
:103270008946064600250FE2252877D100242746F7
:10328000F84A0121059400E0044316F8013F203B71
:1032900001FA03F01042F7D130782A2811D06FF0EC
:1032A0002F033078A0F13002092A16D8059A44F08D
:1032B000020402EB820203EB42021044761C0590EA
:1032C000EFE759F8042B0592002A03DA504244F440
:1032D0000054059044F00204761C30782E2816D154
:1032E00016F8010F44F004042A280DD06FF02F02C5
:1032F0003078A0F13003092B09D807EB870302EBE4
:103300004303C718761CF3E759F8047B761C307822
:103310006C280FD006DC4C2817D068280DD06A28FE
:1033200014D104E0742810D07A280FD10DE044F4B1
:1033300000140AE044F4801401E044F4401472786C
:10334000824202D104F58014761C761C30786628FF
:103350000BD013DC582877D009DC002875D045281D
:10336000F6D04628F4D047281AD19DE118E063280A
:1033700035D0642879D0652812D195E1702873D0B2
:1033800008DC6728F1D069286FD06E280DD06F282F
:1033900006D1B5E073282CD0752875D0782874D064
:1033A0005A46179990476D1C75E1C4F302500228E4
:1033B00009D003280DD0D9F8001004280DD00D60D5
:1033C00009F1040967E1D9F80010EA17C1E90052D0
:1033D000F6E7D9F800100D80F2E70D70F0E719F864
:1033E000041B8DF8001000208DF80100EA46012032
:1033F00003E059F804AB4FF0FF3061074FF00001D4
:1034000002D40DE008F101018846B9420FDA804587
:10341000F8DB1AF808100029F4D108E008F10101DE
:1034200088468142FADB1AF808100029F6D105987F
:103430005B46A0EB080721463846179A00F094FA3D
:10344000284400EB080507E04DE029E10DE01AF8FB
:10345000010B5A4617999047B8F10108F7D25B461D
:1034600021463846179A13E142E00A220092C4F33B
:1034700002524FF0000A022A08D059F804CB032A5E
:103480004FEAEC710AD00DE029E02AE009F10701CA
:1034900021F00702F2E802C1914609E00FFA8CFC24
:1034A0004FEAEC71042A03D14FFA8CFC4FEAEC711D
:1034B000002907DA0A460021DCF1000C61EB020169
:1034C0002D2202E0220504D52B228DF804200122B2
:1034D00003E0E20701D02022F7E7904659E00A21F5
:1034E00002E010220DE010214FF0000A00910BE0E5
:1034F00010224FF0000A44F004040827009203E071
:1035000008224FF0000A0092C4F30252022A05D0AA
:1035100059F804CB0021032A08D009E009F107017A
:1035200021F00702F2E802C1914605E01FFA8CFC87
:10353000042A01D10CF0FF0C4FF00008220728D517
:10354000702806D0009B83F0100353EA0A0305D0CD
:103550000EE040228DF80420012208E05CEA01021E
:1035600006D030228DF804208DF805000222904606
:10357000009B83F0080353EA0A030AD15CEA0102C4
:1035800001D1620705D530228DF804204FF00108E3
:103590007F1E582804D034A003900EA802900DE09E
:1035A00036A0F9E753466046009AFCF7FBFE8446D6
:1035B0000398825C0298401E029002705CEA01004F
:1035C000F0D1029806A9081A00F1200A600702D576
:1035D00024F4803400E00127574502DDA7EB0A0000
:1035E00000E0002000EB0A01009005984144401AD9
:1035F0000590E00306D45B462146179A059800F033
:10360000B3F90544002706E001A85A46C05D1799A2
:1036100090476D1C7F1C4745F6DBE0030CD55B46ED
:103620002146179A059800F09FF9054404E03020E0
:103630005A46179990476D1C0099481E0090002922
:10364000F5DC08E0029802995A460078491C02917C
:10365000179990476D1CBAF10001AAF1010AF1DC3B
:1036600065E1000009280100303132333435363746
:1036700038396162636465660000000030313233BE
:10368000343536373839414243444546000000005E
:1036900000F058F90544761C307800287FF4ECAD32
:1036A00019B02846BDE8F08F620700D4062709F15B
:1036B000070222F0070CFCE80223E14603F0004871
:1036C0005FEA080C02D00FF2702C0DE05FEA045C98
:1036D00002D50FF2682C07E05FEAC47C02D00FF23B
:1036E000602C01E0AFF2700C4FF0FF3823F0004384
:1036F000CDF850C065280CD006DC452809D04628F6
:103700001DD047283DD13DE0662818D067287ED1DE
:1037100038E00021112F01DB112000E0781CCDE9F9
:10372000000106A90EA8FFF7DDFCDDE90F010E9AE6
:1037300003910021009207F1010A04914DE04FF03E
:1037400000400097CDE9011006A90EA8FFF7CAFCBA
:10375000DDE90F0203920E9B11990022DDF80CA007
:103760000093049211B9791C00EB010AB7EB0A002F
:1037700004D4C0F1FF3007F1010A0490AAEB07005E
:10378000019044E0012F00DA01270021112F01DD13
:10379000112000E03846CDE9000106A90EA8FFF788
:1037A000A1FCDDE90F010E9A039100210491009222
:1037B000BA4621070CD40399514500DA8A46BAF17A
:1037C000010F05DD009AAAF10101515C302908D0F2
:1037D000B84202DA10F1040F06DA0121CDE9011036
:1037E00015E0AAF10101E9E7002805DC049901448C
:1037F0000491AAEB000102E0411C514500DD8A461C
:103800000499401A401C01904FF00040029020079C
:1038100004D40198504501DBCDF8048000208DF8D8
:103820004F0002980DF14F07B0F1004F25D02B202B
:103830000E9002984FF0020800280CDA40420290E5
:103840002D200E9007E00A210298FCF795FD3031FB
:10385000029007F8011DB8F10001A8F10108F2DC9F
:1038600002980028EFD1791E0E980870307800F089
:10387000200040F0450007F8020D12A8C01B00F11F
:1038800007081498007800B1012000EB0A010198A4
:1038900001EBE07105984144401A401E0590E00399
:1038A00006D45B462146179A059800F05DF805445A
:1038B0001498007818B15A46179990476D1CE00388
:1038C00024D55B462146179A059800F04DF805442B
:1038D0001CE00498002807DBDDE90301884203DDD2
:1038E0000098405C179901E0179930205A4690479C
:1038F000049805F10105401C04900198401E0190B8
:1039000004D12E205A46179990476D1CBAF1000138
:10391000AAF1010ADDDC05E017F8010B5A461799F8
:1039200090476D1CB8F10001A8F10108F4DC5B467A
:103930002146179A0598ABE62D0000002B000000E9
:10394000200000002DE9F041044600251E461746E0
:10395000880404D405E039462020B0476D1C641E5D
:10396000F9D52846BDE8F0812DE9F041044600254F
:103970001E469046C80301D5302700E02027880462
:1039800004D505E041463846B0476D1C641EF9D5A4
:103990002846BDE8F0810A68531C0B601070704720
:1039A00013B54FF47A73012269460248FEF71CFDF5
:1039B00000981CBDF801002090B0FDF7E1FDFFF775
:1039C00005F9FEF761FFFFF709F8FEF7D3FFFFF7F0
:1039D00039F8FFF753F8FEF7ADFFD448FDF798FD2F
:1039E000D3A0FFF73BFBDB48FEF7B6F90122DA492B
:1039F000DA48FEF7D7FC3220FDF798FBFEF756FDBC
:103A000000224FF40041D648FDF7A9FCFCF77CFFEB
:103A1000D44DA5F1180629883068FFF763F8311FE7
:103A20004870012802D0022806D00AE000220821AE
:103A3000CD48FDF794FC04E001220821CA48FDF7B7
:103A40008EFC0024DFF824B34FF4FA77C54DA5F1BE
:103A5000180635F8141056F82400FDF797F8384684
:103A6000FDF764FB35F8141056F824002246FDF7E4
:103A70003BF91BF804202146BDA0FFF7EFFA641CB8
:103A8000E4B2062CE2D30DF120080DF1080947E15C
:103A900000270780B34C1C3C607818B90821B24855
:103AA000FDF755FCAF491C394888401C80B248805E
:103AB000B0F5167F0FD3084647800024A94D061D98
:103AC000224635F8141056F82400FDF70DF9641C51
:103AD000E4B2062CF4D30025A248183850F825008B
:103AE0000F90A04830F815000E90002400264AE000
:103AF00001220021A34800EB851C0CEBC60313F840
:103B000001A0BAF1000F01D0002203E0491CC9B2A4
:103B10000829F4D3AABB1CF8360028280CD009EBDE
:103B2000840008EB8401CDE90010DDE90E10334676
:103B30002A46FDF7E5F90EE0DDE90E1033462A4688
:103B4000FCF77AFF48F8240049F824708E4988422F
:103B500001D148F8247058F824008C49884202DCCE
:103B60008B49884201D948F8247059F824008949C2
:103B7000884202DC10F1FF4F01D349F82470641C25
:103B8000E4B2761CF6B21BF80500B04201D9062C4F
:103B9000AED3204605E048F8207049F82070401C5C
:103BA000C0B20628F7D35CB9089709970A970B9714
:103BB0000C970D9702970397049705970697079719
:103BC000C8217548FCF7D7FA23462A4673A17248E4
:103BD000FFF754FA84B20026DFF8BCA158F826009B
:103BE000FCF79BFB0AEB040C02460B4671A16046F6
:103BF000FFF744FA204484B2052E06D20AEB0400F3
:103C00006EA1FFF73BFA204484B2761CF6B2062E72
:103C1000E4D30AEB04006AA1FFF730FA204484B22F
:103C2000002659F82600FCF778FB0AEB040C024644
:103C30000B4660A16046FFF721FA204484B2052EAE
:103C400006D20AEB04005DA1FFF718FA204484B203
:103C5000761CF6B2062EE4D30AEB04005AA1FFF755
:103C60000DFA4D48FCF7A4FA81B24B48FEF7BEFDB1
:103C70006D1CEDB2062DFFF42FAF3A491C390878C0
:103C8000401CC0B208700A284AD30F7000240022DA
:103C900000211BF8026013E001230020394D05EBE1
:103CA000821505EBC1052F5C0FB1002303E0401C1A
:103CB000C0B20828F7D30BB9641CE4B2491CC9B2DE
:103CC0008E42E9D8521CD2B2062AE1D344B3012273
:103CD000234ED70339463046FDF741FB4FF4FA60D7
:103CE000FDF724FA00254FF4487A12E00022394605
:103CF0003046FDF734FB5046FDF718FA01223946ED
:103D00003046FDF72CFB4FF4C870FDF70FFA6D1C21
:103D1000EDB2A542EAD3002239463046FDF71FFB3B
:103D2000324801880A29FBD3B2E6000014010020C2
:103D30000D0A207561727431207072696E7466208C
:103D4000696E697420737563636573732121200D37
:103D50000A000000B00100203900002040020020CD
:103D6000000801401C000020000C01403E00002023
:103D7000434825642073656E736F72733A25640D32
:103D80000A000000EC0200200000AAC20000A042CD
:103D90000000A0C10000C8424C000020504F525407
:103DA0003A253032642C4E554D3A253032642C542D
:103DB0004D3A0000252E3166000000002F00000063
:103DC0002C484D3A000000002C44485431315F48E3
:103DD0003A302E302C44485431315F543A302E3032
:103DE0002C50726573737572653A30003A0000208A
:103DF000010202030405060708090A0B0C0D0E0F49
:103E0000101000000000000000000102030406077B
:103E10000809000000000102030400003C3E000805
:103E2000000000204C000000C4300008883E00085C
:103E30004C0000202C080000D430000800000000D6
:103E4000000801400008014000080140000801404E
:103E5000000C0140000C01402000400080000001E7
:103E60000080004001000000100000000000000081
:103E70000024F4000000000000000000000000002A
:083E800000000000000000003A
:04000005080000ED02
:00000001FF
