:020000040800F2
:10000000681700209D010008D92C00080323000870
:10001000452B0008F90700083D32000800000000E9
:1000200000000000000000000000000005010008C2
:100030006D0E00080000000049010008652D000851
:10004000B7010008B7010008B7010008B7010008B0
:10005000B7010008B7010008B7010008B7010008A0
:10006000B7010008B7010008B7010008B701000890
:10007000B7010008B7010008B7010008B701000880
:10008000B7010008B7010008B7010008B701000870
:10009000B7010008B7010008B7010008B701000860
:1000A000B7010008F12D0008B7010008B7010008EA
:1000B000FD2D0008B7010008092E0008B70100084F
:1000C000B7010008B7010008B7010008B701000830
:1000D000B701000819320008253200083132000843
:1000E000B7010008B7010008B7010008DFF810D019
:1000F00000F0BEF90048004735340008AFF3008037
:1001000068170020224B19680868B0E8F00F80F3E8
:100110000988BFF36F8F4FF0000080F311884EF015
:100120000D0E70470000000006480068006880F36C
:10013000088862B661B6BFF34F8FBFF36F8F00DFE1
:1001400000BF00BF08ED00E0EFF30980BFF36F8F41
:100150000F4B1A6820E9F00F106008B54FF05000FF
:1001600080F31188BFF34F8FBFF36F8F03F064FDEF
:100170004FF0000080F31188BDE808401968086856
:10018000B0E8F00F80F30988BFF36F8F704700BFAE
:100190003C000020EFF305807047000006488047D0
:1001A00006480047FEE7FEE7FEE7FEE7FEE7FEE75C
:1001B000FEE7FEE7FEE7FEE7EF2D0008ED00000892
:1001C00040EA01039B0703D009E008C9121F08C0D9
:1001D000042AFAD203E011F8013B00F8013B521E59
:1001E000F9D27047D2B201E000F8012B491EFBD2D0
:1001F00070470022F6E710B513460A460446194632
:10020000FFF7F0FF204610BD30B505462A460B46E5
:1002100012F8010B13F8014B08B1A042F8D01CB141
:10022000002802D06D1CF1E7284630BD421C10F8B2
:10023000011B0029FBD1801A704700000FB400B5E4
:100240008DB010A909900B9000914FF0FF300A90EB
:1002500000200C9005480690054807906A4609A8BA
:100260000F9900F0D7F80DB05DF814FB31040008C9
:100270004F0400082DE9FF5F1D464FF0FF3BD5E915
:10028000014691465F464FF00008A9697F1C01981E
:100290008847296A824688470028F6D1BAF1FF3F8D
:1002A0000CD024F4C064002E19DD600614D5BAF118
:1002B0002B0F09D0BAF12D0F0ED103E0584604B030
:1002C000BDE8F09F44F48064A9697F1C01988847C9
:1002D000761E8246002E02DDBAF1300F03D0B9F14E
:1002E000000F26D032E0A969761E44F400747F1C0A
:1002F000019888478246002E05DDBAF1780F06D0B6
:10030000BAF1580F03D0B9F1000F10D01EE0B9F1C7
:10031000000F02D0B9F1100F18D1A969761E24F48C
:1003200000747F1C019888478246102002E0082054
:1003300000E00A20814609E008FB0908A969761E49
:1003400044F400747F1C019888478246002E05DD26
:100350004946504600F04AF80028EDDAE96901986C
:100360008847A00502D46FF00100A8E7E00725D177
:10037000600613D5600502D5C8F1000000E04046D4
:1003800029680A1D2A600968220501D5087015E050
:10039000220701D5088011E008600FE02868011DE0
:1003A00029600068210502D580F8008006E0210759
:1003B00002D5A0F8008001E0C0F8008038467EE752
:1003C00030B50B46014600202022012409E021FA25
:1003D00002F59D4205D303FA02F5491B04FA02F522
:1003E0002844151EA2F10102F1DC30BD3A2800D2EA
:1003F000303820F02002412A01D3A2F13700884290
:1004000001D34FF0FF307047026811441378016048
:1004100018467047D16004495161044911620021B6
:100420001161114600F03CB8090400089504000869
:10043000426842B1016811F8013B23B1521EC0E984
:100440000012184670470121C160881E704742683B
:100450005AB1C368016843B983688B4205D0491E0D
:10046000521CC0E90012002070474FF0FF30704767
:10047000064C074D06E0E06840F0010394E80700F1
:1004800098471034AC42F6D3FFF734FECC41000855
:10049000EC410008C0B24FF4F05100F099B90000EF
:1004A0002DE9F34F8BB04FF0000801F10C000C4622
:1004B0004FF0010B46460DF1080A019062690121D7
:1004C00001989047051E2DD0252D2CD0216A8847F4
:1004D000C0B16269012101989047216A88470028CC
:1004E000F7D1411E62690198904700E0761CA1692E
:1004F0000B988847216A88470028F7D1E1690B9853
:100500008847DBE7A1690B9888470746A84201D1D5
:10051000761CD3E7E1690B9888477F1C02D1B8F1BC
:10052000000F6FD047E1002762693D4639460198C8
:1005300090472A2804D1626901210198904701253A
:10054000DFF888926269012101989047A0F130019B
:100550000A290AD24F45E5DC07EB870100EB41078A
:10056000303FDFD445F01005ECE7E90601D46FF029
:1005700000476C280AD04C2814D0682815D06A2867
:100580000DD074281CD07A281AD01DE06269012190
:10059000019890476C2802D045F0040514E045F01E
:1005A00002050DE045F020050AE06269012101988D
:1005B0009047682802D045F0080505E045F400653D
:1005C0006269012101989047C4E9015765283DD02F
:1005D00019DC58287AD00CDC452837D004DC2528D3
:1005E00026D0412831D131E046282FD047282CD1C0
:1005F0002CE05B2877D0612828D063287CD0642841
:1006000023D15AE0D1E06F2848D008DC66281DD0FD
:1006100067281BD0692821D06E2816D127E07028C2
:1006200045D0732868D0752847D078280DD14DE083
:10063000A1690B988847054625283FF469AFE16911
:100640000B9888476D1C3FF46AAFB4E023466A46B6
:100650006FF001000B99AFF300809FE045F0400080
:100660006060A80723464FF0000236D43EE0E8075A
:100670007FF447AF2068011D21600068290501D57E
:1006800006701BE7290701D5068017E7A90703D5E0
:10069000F117C0E9006111E706600FE745F040007F
:1006A0006060A80723464FF0080216D41EE040F60B
:1006B0000E0125EA0100606016E045F04000606030
:1006C000A80723464FF00A0207D40FE045F0400088
:1006D0006060A80708D5234610226FF001000B992F
:1006E000AFF300805AE007E0234610226FF00100CC
:1006F0000B99FFF7BFFD51E04FF000094F464B4605
:10070000632802D05B2807D041E02079C00601D4DD
:100710000120A06001273AE0626901210198904719
:100720005E2805D14FF0010962694946019890475A
:10073000216939B900210A46534643F82120491C52
:100740000829FADBB0B3216969B9C11700EBD1629E
:1007500053110AEB830122F01F02821A01200B6859
:10076000904003430B6062690121019890475D2826
:10077000E8D1B9F1000F09D00020514651F82020EE
:10078000D24341F82020401C0828F7DB02AB224668
:1007900000976FF001000B99AFF3008000280CDA8E
:1007A000401C08D1BBF1000F05D04FF0FF300DB059
:1007B000BDE8F08FFFE74046F9E7E90701D108F10E
:1007C000010806444FF0000B78E60000CCCCCC0CBE
:1007D0007F2801D9002208E0064A02EB5002C00738
:1007E000127800D1120902F00F0201209040084057
:1007F00070470000F8400008FEE7000010B5EFF376
:10080000108472B664210848FFF7F3FC0749002002
:100810000870074908700749087007490880002CCC
:1008200000D162B610BD0000BC0400201C000020F6
:100830001D0000201E00002038000020F0B5A7B0E9
:1008400000F03CFA00285CD1FE490878062858D30D
:10085000FD4809788278D21C8A4252D801785A29F8
:10086000F1D14178A529EED1C1788329EBD1417925
:100870000079F64C41EA0020A0F524500D271026FF
:1008800004F1380509283CD2DFE800F0053C74ACDF
:10089000E4FDFCFBFA00FFF7B1FF1422EC4922A8AB
:1008A000FFF78EFC2622E94910A8FFF789FCE08CAF
:1008B000ADF86600A06A1A90A08DADF86C00E08DCE
:1008C000ADF86E00206B1C90606B1D9009222946CC
:1008D0001EA8FFF775FC94F841008DF8810094F88C
:1008E00042008DF88200606C219022A8CDE90E07AD
:1008F000382214A96846FFF763FC10A80FC802F05D
:100900009EFCCDE1FFF77AFF1422D149143122A8D1
:10091000FFF756FC2622CD4910A8FFF751FCE08CCA
:10092000ADF86600A06A1A90A08DADF86C00E08D5D
:10093000ADF86E00206B1C90606B1D90092229465B
:100940001EA8FFF73DFC94F841008DF8810094F853
:1009500042008DF88200606C219022A8CDE90E073C
:10096000382214A96846FFF72BFC10A80FC802F024
:1009700066FC95E1FFF742FF1422B549283122A811
:10098000FFF71EFC2622B14910A8FFF719FCE08CE6
:10099000ADF86600A06A1A90A08DADF86C00E08DED
:1009A000ADF86E00206B1C90606B1D9009222946EB
:1009B0001EA8FFF705FC94F841008DF8810094F81B
:1009C00042008DF88200606C219022A8CDE90E07CC
:1009D000382214A96846FFF7F3FB10A80FC802F0ED
:1009E0002EFC5DE1FFF70AFF142299493C3122A851
:1009F000FFF7E6FB2622954910A8FFF7E1FBE08C04
:100A0000ADF86600A06A1A90A08DADF86C00E08D7C
:100A1000ADF86E00206B1C90606B1D90092229467A
:100A20001EA8FFF7CDFB94F841008DF8810094F8E3
:100A300042008DF88200606C219022A8CDE90E065C
:100A4000382214A96846FFF7BBFB10A80FC802F0B4
:100A5000F6FB25E1FFF7D2FE14227D49503122A892
:100A6000FFF7AEFB2622794910A8FFF7A9FBE08C1F
:100A7000ADF86600A06A1A90A08DADF86C0003E096
:100A8000CDE094E05BE022E0E08DADF86E00206BFD
:100A90001C90606B1D90092229461EA8FFF790FB51
:100AA00094F841008DF8810094F842008DF882009E
:100AB000606C219022A8CDE90E06382214A9684660
:100AC000FFF77EFB10A80FC802F0B9FBE8E0FFF7C4
:100AD00095FE14225E49643122A8FFF771FB26229D
:100AE0005A4910A8FFF76CFBE08CADF86600A06ACD
:100AF0001A90A08DADF86C00E08DADF86E00206B03
:100B00001C90606B1D90092229461EA8FFF758FB18
:100B100094F841008DF8810094F842008DF882002D
:100B2000606C219022A8CDE90E06382214A96846EF
:100B3000FFF746FB10A80FC802F081FBB0E0FFF7FB
:100B40005DFE14224249783122A8FFF739FB2622A4
:100B50003E4910A8FFF734FBE08CADF86600A06AB0
:100B60001A90A08DADF86C00E08DADF86E00206B92
:100B70001C90606B1D90092229461EA8FFF720FBE0
:100B800094F841008DF8810094F842008DF88200BD
:100B9000606C219022A8CDE90E06382214A968467F
:100BA000FFF70EFB10A80FC802F049FB78E0FFF733
:100BB00025FE142226498C3122A8FFF701FB2622AC
:100BC000224910A8FFF7FCFAE08CADF86600A06A95
:100BD0001A90A08DADF86C00E08DADF86E00206B22
:100BE0001C90606B1D90092229461EA8FFF7E8FAA9
:100BF00094F841008DF8810094F842008DF882004D
:100C0000606C219022A8CDE90E06382214A968460E
:100C1000FFF7D6FA10A80FC802F011FB40E0FFF76B
:100C2000EDFD14220A49A03122A8FFF7C9FA2622B5
:100C3000064910A8FFF7C4FAE08CADF86600A06A78
:100C40001A9007E01C000020BC0400208003002054
:100C500044400008A08DADF86C00E08DADF86E004A
:100C6000206B1C90606B1D90092229461EA8FFF77F
:100C7000A7FA94F841008DF8810094F842008DF8AD
:100C80008200606C21900A2022A9CDE90E10382242
:100C900014A96846FFF794FA10A80FC802F0CFFA1B
:100CA00005480078002804D027B0BDE8F040FFF7E1
:100CB000A5BD27B0F0BD00001D00002070B5134891
:100CC0000078002803D0FFF799FD012070BD104E79
:100CD000307808B1002070BD0E4C207878B12078B3
:100CE0000D4D298888420CD1052000F04DF920785F
:100CF0002988884205D101203070002070BD012074
:100D000070BD20782880012070BD00001E000020EA
:100D10001D0000201C0000203800002030B5A7B0C6
:100D2000264A92E83800D268CDE9244523932692DA
:100D3000C21700EB1262130A8DF890308DF8910003
:100D4000C81701EB1060020A8DF8922008468DF852
:100D5000930026221A4911A8FFF732FA184CE08CAA
:100D6000ADF86A00A06A1B90A08DADF87000E08D10
:100D7000ADF87200206B1D90606B1E90092204F18B
:100D800038011FA8FFF71CFA94F841008DF8850080
:100D900094F842008DF88600606C2290082023A908
:100DA000CDE90E10382215A96846FFF709FA11A8F7
:100DB0000FC802F044FA27B030BD000034400008EC
:100DC0008003002000B585B00020029011488169A1
:100DD00041F004018161816901F0040100918169A0
:100DE00041F008018161806900F008000090012055
:100DF000039002200490C020019001A9064800F051
:100E0000D5F80320019001A9044800F0CFF805B0FF
:100E100000BD00000010024000080140000C01402D
:100E200070B500240F4D8021284600F0B7F900B9B5
:100E300001244021284600F0B1F908B944F0020429
:100E4000094D0221284600F0A9F908B944F004042C
:100E50000121284600F0A2F908B944F00804204610
:100E600070BD000000080140000C0140704772B6E0
:100E7000FEE770B54FF6FF7200244AF201050CE060
:100E8000035D5A400023D60702D052086A4000E0B2
:100E900052085B1C082BF6D3641C8C42F0D3100262
:100EA00040EA122080B270BD10B590F821100022E7
:100EB000022905D00421816380F82020012010BD83
:100EC00001680B6823F00E030B6001680B6823F0C8
:100ED00001030B6090F84030C46B012101FA03F369
:100EE000636080F8211080F82020104610BD0000BB
:100EF00010B5002490F82110022903D00421816349
:100F000001243DE001680A6822F00E020A600168CF
:100F10000A6822F001020A601A4A0168914201D16E
:100F2000012121E0174A1432914201D110211BE026
:100F3000144A2832914201D1891515E0114A3C32F8
:100F4000914201D189140FE00E4A5032914202D1F0
:100F50004FF4803108E00B4A6432914202D14FF4E1
:100F6000801101E04FF08071064A083A516001217A
:100F700080F82110002180F82010416B01B18847D2
:100F8000204610BD0800024070B5044600F014F978
:100F90000546601C02D004480078044400F00CF9B7
:100FA000401BA042FAD370BD200000202DE9F84F6D
:100FB00000240023DFF8C4914FF00F08A9F1040BBF
:100FC00009F1040AABF1040ED1E00127A7403A4031
:100FD000BA4275D1DFF8A8C14D68A5EB0C0665458E
:100FE0002BD00DDC032D34D005DC35B3012D19D009
:100FF000022D2FD11BE0112D16D0122D2AD119E070
:10100000B6F5881F19D006DCB6F5803F15D0B6F5C9
:10101000801F1FD111E0B6F5001F0ED0B6F5041FDA
:1010200018D10AE0CB6815E0CB681B1D12E0CB6835
:1010300008330FE0CB680C330CE08B6823B1012B35
:1010400004D00823476105E0042303E00823076177
:1010500000E00023FF2A01D8054601E000F1040565
:1010600002D84FEA840603E0A4F108064FEA860698
:101070002F6808FA06FC27EA0C0703FA06F647EA87
:1010800006072F604D68ED0070D53E4DAE6946F005
:101090000106AE61AD6905F0010500953A4D24F0F9
:1010A00003067719BE68A5072D0F08FA05FC26EA86
:1010B0000C06DFF8D8C0604503D14FF0000C17E0F4
:1010C00054E0DFF8CCC0604502D14FF0010C0FE0D6
:1010D000DFF8C0C0604502D14FF0020C08E0DFF835
:1010E000B8C0604502D14FF0030C01E04FF0040C92
:1010F0000CFA05FC4CEA060CC7F808C04D68ED0276
:1011000005D5D9F800501543C9F8005004E0D9F8C6
:1011100000509543C9F800504D68AD0205D5DAF886
:1011200000501543CAF8005004E0DAF80050954327
:10113000CAF800504D68AD0305D5DBF800501543E3
:10114000CBF8005004E0DBF800509543CBF800509A
:101150004D68ED0305D5DEF800501543CEF800507C
:1011600004E0DEF800509543CEF80050641C0A6895
:1011700032FA04F57FF429AFBDE8F88F0804014086
:101180000000111000100240000001400008014062
:10119000000C01400010014000140140806808422A
:1011A00001D00120704700207047002A01D0016162
:1011B000704709040161704701488068704700006A
:1011C0002000002002488168027811448160704745
:1011D0002000002010B50748016841F010010160AF
:1011E000032000F0A1F80F2000F006F800F04AF804
:1011F000002010BD0020024030B587B005461C48D5
:10120000816941F400618161806900F400600090AF
:1012100001A902A800F044F900F076F91549B0FBE5
:10122000F1F1491E1548144A026040F2E732C260EB
:101230004160002202618260826100F093FB0446FB
:1012400094B90E4800F0E6FB04466CB9192000F092
:101250003DF8102D07D200222946192000F044F84D
:101260000748056000E0012407B0204630BD0000BB
:101270000010024040420F00002C014020050020D9
:101280002400002008B50F48816941F00101816107
:10129000816901F001010091C16941F08051C16192
:1012A000C06900F08050009000220F21901E00F0D5
:1012B0001BF80549486820F0E06040F00070486085
:1012C00008BD00000010024000000140002809DBBA
:1012D00000F01F02012191404009800000F1E02050
:1012E000C0F8001170470000F0B40D460D4B1B68AC
:1012F000C3F30223C3F10704042C00D90424191DED
:10130000072901D2002300E0DB1E012606FA04F1C2
:10131000491E294099409E40761E16403143F0BC3C
:1013200001F0B8BF0CED00E000F00701054A1068BD
:101330004FF6FF03184040EA0120034908431060BC
:10134000704700000CED00E00000FA052DE9F047C1
:1013500004460D46002C17D0DFF83081D8F8000085
:1013600000F00700A84211D2D8F8000020F00700D2
:101370002843C8F80000D8F8000000F00700A84291
:1013800004D00120BDE8F0870120FBE72068404E33
:10139000810712D5400703D5706840F4E0607060A3
:1013A0002078000703D5706840F460507060706862
:1013B000A16820F0F000084370602078C0072CD0AE
:1013C0006068012806D0022809D0316889070BD44B
:1013D0000120D7E73168890306D40120D2E73168BC
:1013E000890101D40120CDE7716821F00301014397
:1013F0007160FFF7E1FE074641F2883906E0FFF72A
:10140000DBFEC01B484501D90320BBE7706861685B
:1014100000F00C00B0EB810FF1D1D8F8000000F023
:101420000700A8420ED9D8F8000020F00700284392
:10143000C8F80000D8F8000000F00700A84201D06A
:1014400001209FE72078400705D57068E16820F407
:10145000E060084370602078000706D57068216955
:1014600020F4605040EAC100706000F05DF87168DF
:10147000084AC1F30311515CC84007490860074896
:101480000068FFF7B9FE00207CE700000020024062
:10149000001002401A4000082C0000202400002008
:1014A0000F2202600B4A536803F003034360536842
:1014B00003F0F0038360536803F4E063C360526891
:1014C00002F46052D20802610348006800F007008D
:1014D0000860704700100240002002400148006888
:1014E000704700002C00002000B5FFF7F7FF04490B
:1014F0004968044AC1F30221515CC84000BD0000A4
:10150000001002402A40000800B5FFF7E7FF044939
:101510004968044AC1F3C221515CC84000BD0000C3
:10152000001002402A4000080E4B59680E4801F096
:101530000C02042A11D0082A0FD10C48C1F38342AF
:10154000805CC9030AD55968084AC1F34041921E1C
:10155000515C054A5043B0FBF1F0704704494843E1
:10156000704700000010024000127A000A40000894
:1015700000093D002DE9F84F0446002C0ED02078DC
:10158000D94DC0075ED06868C0F3810001280BD038
:101590006868C0F38100022803D00CE00120BDE898
:1015A000F88F6868C00306D5286880034AD560684C
:1015B000A8BB0120F3E76068B0F5803F11D0A8B167
:1015C000B0F5A02F1BD0286820F480302860286850
:1015D00020F480202860606830B3FFF7EDFD0646F8
:1015E0001EE0286840F480302860F4E7286820F482
:1015F00080302860286820F480202860EBE7286885
:1016000040F480202860286840F480302860E2E7B9
:10161000FFF7D2FD801B642802D90320BFE711E049
:1016200028688003F4D50DE0FFF7C6FD064606E006
:10163000FFF7C2FD801B642801D90320AFE72868AB
:101640008003F5D42078DFF8A48280074FF0010AE8
:101650004FF0000945D5686810F00C0F07D0686896
:10166000C0F38100022812D16868C0030FD4286833
:10167000800704D52069012801D001208FE7286860
:10168000616920F0F80040EAC100286029E0206983
:10169000B8B1C8F800A0FFF78FFD064606E0FFF7D7
:1016A0008BFD801B022801D9032078E7286880077A
:1016B000F5D52868616920F0F80040EAC10028608B
:1016C0000FE0C8F80090FFF777FD064606E0FFF749
:1016D00073FD801B022801D9032060E7286880077A
:1016E000F5D42078000726D58148A16999B1C0F8C2
:1016F00000A0FFF761FD064606E0FFF75DFD801BD9
:10170000022801D903204AE7686A8007F5D501203D
:1017100001F0E4FA0FE0C0F80090FFF74DFD064637
:1017200006E0FFF749FD801B022801D9032036E7B8
:10173000686A8007F5D42078400773D50026E869E9
:10174000C00008D4E86940F08050E861E86900F022
:10175000805000900126DFF89CB1DBF80000C00546
:1017600014D4DBF8000040F48070CBF80000FFF7E1
:1017700023FD074606E0FFF71FFDC01B642801D9C3
:1017800003200CE7DBF80000C005F4D5E068012871
:1017900012D0B0B105281DD0286A20F001002862BF
:1017A000286A20F004002862E06841F2883B28B3F0
:1017B000FFF702FD07461DE0286A40F0010028629D
:1017C000F2E7286A20F001002862286A20F004006D
:1017D0002862E9E7286A40F004002862286A40F09D
:1017E00001002862E0E7FFF7E7FCC01B584501D97C
:1017F0000320D4E6286A8007F5D50DE0FFF7DCFC6E
:10180000074606E0FFF7D8FCC01B584501D9032066
:10181000C5E6286A8007F5D4012E03D1E86920F0D7
:101820008050E861E069A0B36968C1F381010229D1
:1018300046D0022805D0C8F86090FFF7BDFC0446EA
:101840003AE0C8F86090FFF7B7FC064606E0FFF7FD
:10185000B3FC801B022801D90320A0E62868800180
:10186000F5D4206AB0F5803F05D16868A16820F4FE
:10187000003008436860D4E908010843696821F42E
:10188000741108436860C8F860A0FFF795FC04462F
:1018900007E026E0FFF790FC001B022801D9032097
:1018A0007DE628688001F5D51BE0FFF785FC001B6D
:1018B000022801D9032072E628688001F5D410E0DF
:1018C00001280CD06868226A00F48031914204D16A
:1018D000616A00F47010884203D001205FE60120A5
:1018E0005DE600205BE6000000100240000042427E
:1018F00080044242007000407047704770B590F815
:101900003C20012A25D0012680F83C60022280F884
:101910003D2002685468936824F070050C682C43DD
:1019200054600D4C0268A24208D0B2F1804F05D03D
:101930000A4CA24202D00A4CA24204D123F08003F6
:101940004968194391603C304670002101700020C5
:1019500070BD022070BD0000002C0140000400405A
:101960000008004010B50446002C03D094F83D0058
:1019700010B107E0012010BD002084F83C00204693
:1019800000F016F8022084F83D00211D206801F0C7
:1019900041FA01203D3460726070A070E0702071E7
:1019A0006071A071E07120722070002010BD0000F5
:1019B00008B500681549B0F1804F14D0144A904220
:1019C00023D1C86940F00400C861C86900F0040070
:1019D0000090002205211E20FFF786FCBDE808408C
:1019E0001E20FFF773BCC86940F00100C861C869D8
:1019F00000F001000090002205211C20FFF774FC7C
:101A0000BDE808401C20FFF761BC08BD0010024083
:101A10000008004090F83D10012901D001207047D6
:101A2000022180F83D100168CA6842F00102CA60D4
:101A300000680E49884208D0B0F1804F05D00C49AB
:101A4000884202D00B49884209D1816801F0070120
:101A5000062908D0016841F00101016003E0016836
:101A600041F001010160002070470000002C01409E
:101A7000000400400008004070B50446002594F8BA
:101A80003C00012817D0012684F83C60022084F82D
:101A90003D002068826822F0770222F47F42826053
:101AA0000868502838D00DDC202853D005DC90B3CE
:101AB000102811D14EE0022070BD30284AD04028B5
:101AC0000AD13DE0602831D070280CD0B0F5805F9D
:101AD00003D0B0F5005F12D001253C3466700020C1
:101AE0002070284670BDCB68D1E90121206801F043
:101AF000C7F92068816841F077018160EDE7CB6824
:101B0000D1E90121206801F0BBF92068816841F426
:101B100080418160E1E71DE0CA684968206801F002
:101B2000C1F95021206801F0B5F9D6E7CA684968C3
:101B3000206801F0C8F96021206801F0ABF9CCE71A
:101B4000CA684968206801F0ADF94021206801F0B9
:101B5000A1F9C2E722680146104601F09BF9BCE7F3
:101B6000704770B50446206801694FF00005C9430D
:101B7000890716D4C168C943890712D4E91E0161D7
:101B80000120207720688069800703D02046FFF776
:101B9000E7FF05E0204600F09BF8204600F099F8AA
:101BA000257720680169C943490718D4C168C9432A
:101BB000490714D46FF004010161022020772068E6
:101BC000806910F4407F03D02046FFF7C9FF05E08D
:101BD000204600F07DF8204600F07BF8257720684D
:101BE0000169C943090717D4C168C943090713D458
:101BF0006FF008010161042020772068C069800728
:101C000003D02046FFF7ACFF05E0204600F060F867
:101C1000204600F05EF8257720680169C943C906AF
:101C200018D4C168C943C90614D46FF0100101610A
:101C3000082020772068C06910F4407F03D0204638
:101C4000FFF78EFF05E0204600F042F8204600F046
:101C500040F8257720680169C943C90708D1C168E0
:101C6000C943C90704D1891E0161204600F032F83A
:101C700020680169C943090609D4C168C943090636
:101C800005D46FF0800101612046FFF735FE206822
:101C90000169C943490609D4C168C943490605D445
:101CA0006FF040010161204600F04AF820680169A8
:101CB000C94389060BD4C168C943890607D46FF0AC
:101CC000200101612046BDE87040FFF716BE70BDDF
:101CD0007047704710B5044616492068884201D104
:101CE000FFF770FA14492068884221D1134801880F
:101CF000491C01804188491C418010F86D1CD23874
:101D000021B1B0F86610491CA0F8661090F8CD100B
:101D100000290DD010F8CE1F491C017010F8CE1903
:101D2000082905D30121CD30817000210170417057
:101D300010BD0000002C0140000800406E0600208D
:101D4000704770470068124B0121124A984206D131
:101D5000917110490122C91D0F4800F011BA0F4BB3
:101D6000984207D191700B490B480122C91C483099
:101D700000F006BA0A4A904208D10A4880F8D0100A
:101D8000054801220849903000F0FAB97047000078
:101D9000003801401800002080030020004400406B
:101DA000004800409C05002000000020F8B50446D3
:101DB00022681068D168536900F00F06002E08D120
:101DC000850606D58D0604D52046BDE8F84001F00D
:101DD000C8B80025002E66D003F0010601F4907704
:101DE000374360D0C20705D0CA0503D5626C42F004
:101DF00001026264420705D5DA0703D0626C42F043
:101E000002026264820705D5DA0703D0626C42F0F1
:101E100004026264020707D501F02002324303D0B6
:101E2000626C42F008026264626C002A31D0800663
:101E300004D5880602D5204601F093F82068406951
:101E4000C0F38010616C090700D438B3204601F05C
:101E500054F82068406940061CD52068143050E8CA
:101E6000001F21F0400140E80012002AF5D1E06B8C
:101E700060B159494163E06BFFF73AF8002808D098
:101E8000E06B416B01B0BDE8F04008472046FFF72A
:101E900059FFF8BD2046FFF755FFF8BD2046FFF774
:101EA00051FF6564F8BD236B012B7DD1C3067BD543
:101EB000CB067ED510685068009050694FF0200323
:101EC00040064FF0020643D5E16B0868406880B2D7
:101ED0000028E7D0A28D8242E4D9E08588692028D5
:101EE0002DD020680C3050E8001F21F4807140E8AC
:101EF0000012002AF5D12068143050E8001F21F0AC
:101F0000010140E80012002AF5D12068143050E8A1
:101F1000001F21F0400140E80012002AF5D184F8AA
:101F20004230256320680C3050E8001F21F010017A
:101F300040E80012002AF5D1E06BFEF7B5FF6663BA
:101F4000A08DE18D401A81B22046FFF7FAFEF8BD60
:101F5000A08DE18D401A81B2E08D0028F7D00029D4
:101F6000F5D020680C3050E8002F22F4907240E841
:101F70000027002FF5D12068143050E8002F22F000
:101F8000010240E80027002FF5D184F84230256394
:101F900020680C3050E8002F22F0100240E80023A7
:101FA000002BF5D1666300E003E02046FFF7C9FE91
:101FB000F8BD020606D50A0604D52046BDE8F8405D
:101FC00001F0C0B84006F3D54806F1D52046BDE87B
:101FD000F84000F0B9BF0000EB2E000870B50446D1
:101FE000002C04D094F84100002510B106E0012037
:101FF00070BD84F84050204600F024F8242084F876
:1020000041002068C16821F40051C160204601F000
:102010000DF82068016921F490410161206841694F
:1020200021F02A0141612068C16841F40051C1607A
:102030006564202084F8410084F842006563002034
:1020400070BD0000F0B585B00024019402940394A3
:1020500004940268444F022044490323444D46023D
:10206000BA4228D18A6942F480428A618A6902F4BC
:10207000804200928A6942F004028A61896901F013
:1020800004010091010201910290049301A92846E4
:10209000FEF78CFF01960294039401A92846FEF7EF
:1020A00085FF002205212520FFF71EF92520FFF7D7
:1020B0000DF905B0F0BD2F4FBA4228D1CA6942F4DC
:1020C0000032CA61CA6902F4003200928A6942F0A1
:1020D00004028A61896901F00401009104210191DF
:1020E0000290049301A92846FEF760FF08210191A0
:1020F0000294039401A92846FEF758FF0022052107
:102100002620FFF7F1F82620FFF7E0F8D1E71A4D77
:10211000AA42CED1CA6942F48022CA61CA6902F4D5
:10212000802200928A6942F008028A61896901F07E
:1021300008010091019602900493104D01A92846D0
:10214000FEF734FFE91401910294039401A9284693
:10215000FEF72CFF002205212720FFF7C5F82720D6
:10216000FFF7B4F8A5E70000003801400010024076
:10217000000801400044004000480040000C0140BD
:1021800090F84230202B01D00220704721B11AB1C3
:102190000023036300F0A6BF0120704738B5044652
:1021A00027492068274D88420DD1E878AB1C5A1E7C
:1021B0000090511E244800F0B1FF23480122E91C81
:1021C0009038FFF7DDFF21492068884210D1E87977
:1021D0001C4B00909B1D1C485A1E511E643000F081
:1021E0009DFF184918480122C91DD838FFF7C8FFBC
:1021F00017492068884221D1164991F8CF00A8B923
:1022000091F8CC00012264280AD21348047891F88E
:10221000CC00431C81F8CC30084480F8684001E0D1
:1022200081F8D0200020CD3148700A70BDE83840D8
:102230000548012208494838FFF7A2BF38BD000011
:1022400000440040180000205804002000380140DD
:10225000004800409C050020000000202DE9F843C4
:1022600004460E4615461F4694F84100202802D029
:102270000220BDE8F8837EB175B1002060642120A2
:1022800084F84100FEF798FF8046A584E584A068A5
:10229000B0F5805F02D003E00120EAE7206910B1C9
:1022A0003546002613E0002511E043460022802138
:1022B0002046009700F075FF08B10320D9E79DB1D3
:1022C000216815F8010B4860E08C401EE084E08C2A
:1022D0000028EAD14346002240212046009700F022
:1022E00060FF40B10320C4E736F8020B2168C0F359
:1022F00008004860E8E7202084F841000020B8E7A3
:102300007047FEE710B5EFF3108472B664210848F9
:10231000FDF76FFF0749002008700749087007495B
:10232000087007494880002C00D162B610BD00003B
:102330005804002018000020190000201A00002076
:10234000300000201FB5694C002280212046FEF796
:102350002CFF0A20FEF718FE012280212046FEF7FE
:1023600024FF3220FEF710FEFFF7CCFF60A161A032
:1023700000F04CF902E03220FEF706FE60A161A0F9
:1023800000F044F90028F6D102E03220FEF7FCFD0F
:102390005DA15BA000F03AF90028F6D102E03220FE
:1023A000FEF7F2FD58A159A000F030F90028F6D14F
:1023B00002E03220FEF7E8FD53A159A000F026F913
:1023C0000028F6D102E03220FEF7DEFD4EA158A033
:1023D00000F01CF90028F6D102E03220FEF7D4FD0F
:1023E00049A156A000F012F90028F6D102E03220EF
:1023F000FEF7CAFD44A155A000F008F90028F6D167
:1024000002E03220FEF7C0FD3FA154A000F0FEF82C
:102410000028F6D102E03220FEF7B6FD3AA153A023
:1024200000F0F4F80028F6D102E03220FEF7ACFD0F
:1024300035A152A000F0EAF80028F6D102E03220DF
:10244000FEF7A2FD30A150A000F0E0F80028F6D180
:1024500002E03220FEF798FD2BA14EA000F0D6F846
:102460000028F6D102E03220FEF78EFD26A14CA016
:1024700000F0CCF80028F6D1FEF7D2FC02464CA1C1
:10248000684600F0F3FE02E03220FEF77DFD1EA15B
:10249000684600F0BBF80028F6D102E03220FEF7D3
:1024A00073FD19A146A000F0B1F80028F6D102E0B2
:1024B0003220FEF769FD14A144A000F0A7F800281F
:1024C000F6D102E03220FEF75FFD0FA143A000F03D
:1024D0009DF80028F6D102E03220FEF755FD47A115
:1024E00048A000F093F80028F6D11FBD000C014071
:1024F0000000000041542B454E544D0D0A000000D1
:10250000610000002B2B2B004F4B000041542B5738
:102510004D4F44453D5452414E530D0A00000000BA
:1025200041542B504D4F44453D52554E0D0A00002D
:1025300041542B49544D3D32300D0A0041542B5724
:10254000544D3D323030300D0A00000041542B52C2
:10255000544F3D3530300D0A0000000041542B46E9
:10256000444D4F44453D4F46460D0A0041542B43D0
:10257000483D343730300D0A0000000041542B53E1
:1025800050443D31300D0A0041542B5057523D32DA
:10259000320D0A0041542B4645433D310D0A0000DF
:1025A00041542B4C42543D4F46460D0A000000005A
:1025B00041542B414444523D25750D0A0000000052
:1025C00041542B4C52544F3D330D0A0041542B556E
:1025D00041525446543D31300D0A000041542B55B0
:1025E0004152543D3131353230302C382C312C4E63
:1025F0004F4E452C4E46430D0A0000005374617245
:102600007400000041542B5A0D0A00002DE9F041DE
:10261000A2B006460F461E24FFF774FE3046FDF7B3
:1026200005FE1FFA80F82622304910A8FDF7C8FDE4
:102630002E4DE88CADF86600A86A1A90A88DADF80A
:102640006C00E88DADF86E00286B1C90686B1D90D7
:10265000092205F138011EA8FDF7B2FD95F84100E9
:102660008DF8810095F842008DF88200686C219009
:10267000CDE90E68382214A96846FDF7A1FD10A81F
:102680000FC800F0DCFD0025DFF8648014E000F0E6
:1026900033F870B939461748FDF7B6FD48B1FFF772
:1026A00031FE88F80050C8F80460002022B0BDE870
:1026B000F0810A20FEF768FC641EE4B2E7D2D8F885
:1026C0000400B04203D0C8F8046088F8005098F8BD
:1026D0000000401CC0B288F80000032803D388F82B
:1026E00000500020E2E70120E0E70000C8030020DE
:1026F000300000205804002070B5134800780028EE
:1027000003D0FFF7FFFD012070BD104E307808B1F7
:10271000002070BD0E4C207878B120780D4D69886E
:1027200088420CD10520FEF72FFC2078698888426A
:1027300005D101203070002070BD012070BD2078CF
:102740006880012070BD00001A00002019000020E0
:10275000180000203000002070B5A2B0442111A85C
:10276000FDF747FDFFF7C8FF002838D14DA14E48BF
:10277000FDF74AFD002875D020AA1FABCDE90E3227
:1027800021A81EA90D9110901BAA1AABCDE9093200
:102790001DA81CA9CDE90B1017A816ABCDE9053073
:1027A00019A918AACDE9072114AA13A912AB11ADD2
:1027B000CDE902123D4CCDE9005315A80490231D2C
:1027C00022463B493848FDF739FD132805D160689A
:1027D000002802DD6068062803DDFFF793FD22B0C4
:1027E00070BD0020012202EB400155F8213055F860
:1027F000301001EB810103EB410104EB8003996090
:10280000401CC0B20628EED3DDE91D0100EB8000BC
:1028100001EB4000A062DDE91F0100EB800001EB4D
:102820004000E062219800EB800040002063214AD4
:10283000107940F6B83110B10123002024E00020C7
:10284000508012E004EB80039B681588AB4202DDE8
:1028500053885B1C53805388032B04D3012000F062
:10286000FFF919E01BE0401CC0B26368DBB2834291
:10287000E8D811E004EB8005AD681688B54201DDAB
:10288000002305E0401CC0B26568EDB28542F1D876
:1028900013B1032000F0E4F9FFF734FD9FE7FFF7E1
:1028A00031FD9CE7544D00005804002068050020CD
:1028B000684100080200002010B59CB01C22164997
:1028C00015A8FDF77DFC002115A800F01CFE134C97
:1028D00020601C2210491C310EA8FDF771FC00215C
:1028E0000EA800F010FE60601C220B49383107A8CA
:1028F000FDF766FC002107A800F005FEA0601C2281
:10290000054954316846FDF75BFC0021684600F03C
:10291000FAFDE0601CB010BD983F000808000020E0
:102920002DE9F04186B000240294039404940594A8
:102930002348816941F020018161816901F0200112
:102940000191816941F004018161816901F0040113
:102950000191816941F008018161806900F00800FE
:1029600001900122DFF85C80D50329464046FEF73E
:102970001CFC154F0122E8213846FEF716FC029593
:102980000126039604940225059502A94046FEF708
:102990000DFB0820029003960494059502A9384681
:1029A000FEF704FBE0200290112003900494032022
:1029B000059002A93846FEF7F9FA06B0BDE8F081A5
:1029C0000010024000080140000C014010B586B024
:1029D00000240294039404940594009401941448F0
:1029E0004FF08041016041F61F414160846041F237
:1029F0008731C16004618461FEF7B4FF08B1FEF75E
:102A000036FA4FF48050029002A90948FFF734F8D3
:102A100008B1FEF72CFA0094019469460448FEF7C9
:102A20006DFF002801D0FEF722FA06B010BD0000AD
:102A3000F002002010B586B00024029403940494A0
:102A400005940094019414481249016047214160A3
:102A5000846040F2E731C16004618461FEF782FF67
:102A600008B1FEF704FA4FF48050029002A90A4818
:102A7000FFF702F808B1FEF7FAF9009401946946ED
:102A80000548FEF73BFF002801D0FEF7F0F906B03D
:102A900010BD0000000800403803002010B50C48AD
:102AA0000A4901604FF4E131416000218160C16059
:102AB00001610C2242618161C161FFF78FFA002838
:102AC00003D0BDE81040FEF7D2B910BD0038014078
:102AD0008003002010B50C480A4901604FF4E13131
:102AE000416000218160C16001610C22426181610D
:102AF000C161FFF773FA002803D0BDE81040FEF76C
:102B0000B6B910BD00440040C803002010B50C4801
:102B10000A4901604FF41651416000218160C16093
:102B200001610C2242618161C161FFF757FA0028FF
:102B300003D0BDE81040FEF79AB910BD0048004030
:102B400010040020FEE7000070B5344D95F86500D4
:102B5000002807D0B5F86600C82803D3BDE8704048
:102B600000F06AB895F8CF00012855D195F8CC400F
:102B700095F86500F0B395F8D000D8BB052C47D385
:102B80002648A11E6830FEF774F9291966314A7883
:102B9000097842EA012181423AD195F86800297802
:102BA000884235D195F86910A878814230D103293F
:102BB00005D12879EA7842F2061340EA022010296A
:102BC00026D1082C24D195F86A00202820D195F828
:102BD0006B0078B995F86C0060B995F86D00022823
:102BE00016D195F8D6100E4A0E48012903D00329B4
:102BF0000ED107E00CE00121117100220821FEF73F
:102C0000D4FA05E00021117101220821FEF7CDFA66
:102C1000BDE8704000F010B870BD00009C050020B9
:102C200002000020000C014002490120087000F061
:102C300003B800009C050020EFF3108272B600205C
:102C4000064901F84C0C21F84B0C8877C8760877B8
:102C50004877C877002A00D162B670474D06002039
:102C60002DE9F04107460E46194D95F865000028FC
:102C70002CD1FFF7E1FF01202C4685F8650084F890
:102C8000D670207860701020A0702020E0700020A6
:102C9000207160710221A1710421E17120726772BB
:102CA000300AA072E6720B21601CFEF7E2F8010AFE
:102CB0002173607300242919491C3223012205481D
:102CC000FFF7CCFA641CE4B20D2CF4D3BDE8F0811C
:102CD0009C05002010040020FEE7000008B507490D
:102CE0004FF4FA520968B1FBF2F14143009100BF81
:102CF0000098411E0091FAD208BD00002C0000206F
:102D000043F202150D4C2E1DAF1D43F2041841F283
:102D10008839A1682846FEF701F8A16A3046FDF718
:102D2000FDFFE16A3846FDF7F9FF216B4046FDF7EC
:102D3000F5FF484600F0DAFBEBE7000068050020ED
:102D4000012000F0D3FBFBE7FFF706FDFDF776FD62
:102D5000012000F0CBFBF7E7FFF7F6FE0A2000F0BA
:102D6000C5FBF9E710B5502080F31188BFF34F8FF2
:102D7000BFF36F8F01F044F818B104494FF0805051
:102D80000860002080F3118810BD000004ED00E011
:102D900030B58FB0282105A8FDF72BFA142168461D
:102DA000FDF727FA012105910804069000240794F5
:102DB000099102250C950D904FF4E0100E9005A896
:102DC000FEF7D8FB08B1FEF752F80F2000900195EE
:102DD00002944FF480600390049402216846FEF749
:102DE000B5FA002801D0FEF742F80FB030BD7047A9
:102DF0000148FEF7B6BE0000200500200148FEF79E
:102E0000B0BE0000F00200200148FEF7AABE00009C
:102E100038030020F0B50268164C174D174E4FF0DE
:102E20008047A04205D0B84203D0A84201D0B042AA
:102E300003D122F070034A681A43A04205D0B84279
:102E400003D0A84201D0B04203D122F44073CA6833
:102E50001A434B6922F080021A4302608A68C262F8
:102E60000A688262A04201D10969016301214161BE
:102E7000F0BD0000002C01400004004000080040AC
:102E800010B5846824F47F4442EA03220A432243B3
:102E9000826010BD826822F070020A4342F007018E
:102EA0008160704710B5036A046A24F0010404626B
:102EB000846924F0F00444EA021423F00A020A436D
:102EC0008461026210BD10B5036A046A24F0100424
:102ED0000462846924F4704444EA023223F0A003BB
:102EE00043EA01118261016210BD10B5406A002100
:102EF000C185C184FEF726FF10BD01680C3151E881
:102F0000002F22F4907241E80023002BF5D10168D4
:102F1000143151E8002F22F0010241E80023002B78
:102F2000F5D1016B012909D101680C3151E8002F5D
:102F300022F0100241E80023002BF5D1202180F877
:102F4000421000210163704710B50168CA6822F081
:102F50004002CA60202180F84110FFF7D1F900201B
:102F600010BD08B590F84210222901D0022008BDFA
:102F700082684FF480539A4201D1016921B1816A7C
:102F80009A421DD052B10BE0816A02685268C2F3C6
:102F900008020A80816A891C816209E002697AB1AB
:102FA0000268526802F07F020A70816A491C8162DD
:102FB000C18D491E0904090CC18505D0002008BD3A
:102FC000026852680A70F0E70168CA6822F02002BD
:102FD000CA600168CA6822F48072CA6001684A69DE
:102FE00022F001024A61202180F842100021416351
:102FF000026B012A03D0FFF7D1F8002008BD01635E
:1030000001680C3151E8002F22F0100241E8002342
:10301000002BF5D101680A68D20602D50A68496812
:103020000091818DFEF78DFEE7E7000070B5044644
:1030300020680169E26821F4405111430161A168EF
:1030400020690143606901432068C26841F20C6352
:103050009A430A43C26020684169A26921F4407121
:10306000114341611E492068884202D1FEF74CFAA3
:1030700001E0FEF739FA00EBC00101EB00106168D6
:1030800064228900B0FBF1F3B3FBF2F36FF0180692
:103090007343B0FBF1F5B0FBF1F605EB830532238A
:1030A00003EB0515B5FBF2F5B6FBF2F605F0F005FE
:1030B00005EB0615B0FBF1F6B0FBF1F0B0FBF2F05A
:1030C0006FF01801484306EB800003EB0010B0FBE3
:1030D000F2F0216800F00F002844886070BD000005
:1030E0000038014081628285C2850021416422212D
:1030F00080F842100169002904D00168CA6842F4CE
:103100008072CA6001684A6942F001024A6100683F
:10311000C16841F02001C1600020704710B5029CD9
:103120001278002A0AD10A78632A08D20A788454CD
:103130000A78521C0A7009780022425410BD0120FE
:10314000187010BD90F84110212901D0022070475D
:103150008168B1F5805F01D1016961B1016A4A1CE2
:103160000262026809785160C18C491E0904090C89
:10317000C1840AD013E0016A02680988C1F308011A
:103180005160016A891C0162EEE70168CA6822F099
:103190008002CA600068C16841F04001C16000203F
:1031A00070472DE9F04104460E4617469846069DA5
:1031B00025E0681C23D02DB1FDF7FEFFA0EB080031
:1031C000A8421CD920680C3050E8001F21F4D071AF
:1031D00040E80012002AF5D12068143050E8001FA2
:1031E00021F0010140E80012002AF5D120204034EE
:1031F0006070A070002020700320BDE8F08120687E
:10320000006836EA000004D00020B842D1D0002087
:10321000F3E70120F9E700000148FEF7C7BD000011
:10322000800300200148FEF7C1BD0000C803002054
:103230000148FEF7BBBD000010040020FEE70FB4FC
:103240002DE9F041DDE918560024671E08E0294603
:103250006D1C3B46012206A8FFF700F8641CA4B2CF
:10326000B442F4D3BDE8F0015DF814FB0FB4084B91
:1032700010B504A902AA039800F02CF8044602A98C
:10328000002000F0D1F8204610BC5DF814FB0000CF
:10329000293400080907090E002804DB00F1E020AA
:1032A00080F80014704700F00F0000F1E02080F873
:1032B000141D704702E008C8121F08C1002AFAD185
:1032C00070477047002001E001C1121F002AFBD1A6
:1032D000704700002DE9FF4F89B09B46044600254A
:1032E00006E025280BD05A460B999047641C6D1CAC
:1032F00020780028F5D10DB02846BDE8F08F0027D2
:10330000B8460122474900E0074314F8013F203B3B
:1033100002FA03F00842F7D120782E2819D114F8C8
:10332000010F47F004072A280ED06FF02F022078F3
:10333000A0F1300109290CD808EB880102EB41010A
:1033400000EB0108641CF2E70A98641C50F8048B37
:103350000A9020780028CED0642808D0692806D0AA
:1033600075281ED05A460B9990476D1C58E00A9953
:103370004FF00A0901C90A91002802DA40422D21C2
:1033800002E0390504D52B218DF82010012103E03E
:10339000F90704D02021F7E78A4608AE0DE00021A6
:1033A000FAE70A994FF00A0901C90A91F7E7494675
:1033B000FDF706F8303106F8011D0028F7D1ADEB16
:1033C000060000F12009780701D44FF00108C84534
:1033D00002DDA8EB090000E000208046002706E09F
:1033E00008A85A46C05D0B9990476D1C7F1C574535
:1033F000F6DB04E030205A460B9990476D1CB8F17B
:103400000001A8F10108F5DC05E016F8010B5A46A9
:103410000B9990476D1CB9F10001A9F10109F4DC89
:10342000641C65E7092801000A68531C0B601070D2
:1034300070470000FDF7CEFEFFF7AAFCFFF770FA19
:10344000FFF7F8FAFFF7C2FAFFF728FBFFF742FB96
:10345000FFF75CFB19491020088008884FF6FF72BF
:1034600000EB800002EA400008801548FEF7D2FA1F
:1034700012490122891E1348FEF782FE01221249D9
:103480001248FEF77DFE012211491248FEF778FE30
:10349000012208211048FDF788FE0122D1030F48C0
:1034A000FDF783FEFDF78EFCFEF74CFFFFF7BCFB3C
:1034B000FFF702FA00F022F8FEE700000200002009
:1034C00038030020100400201B000020C803002047
:1034D0001F00002080030020000C01400008014074
:1034E00001460020842900D0C81C704710B5002870
:1034F00000D1012000F02CFB002010BD10B500F021
:103500004FFB002010BD7FB504460D466169B4F93C
:103510000800002910D0A16971B1FFF7E1FFD4E9DB
:103520000521CDE901210090D4E900102B46226944
:1035300000F038FC039010E0FFF7D2FF03A9CDE9BB
:103540000001208A2B4682B2D4E9001000F0F8FB7B
:10355000012802D0002004B070BD0398FBE70000F2
:103560002DE9F04104460F46174E75693068001D7D
:1035700000F028FA38B9306890F82C100120884003
:10358000B1698143B161601C07D137B13168BDE8D1
:10359000F041091D0D4800F059BA2C4430684460D0
:1035A000AC4206D23168B068091DBDE8F04100F0B8
:1035B00035BA31687068091D00F030FA306B84420A
:1035C00000D23463BDE8F0813C00002050070020A9
:1035D00070B5044600F046FA1C4D2869401C28616D
:1035E000286810B1E86938B10CE02C60286901281E
:1035F00008D100F0F1F805E02868E16AC06A884265
:1036000000D82C60E86A401CE862E06A0121AA69DF
:1036100081401143A9610E4900EB800001EB80005D
:10362000211D00F013FA00F03DFAE86900280CD0E3
:103630002868E16AC06A884207D206494FF0805084
:103640000860BFF34F8FBFF36F8F70BD3C00002049
:103650007406002004ED00E070B50C4D0C4E11E036
:1036600000F000FAF068C468201D00F0ABF928698A
:10367000401E2861E868401EE86000F013FA20460A
:1036800000F008F8E8680028EAD170BD3C0000208E
:103690003C07002010B5044694F8510000280BD0D8
:1036A000012811D0022814D0502080F31188BFF3D4
:1036B0004F8FBFF36F8FFEE7206B00F009FA2046B3
:1036C000BDE8104000F004BA2046BDE8104000F00C
:1036D000FFB910BD4FF440610F48420706D0C01D2E
:1036E00020F007000C49411AC1F540610B4A1060F7
:1036F000002353600144083921F00701103A11609A
:103700004B600B600B1A4360016040689060506032
:103710004FF00040D0607047640700208800002010
:10372000074E4FF08054074DFFF796FF3068012891
:10373000FAD92C60BFF34F8FBFF36F8FF4E700000F
:103740007406002004ED00E02DE9F0478146DDE934
:1037500008570A9C9846521E206B00EB820020F00E
:103760000706700707D0502080F31188BFF34F8FF2
:10377000BFF36F8FFEE7002023180A5C83F8342024
:103780000A5C12B1401C1028F6D34FF0000A84F8EE
:1037900043A0072D00D30625E5626564C4F848A060
:1037A000201D00F038F904F1180000F034F924610C
:1037B000C5F10700A0616462C4F84CA084F850A071
:1037C00042464946304600F0EFF82060002F00D016
:1037D0003C60BDE8F087000070B50024124D04EB9A
:1037E000840005EB800000F00BF9641C072CF6D375
:1037F0000D488C3000F004F90B48A03000F000F9BF
:103800000948B43000F0FCF80748C83000F0F8F878
:103810000548DC3000F0F4F8034904488C3141607D
:103820001431816070BD0000740600203C0000204F
:1038300030B5134900E011460A688242FBD34B6859
:103840005C18844203D140681844486008460D68FB
:1038500044682318AB420DD1094B103B1B689A42B8
:1038600006D05268224442600A681268026002E090
:10387000036000E00260814200D0086030BD0000BB
:1038800088000020074841680968002905D0416880
:10389000C968C9684968016370474FF0FF31016327
:1038A000704700003C00002009484068401C07D0D9
:1038B000502080F31188BFF34F8FBFF36F8FFEE767
:1038C000502080F31188BFF34F8FBFF36F8FFEE757
:1038D000900000202DE9F0410546002600F0A4F9F3
:1038E000304F386808B9FFF7F5FEF86805424AD14D
:1038F0008DB1083568070ED005F00700C0F108004B
:103900000544680707D0502080F31188BFF34F8F1C
:10391000BFF36F8FFEE7B5B37868854233D821498E
:1039200010310846046801E0214604466068A84258
:1039300002D220680028F7D13868844223D00E686C
:103940000836206808606068411B10290ED960198C
:10395000420707D0502080F31188BFF34F8FBFF389
:103960006F8FFEE741606560FFF762FF616878680E
:10397000401A7860BA68904200D2B860F868014393
:1039800061600020206000F0A1FA700707D050208D
:1039900080F31188BFF34F8FBFF36F8FFEE7304680
:1039A000BDE8F0817800002020384FF08073C361BB
:1039B00021F0010181610249416140F820297047ED
:1039C000A93800080169D0E901329A60D0E90123E1
:1039D0005A604A68824201D182684A6000220261CC
:1039E0000868401E0860086870470000034B0360C9
:1039F00003F1540008608020106070479C00002094
:103A000000F1080141604FF0FF328260C160016146
:103A100000210160704700210161704730B50C68DA
:103A2000621C02D000F1080202E0026904E01A46BA
:103A300053681D68A542FAD953684B6099608A6043
:103A4000516008610168491C016030BD42684A60EC
:103A500093688B6093685960916008610168491CA4
:103A600001607047502080F31188BFF34F8FBFF380
:103A70006F8F0A494868401C486001280CD10848EB
:103A8000006810F0FF0F07D0502080F31188BFF3BB
:103A90004F8FBFF36F8FFEE770470000900000204C
:103AA00004ED00E009494868002806D0401E48603F
:103AB000002801D180F311887047502080F31188CD
:103AC000BFF34F8FBFF36F8FFEE700009000002021
:103AD00070B5002827D008380446134D6068E9689F
:103AE000084207D1502080F31188BFF34F8FBFF3F6
:103AF0006F8FFEE722683AB1502080F31188BFF340
:103B00004F8FBFF36F8FFEE78843606000F08CF843
:103B100060686968084468602046FFF789FEBDE870
:103B2000704000F0D3B970BD780000204FF0E02065
:103B300000210161816105494FF47A720968B1FB86
:103B4000F2F1491E41610721016170472C000020FC
:103B500010B502460020002A12D00F48806B38B101
:103B6000502080F31188BFF34F8FBFF36F8FFEE7B4
:103B700000F05AF800211046FFF7F2FC00F0A6F919
:103B8000002807D105494FF080500860BFF34F8FE0
:103B9000BFF36F8F10BD00003C00002004ED00E07B
:103BA00010B586B000240594049403AA04A905A8BE
:103BB000FFF71CFFDDE90410CDE90041029000236E
:103BC00015A11748039A00F0EDF81649486308B1AB
:103BD000012000E00020012809D0401C19D150200C
:103BE00080F31188BFF34F8FBFF36F8FFEE7502034
:103BF00080F31188BFF34F8FBFF36F8F4FF0FF300B
:103C000008630120C8614C6106B0BDE8104000F0B7
:103C100043B806B010BD000049444C450000000008
:103C2000213700083C0000200248816B491C816359
:103C3000704700003C000020154A906B002802D01D
:103C4000012050627047002050629069B0FA80F005
:103C5000C0F11F000F4900EB800051F8203073B114
:103C600001EB800041684968416000F10803994216
:103C700001D1496841604068C068106070475020B9
:103C800080F31188BFF34F8FBFF36F8FFEE7000003
:103C90003C000020740600201CB5264908780190DD
:103CA000FF200870087800909DF800009DF8002023
:103CB00000F0F000904207D0502080F31188BFF34D
:103CC0004F8FBFF36F8FFEE79DF800001A4B00F097
:103CD000500018700720986006E09868401E9860B1
:103CE0009DF80000400000909DF800000006F4D40C
:103CF0009868032807D0502080F31188BFF34F8FB6
:103D0000BFF36F8FFEE74FF4407098600198087022
:103D10000A48016841F470010160016841F0704196
:103D20000160FFF703FF00205860FCF7FDF9002059
:103D30001CBD000000E400E09000002020ED00E049
:103D40002DE9FF5F8146DDE90E788A4616469B46DF
:103D5000B000FFF7BFFD054628000AD05420FFF74A
:103D6000B9FD04460CB1256304E02846FFF7B0FE18
:103D700000E000249CB1002084F85100CDE902400D
:103D8000CDE900785B46324651464846FFF7DCFCF9
:103D90002046FFF71DFC012004B0BDE8F09F4FF066
:103DA000FF30F9E7F0B585B00746DDE90A600C9C05
:103DB000002815D0E4B1542503952063022084F82F
:103DC0005100002004ADCDE90240CDE90065384640
:103DD000FFF7BAFC2046FFF7FBFB049805B0F0BDE7
:103DE000502080F31188BFF34F8FBFF36F8FFEE732
:103DF000502080F31188BFF34F8FBFF36F8FFEE722
:103E00002DE9F04100262F4FB86B002808D0386A02
:103E1000401C3862786A00B101263046BDE8F08166
:103E20007D696D1C7D619DB97868006838B150204E
:103E300080F31188BFF34F8FBFF36F8FFEE7786871
:103E4000B9687960B860B86A401CB862FFF71AFDBB
:103E5000386BDFF8748085420DD37868006838B11C
:103E60007868C068C468606885420ED2386302E032
:103E70004FF0FF3038633868C06A00EB800058F8B4
:103E800020000128C6D90126C4E7201DFFF79AFDAE
:103E9000A06A18B104F11800FFF794FDE06A01214F
:103EA000BA6981401143B96100EB800008EB8000E2
:103EB000211DFFF7CBFDE06A3968C96A8842CCD37F
:103EC0000126CAE73C000020740600202DE9F041DD
:103ED000002400272D4DA86B002807D0FFF7C2FD56
:103EE000A86B401EA863A86B40B14AE0502080F345
:103EF0001188BFF34F8FBFF36F8FFEE72869E8B3D8
:103F0000DFF88C8001261EE0D8F80C00C46804F1AC
:103F10001800FFF757FD201DFFF754FDE06AAA695E
:103F200006FA00F11143A961194900EB8000B43988
:103F300001EB8000211DFFF789FDE06A2968C96A4D
:103F4000884200D36E62D8F800000028DCD10CB1A2
:103F5000FFF798FC2C6A44B1FFF752FF00B16E6284
:103F6000641E002CF8D100202862686A30B1012755
:103F7000084938070860BFF34F8F00E001E0BFF346
:103F80006F8FFFF78FFD3846BDE8F0813C000020C1
:103F90002807002004ED00E05C410008412D0008E6
:103FA0000000000000000000800000000000000091
:103FB0000000000044410008492D0008FDFF0000FA
:103FC0000000000080000000000000000000000071
:103FD00038410008012D0008FDFF0000000000002E
:103FE00080000000000000000000000050410008B8
:103FF000592D0008FDFF00000000000080000000B7
:104000000000000000000000010202030405060792
:1040100008090A0B0C0D0E0F101000000000000024
:104020000000010203040607080900000000010265
:10403000030400005AA505820000000000000000F3
:10404000000000005AA509822900000100000000BC
:1040500000000000000000005AA5098229000000AD
:104060000001000000000000000000005AA50982C5
:104070002900000000000001000000000000000016
:104080005AA50D8229030001000000000000000075
:10409000000000005AA50D82290300000001000065
:1040A00000000000000000005AA50D822903000056
:1040B0000000000100000000000000005AA50D8271
:1040C00029030000000000000001000000000000C3
:1040D0005AA50D8229030000000000000000000125
:1040E000000000005AA50782290800010000000016
:1040F0000000000000000000DDDDDDDDDCBBBBDD1D
:10410000DDDDDDDDDDDDDDDD988888888888888877
:104110007777777777888888855555566666666697
:104120006666666666688888833333322222222276
:10413000222222222228888D444755535461736BD2
:10414000000000004C6F52615461736B000000006E
:104150004D6F644275735461736B000064656661F2
:10416000756C745461736B00504F52543A25303261
:10417000642C4E554D3A253032642C544D3A25640A
:104180002E25642F25642E25642F25642E25642F6B
:1041900025642E25642F25642E25642F25642E2565
:1041A000642C44485431315F483A25642E25642CF0
:1041B00044485431315F543A25642E25642C5072A2
:1041C0006573737572653A2564000000EC41000860
:1041D000000000209C000000B43200088842000863
:1041E0009C000020CC160000C43200080000000033
:1041F00000000000000000000000000000000000BF
:1042000000000000000000000000000001000000AD
:1042100010000000000000000024F4000000000076
:10422000000000000000000000000000000000008E
:10423000000000000000000000000000000000007E
:10424000000000000000000000000000000000006E
:10425000000000000000000000000000000000005E
:10426000000000000000000000000000000000004E
:10427000000000000000000000000000000000003E
:08428000AAAAAAAA000000008E
:04000005080000ED02
:00000001FF
