:020000040800F2
:100000009808002001010008C7370008B72C000835
:10001000C53700088F0E0008C94000080000000026
:10002000000000000000000000000000F1370008A0
:100030006113000800000000C9370008653C000893
:100040001B0100081B0100081B0100081B01000820
:100050001B0100081B0100081B0100081B01000810
:100060001B0100081B0100081B0100081B01000800
:100070001B0100081B0100081B0100081B010008F0
:100080001B0100081B0100081B0100081B010008E0
:100090001B0100081B0100081B0100081B010008D0
:1000A0001B0100081B0100081B0100081B010008C0
:1000B000C93C00081B010008D53C00081B010008D2
:1000C0001B0100081B0100081B0100081B010008A0
:1000D0001B0100081B010008BD4000081B010008AF
:1000E0001B0100081B0100081B010008DFF80CD0F1
:1000F00000F0C2FB00480047794A00089808002039
:100100000648804706480047FEE7FEE7FEE7FEE7B1
:10011000FEE7FEE7FEE7FEE7FEE7FEE7C73C000876
:10012000ED0000082DE9F0410024061B254671F181
:10013000000605DA01240027D0EB070067EB010178
:10014000161E73F1000605DA0027D2EB070201251F
:1001500067EB030300F06FF986460E4617469C4690
:10016000AC4204D00025D0EB050E65EB010624B1AE
:100170000020D2EB000760EB030C704631463A4694
:100180006346BDE8F081202A04DB203A21FA02F020
:100190000021704721FA02F3D040C2F120029140C1
:1001A00008431946704740EA01039B0703D009E062
:1001B00008C9121F08C0042AFAD203E011F8013B53
:1001C00000F8013B521EF9D27047D2B201E000F8AC
:1001D000012B491EFBD270470022F6E710B51346EB
:1001E0000A4604461946FFF7F0FF204610BD30B519
:1001F00005462A460B4612F8010B13F8014B08B1CD
:10020000A042F8D01CB1002802D06D1CF1E72846AE
:1002100030BD421C10F8011B0029FBD1801A704729
:10022000F0B480EA0102D40F4200B2EB410F02D2D7
:100230000246084611464A0042D0C30DDDB2C1F362
:10024000C752AD1A202D35DAC1F3160141F4000270
:1002500004B15242C5F1200602FA06F12A411044C7
:10026000B3EBD05F23D0C4B1012DA0EBC35009DCA8
:10027000F0BC4FF0004202EAC352DBB200F50000CE
:1002800000F013B9400000F1807000EBC350A0F102
:10029000807040EAD170490009E0490841EAC07124
:1002A000A0EBC35000F50000400800EBC350F0BCC9
:1002B00000F0F2B86142012202EB4101001BF6E7B7
:1002C000F0BC704781F00041AAE780F00040A7E74A
:1002D00080EA010210B502F00043400022D04A003B
:1002E0001FD0010E01EB1261C0F35600C2F356029B
:1002F00040F4000042F40002A0FB022000047F3919
:10030000140400D0401C50EA124001D44000491EA1
:10031000C2B20C0604EBD010401C4008802A02D068
:1003200003E0002010BD20F00100002900DA0020C9
:10033000184310BD30B480EA010202F0004530F0ED
:10034000004221F0004013D090B1C30DD40DC2F390
:100350001601C0F31600E41A41F4000140F4000253
:100360007D34914201D3641C00E04900002C02DA84
:1003700030BC002070474FF400000023914201D3AD
:10038000891A034340084FEA4101F7D151B1914224
:1003900002D14FF0004105E002D24FF0010101E02F
:1003A0006FF0010103EBC450284430BC00F074B876
:1003B000420005D0C0F3C7525242914201DC0020F6
:1003C000704700EBC1507047C10F80EAE0700844ED
:1003D000CA079623002100F068B896230022114630
:1003E00000F063B800F0004230F000400AD0C10DC8
:1003F00001F56071C0F3160042EA0151C2084007DE
:100400001143704700200146704730B50B46014646
:1004100000202022012409E021FA02F59D4205D3A3
:1004200003FA02F5491B04FA02F52844151EA2F14D
:100430000102F1DC30BD2DE9F05F05460020924657
:100440009B4688460646814640241BE02846414696
:1004500047462246FFF797FE53465A46C01A914137
:1004600010D311461846224600F018FA2D1A67EBF1
:1004700001084F4622460120002100F00FFA17EB39
:1004800000094E41201EA4F10104DFDC484631463C
:100490002A464346BDE8F09F0029A8BF7047401C8C
:1004A000490008BF20F00100704710B4B0FA80FC8A
:1004B00000FA0CF050EA010404BF10BC704749B1C7
:1004C000CCF1200421FA04F411FA0CF118BF012137
:1004D00021430843A3EB0C01CB1D4FEA00614FEA17
:1004E000102042BF002010BC704700EBC3501044E6
:1004F0000029A4BF10BC7047401C490008BF20F071
:10050000010010BC70472DE9FE4F804681EA0300D0
:10051000C00F0C46009021F0004123F00045B8EBDD
:100520000200A94105D24046214690461C460B4692
:10053000024623F00040104347D0270DC7F30A00BE
:10054000C3F30A510290401A019040286BDAC3F3BA
:10055000130040F4801B0098924620B10023D2EB98
:10056000030A63EB0B0B01985946C0F14002504659
:1005700000F094F906460D4650465946019A00F09F
:100580009CF910EB08006141002487EA115284EACB
:10059000E7731A4340D0009A62B3019A012A4FEAE6
:1005A000075215DC001B61EB02014FF0004202EA2A
:1005B0000752CDE90042001C41F5801132462B461E
:1005C00000F09CF903B0BDE8F08F40462146F9E702
:1005D000001B61EB0201001C41F5801300185B4118
:1005E0002018A2F5001747EB030140EAD570B619B1
:1005F0006D4111E06D084FEA360645EAC0754FEAD5
:100600000752001B61EB0201001C41F580114908F3
:100610004FEA30000019514132462B4603B0BDE885
:10062000F04F00F05CB90098012240000023D0EBAD
:10063000020263EBE073009821464FEAE074B8EBE6
:10064000000061EB0401E9E783F000435BE781F020
:10065000004158E72DE9FE4F81EA030404F000440D
:1006600021F0004100944FF0000B23F0004350EACA
:1006700001045ED052EA03045BD0C3F30A54C1F311
:100680000A552C44A4F2F3340194A0FB0254C1F3A4
:10069000130141F48011C3F3130343F4801301FBEE
:1006A000024400FB034E840A970A44EA815447EA55
:1006B0008357A4FB076802958D0A05FB07854FEA5F
:1006C000932C04FB0C542705029D4FEA065847EA79
:1006D0001637B5EB08056EEB070C870E920E47EA4E
:1006E000811742EA8312A7FB0201B6EB0B0164EB10
:1006F00000042B0D43EA0C335E1844EB1C50DA4621
:100700005146E7FB0201C5F313044FEA0B3343EAFA
:1007100014534FEA0432019C43EA0603A4F10C048B
:100720000294009CCDE900B400F0E8F803B0BDE805
:10073000F08F00200146F9E72DE9F04D81EA03042E
:1007400004F0004B21F0004514464FF0000A23F05E
:10075000004150EA050220D054EA01021DD0C5F341
:100760000A570246C5F31303C1F31300C1F30A5637
:1007700040F4801543F48013A7EB0608101BD646FF
:1007800008F2FD3873EB050002D308F1010801E01F
:1007900092185B41B8F1000F03DA00200146BDE872
:1007A000F08D00204FF48011064684460EE0171BA2
:1007B00073EB050705D3121B63EB050306434CEAF5
:1007C000010C49084FEA300092185B4150EA0107DA
:1007D000EDD152EA030012D082EA040083EA050157
:1007E000084305D0101BAB4106D20122002306E0CE
:1007F00000224FF0004302E06FF0010253101AEBA9
:1008000006004CEB085110EB0A0041EB0B01BDE870
:10081000F04D00F064B8C1F30A52C1F3130140F285
:10082000FF3341F480119A4202DA002001467047FA
:1008300040F233439A42A2F2334202DC5242FFF7C3
:10084000A2BC00F02BB8000030B5041E71F100040A
:1008500004DB4FF00044404264EB0101141E73F1CD
:10086000000405DB1C464FF00043524263EB0403D7
:10087000994208BF904230BD064C074D06E0E06843
:1008800040F0010394E8070098471034AC42F6D3D7
:10089000FFF730FC844C0008A44C0008202A04DB3D
:1008A000203A00FA02F1002070479140C2F1200383
:1008B00020FA03F3194390407047202A06DBCB1738
:1008C000203A41FA02F043EAE07306E041FA02F30B
:1008D000D040C2F12002914008431946704710B53C
:1008E000141E73F1000408DA401C41F10001921853
:1008F0005B411A4301D120F0010010BD2DE9F04DFC
:1009000092469B4611B1B1FA81F202E0B0FA80F250
:1009100020329046FFF7C2FF04460F4640EA0A0025
:1009200041EA0B0153465A46084313D0114653EA95
:10093000010019D0C8F140025046FFF724FC0546DB
:100940000E46504659464246FFF7A8FF084305D0D9
:10095000012004E020463946BDE8F08D0020054323
:1009600046EAE0762C4337430A986305E40AA0EB95
:1009700008000022FD0A44EA47540A3002D500204C
:100980000146E9E7010510196941DDE9084500194B
:100990006941BDE8F04DA2E730B5846A2230A4F584
:1009A0009634037890F9012063F31F12857890F94B
:1009B0000330223865F31F134FF40065AA4202DBAF
:1009C000A2F5805212B2AB4202DBA3F580531BB2F8
:1009D0008903A1EB025103FB141190F92620C37F78
:1009E000624363434FF40044921204EBE3235A43FF
:1009F000A30103EBA222B0F9203001F580415A4354
:100A000002F50052C91392135143CA135243807F17
:100A1000D2114243A1EB2210002800DA00204FF04F
:100A2000C851884200DD0846001330BD2DE9F05F53
:100A30000646594AB06AC317821843F1FF33A2FB36
:100A4000027003FB020002FB0308B6F91600A7FBC5
:100A5000004CC51708FB00C007FB0505B6F91400DC
:100A6000A0FB02CA4FEAE07909FB02A900FB039050
:100A7000400440EADC304FEA4C4C1CEB0404454196
:100A8000B6F912004FEAC00C002004194CEB050522
:100A9000B6F910C0A7FB0CAB4FEAEC7908FB0CBC15
:100AA00007FB09C74FEA1A2949EA07694FEA2728CD
:100AB000B6F90E70A7FB02CB4FEAE77A0AFB02B247
:100AC00007FB032213034FEA0C3243EA1C5319EBD2
:100AD000020248EB0303121C43F50047B389A2FB53
:100AE000038C07FB03C302FB00304210C31752EA1A
:100AF00003004FD0C1F58010C117CF0747EA500758
:100B0000C007011B40F63544A1FB040C67EB050749
:100B100007FB04C4002501FB0541FFF703FBB6F901
:100B20001C40420B42EAC142A4FB025CE71707FBF0
:100B300002C74B1304FB0374A5FB027C04FB02C237
:100B400005FB03237A0E42EAC3125B16B6F91A407C
:100B5000A4FB007CE51705FB00C504FB0155FC0C5C
:100B600044EA4534ED148018594100196941030ADB
:100B7000B6F9180043EA0163C217120142EA107283
:100B80000001181842EB21214FEA102040EA0160D1
:100B9000BDE8F09F0020FBE7000CFEFF10B5C28807
:100BA000CB10B0F90840A3EB42036343DB12C2EB66
:100BB00021114943B0F90A200913514389131944FB
:100BC000816201EB81008030001210BD2DE9F041FF
:100BD0000646069C0D46174603F00702F2213046F2
:100BE00000F045F910B10120BDE8F0816007C20EA8
:100BF000F521304600F03BF908B10120F4E7680721
:100C0000000E07F0070140EA8102F421304600F0AF
:100C10002EF908B10120E7E70020E5E710B58AB01A
:100C200004460020099021602271A062012309AAD4
:100C3000D021204600F009F910B101200AB010BD02
:100C40009DF82400602803D0582801D00120F5E742
:100C5000204600F008F90A2000F06EFC1A2302AAD0
:100C60008821204600F0F1F89DF808009DF8091051
:100C700040EA0120E0809DF80A009DF80B1040EA50
:100C8000012020819DF80C009DF80D1040EA012004
:100C900060819DF80E009DF80F1040EA0120A081B0
:100CA0009DF810009DF8111040EA0120E0819DF8A8
:100CB00012009DF8131040EA012020829DF81400D4
:100CC0009DF8151040EA012060829DF816009DF8FD
:100CD000171040EA0120A0829DF818009DF8191015
:100CE00040EA0120E0829DF81A009DF81B1040EABE
:100CF000012020839DF81C009DF81D1040EA012072
:100D000060839DF81E009DF81F1040EA0120A0831B
:100D10009DF82100A07707236A46E121204600F0D4
:100D200094F89DF800009DF8011040EA012024F895
:100D3000200F9DF8020004F8010C9DF80300A0703C
:100D40009DF8040000F00F00E0709DF80500207190
:100D50009DF80400000960719DF80600A071002054
:100D60006CE7FEB507460C4615461E466B4601AAC3
:100D700002A9384600F014F808B10120FEBD38463B
:100D80000299FFF70BFF206038460199FFF74EFEEE
:100D9000286038460099FFF7FFFD30600020FEBD57
:100DA0002DE9FF4107460C4615461E4600200190DE
:100DB000012301AAF421384600F047F8002841D168
:100DC0009DF8040000F0FC0040F001020192F421C3
:100DD000384600F04CF8002834D1012000F0ACFB7C
:100DE00001236A46F321384600F02FF89DF80000F1
:100DF0000007F2D4082302AAF721384600F025F8AC
:100E000000281FD19DF808009DF80910000340EA52
:100E100001109DF80A1040EA111028609DF80B009F
:100E20009DF80C10000340EA01109DF80D1040EAF7
:100E3000111020609DF80F009DF80E1040EA01206F
:100E40003060002004B0BDE8F0813EB50C46CDE92D
:100E500000236421029101790068490001232246A0
:100E600000F05CFD3EBDB622E021AFF3008017B577
:100E700083B00A46012305ACCDE900436421029109
:100E800001790068490000F0B5FE06B010BDFEE72C
:100E90000648016841F08071016005480021416009
:100EA000016841F00101016070470000FCED00E0C5
:100EB000001000E00148406870470000001000E0AA
:100EC00001B50022FFF7E4FF0D480E490068B0FBB2
:100ED000F1F300984343FFF7EDFF0146FFF7EAFF08
:100EE0008842FBD003D9A0EB01010A4403E06FEA7A
:100EF000010101440A4401469A42EFD308BD0000B3
:100F00003800002040420F0000B585B0002002905C
:100F10000A48816941F008018161806900F0080098
:100F2000009001200390022004904FF44C50019057
:100F300001A9034800F012FB05B000BD00100240FB
:100F4000000C014070B50024104D4FF4807128460C
:100F500000F0FCFB00B901244FF40071284600F0BA
:100F6000F5FB08B944F002044FF48051284600F024
:100F7000EDFB08B944F004044FF40051284600F09A
:100F8000E5FB08B944F00804204670BD000C0140A0
:100F900070B505460E4600243146284600F064F838
:100FA00004E0641CE4B20120FFF78AFF31462846C2
:100FB00000F0CCFB08B1642CF3D3642C01D30120E6
:100FC00070BD002404E0641CE4B20120FFF778FF48
:100FD0003146284600F0BAFB08B9F02CF3D3F02CC8
:100FE00001D3012070BD002070BD30B50446002043
:100FF00011E014F8013B002280EA0305ED0705D05B
:1010000080F01800400840F0800000E040085B08D5
:10101000521C082AF0DB491EC9B2EAD230BD7FB5A6
:1010200005460C46002102910094112101910321F3
:1010300003916946284600F091FA0122214628468C
:1010400000F093FB7FBD70B504460D46294620464F
:10105000FFF7E5FF2946204600F094F82946204690
:10106000BDE87040FFF794BF1FB5002201920292C5
:1010700003920091694600F071FA1FBD1FB500226E
:10108000029200911121019103210391694600F020
:1010900065FA1FBD1FB50022029200910121019146
:1010A00003210391694600F059FA1FBD2DE9F04173
:1010B00006460F46002402256006040E39463046D7
:1010C000FFF7DCFF00223946304600F04EFB0220DD
:1010D000FFF7F6FE01223946304600F046FB39465E
:1010E0003046FFF7C1FF0C20FFF7EAFE39463046D5
:1010F00000F02CFB08B144F001043220FFF7E0FEC1
:101100006D1EEDB2002DD7D12046BDE8F08170B53F
:1011100005460E46002431462846FFF7AFFF002261
:101120003146284600F021FB0220FFF7C9FE0122CC
:101130003146284600F019FB31462846FFF794FF58
:101140000C20FFF7BDFE3146284600F0FFFA00B143
:1011500001243220FFF7B4FE204670BD2DE9F04196
:1011600006460F460025002439463046FFF7CFFFDC
:10117000A0402843C5B2641CE4B2082CF4D328462E
:10118000BDE8F08170B504460D4629462046FFF7BC
:1011900075FF00222946204600F0E7FA4FF4F07070
:1011A000FFF78EFE01222946204600F0DEFABDE858
:1011B00070400F20FFF784BE2DE9F74F92B000205A
:1011C0001090119000278146EA46DDE91201FFF7F1
:1011D000D9FF4FF4F070FFF773FEDDE91201F02242
:1011E00000F0ABF8002600240025DDE91201FFF72E
:1011F0005DFF00F003006408012803D002280CD032
:10120000C0B148E0DDE91201002200F069F805EB09
:10121000C60100200AF801003DE044F08004DDE949
:101220001201012200F05CF805EBC60101200AF86A
:10123000010030E005EBC60808F1010000F0FF0BEB
:1012400010A8C05D58450ED2DDE912014FF0000232
:1012500000F046F800200AF808007F1CFFB210A832
:1012600000F807B017E00AD91AF8082002F00100C8
:1012700044EAC014DDE9120100F032F80BE044F05A
:101280008004DDE91201012200F02AF801200AF8A9
:1012900008007F1EFFB26D1CEDB2082DA5D30E49CC
:1012A000149801EB801000EBC9008455761CF6B24F
:1012B000082E98D309F1010909F0FF0910A8C05DB3
:1012C00010B1B9F1080F80D30449149801F80090C7
:1012D00015B0BDE8F08F000018030020400000208A
:1012E00070B505460E46144631462846FFF7C6FE41
:1012F0008CB100223146284600F037FA0220FFF771
:10130000DFFD01223146284600F02FFABDE870408B
:101310003C20FFF7D5BD00223146284600F025FAD3
:101320003C20FFF7CDFD01223146284600F01DFA92
:10133000BDE870400220FFF7C3BD2DE9F04106462D
:101340000F461546002405F0010239463046FFF7E6
:10135000C7FF6D08641CE4B2082CF4D3BDE8F0812B
:10136000704772B6FEE700002DE9FE4F0746DDE943
:101370000C568846924699460020286030604146C7
:101380003846FFF77BFE72B641463846FFF7FAFE55
:101390004FF4F070FFF794FD552241463846FFF7B1
:1013A000CCFF0024264800EB8A1000EBC909414617
:1013B00019F804203846FFF7C0FF641CE4B2082C7B
:1013C000F5D3BE2241463846FFF7B7FF0024E94671
:1013D00041463846FFF7C2FE09F80400641CE4B237
:1013E000092CF5D362B608216846FFF7FEFD9DF88B
:1013F0000810884222D19DF800009DF8011040EAB3
:101400000120C0F30B00FEF7E8FF0E49FEF760FF76
:101410000D49FEF78FFF0D49FEF754FF28609DF838
:1014200007009DF8061040EA0120FEF7D6FF0849A4
:10143000FEF74EFF0749FEF77DFF3060BDE8FE8FE7
:101440001803002000002F4300F07F4500003442C5
:101450000000C84200FF7F4710B590F8211000221D
:10146000022905D00421816380F82020012010BDCD
:1014700001680B6823F00E030B6001680B6823F012
:1014800001030B6090F84030C46B012101FA03F3B3
:10149000636080F8211080F82020104610BD000005
:1014A00010B5002490F82110022903D00421816393
:1014B00001243DE001680A6822F00E020A6001681A
:1014C0000A6822F001020A601A4A0168914201D1B9
:1014D000012121E0174A1432914201D110211BE071
:1014E000144A2832914201D1891515E0114A3C3243
:1014F000914201D189140FE00E4A5032914202D13B
:101500004FF4803108E00B4A6432914202D14FF42B
:10151000801101E04FF08071064A083A51600121C4
:1015200080F82110002180F82010416B01B188471C
:10153000204610BD0800024070B5044600F01CF9BA
:101540000546601C02D004480078044400F014F9F9
:10155000401BA042FAD370BD2C0000202DE9F84FAB
:1015600000240023DFF8C4914FF00F08A9F1040B09
:1015700009F1040AABF1040ED1E00127A7403A407B
:10158000BA4275D1DFF8A8C14D68A5EB0C066545D8
:101590002BD00DDC032D34D005DC35B3012D19D053
:1015A000022D2FD11BE0112D16D0122D2AD119E0BA
:1015B000B6F5881F19D006DCB6F5803F15D0B6F514
:1015C000801F1FD111E0B6F5001F0ED0B6F5041F25
:1015D00018D10AE0CB6815E0CB681B1D12E0CB6880
:1015E00008330FE0CB680C330CE08B6823B1012B80
:1015F00004D00823476105E0042303E008230761C2
:1016000000E00023FF2A01D8054601E000F10405AF
:1016100002D84FEA840603E0A4F108064FEA8606E2
:101620002F6808FA06FC27EA0C0703FA06F647EAD1
:1016300006072F604D68ED0070D53E4DAE6946F04F
:101640000106AE61AD6905F0010500953A4D24F043
:1016500003067719BE68A5072D0F08FA05FC26EAD0
:101660000C06DFF8D8C0604503D14FF0000C17E03E
:1016700054E0DFF8CCC0604502D14FF0010C0FE020
:10168000DFF8C0C0604502D14FF0020C08E0DFF87F
:10169000B8C0604502D14FF0030C01E04FF0040CDC
:1016A0000CFA05FC4CEA060CC7F808C04D68ED02C0
:1016B00005D5D9F800501543C9F8005004E0D9F811
:1016C00000509543C9F800504D68AD0205D5DAF8D1
:1016D00000501543CAF8005004E0DAF80050954372
:1016E000CAF800504D68AD0305D5DBF8005015432E
:1016F000CBF8005004E0DBF800509543CBF80050E5
:101700004D68ED0305D5DEF800501543CEF80050C6
:1017100004E0DEF800509543CEF80050641C0A68DF
:1017200032FA04F57FF429AFBDE8F88F08040140D0
:1017300000001110001002400000014000080140AC
:10174000000C014000100140001401408068084274
:1017500001D00120704700207047C26821EA0203CF
:101760000A4043EA024101617047002A01D0016149
:1017700070470904016170470148806870470000A4
:101780002C00002070B50446002C04D094F83D00D5
:10179000002510B106E0012070BD84F83C502046C1
:1017A00000F0CAFA242084F83D002068016821F086
:1017B000010101602068016841F400410160206876
:1017C000016821F40041016000F030FC4F4B61687A
:1017D000994203D84E49884203D304E04D498842D8
:1017E00001D2012070BD4C49B0FBF1F1226856686E
:1017F00026F03F060E43566062689A4201D8491CA3
:1018000007E04FF4967251434FF47A72B1FBF2F154
:10181000491C2268166A26F03F063143116261684E
:10182000994210D84900401EB0FBF1F2521CC2F39D
:101830000B02042A01D2042022E0B0FBF1F0401C8C
:10184000C0F30B001CE0A268F2B301EBC10303EB91
:101850000116431EB3FBF6F35B1C43F480431B05E8
:1018600049D092B301EBC10202EB0111401EB0FB63
:10187000F1F0401CC0F30B0040F4804040F4004005
:101880002168CA694CF6FF739A431043C861D4E9D2
:10189000071001432068026822F0C0021143016072
:1018A000D4E9030101432068826848F2FF339A4378
:1018B00011438160D4E9051001432068C26822F019
:1018C000FF021143C16001E00EE016E020680168EC
:1018D00041F0010101602564202084F83D0025636A
:1018E00084F83E50002070BD01EB4106431EB3FB5F
:1018F000F6F35B1CB3E70120C2E701EB4101401E98
:10190000B0FBF1F0401CC0F30B00B7E7A08601006C
:1019100080841E0000093D0040420F002DE9FF4F6A
:1019200083B00446DDE91198109F8A46934600264D
:101930000296FFF721FF054694F83D00202803D0CA
:10194000022007B0BDE8F08F19230122A5492046E7
:10195000009501F0F7FA08B10220F2E794F83C0094
:10196000012807D0012084F83C0020680168C907DD
:1019700002D005E00220E4E7016841F001010160C6
:101980002068016821F400610160222084F83D0094
:10199000402084F83E0026646762A4F82A90608D97
:1019A00020859148E062CDE900855A46514620469F
:1019B000069B01F099F908B10120C2E7208D80B1A2
:1019C000012817D0022825D02068016841F48061E1
:1019D000016020684169806901902027DFF80C923E
:1019E000F6E02068416981690191016841F4007164
:1019F0000160F2E72068016821F48061016072B63D
:101A00002068416981690191016841F400710160B8
:101A100062B6E2E72068016841F40061016072B6D5
:101A20002068416981690191016821F48061016048
:101A300062B6D2E703287DD801280BD002281FD038
:101A40004346002249462046009501F07BFAE8B360
:101A5000012076E72A464146204601F02DFB08B1D9
:101A600001206EE720680069616A0870606A401CA6
:101A70006062208D401E2085608D401E6085A7E03D
:101A80004346002249462046009501F05BFA08B122
:101A9000012056E772B62068016841F400710160C8
:101AA00020680069616A0870606A401C6062218D6C
:101AB000491E2185618D491E618562B621680969CB
:101AC0000170606A401C6062208D00E005E0401EED
:101AD0002085608D401E60857AE02068016821F4D1
:101AE0008061016072B620680069616A0870606A8E
:101AF000401C6062208D401E2085608D401E6085E8
:101B00003B4846F2A8110068B0FBF1F0C0EBC00002
:101B100000EB800002900298401E0290029830B3C1
:101B200020684069C0434007F5D42068016841F44B
:101B3000007100E027E0016020680069616A0870B8
:101B4000606A401C6062218D491E2185618D491E9D
:101B5000618562B6216809690170606A401C606233
:101B6000208D401E2085608D401E608530E044F849
:101B7000306F6773A673206940F02000206162B661
:101B800026730120DDE62A464146204601F094FAFC
:101B900008B10120D5E620680069616A0870606AB2
:101BA000401C6062218D491E2185618D491E618521
:101BB00021684A69D24352070AD409690170606AF0
:101BC000401C6062208D401E2085608D401E608517
:101BD000208D00287FF42EAF3C346770A6702670ED
:101BE000AFE60000020010000000FFFF040001004B
:101BF000380000202DE9FF4F83B00446DDE911983D
:101C00008A469346109DFFF7B7FD064694F83D00BF
:101C1000202803D0022007B0BDE8F08F192301224D
:101C200043492046009601F08DF908B10220F2E701
:101C300094F83C00012807D0012084F83C0020687B
:101C40000168C90702D005E00220E4E7016841F01D
:101C5000010101602068016821F400610160212018
:101C600084F83D00402084F83E0000272764656228
:101C7000A4F82A90608D20852E48E062CDE9008688
:101C80005A4651462046069B01F0CEF880B301200B
:101C9000C1E732464146204601F049FA48B1206C7E
:101CA000042804D12068016841F40071016001201A
:101CB000B1E7606A216800780861656A6D1C656239
:101CC000208D401E80B22085618D491E618523686C
:101CD0005969C94349070BD450B128781861606A23
:101CE000401C6062208D401E2085608D401E6085F6
:101CF000208D0028CDD132464146204601F0F6F82D
:101D000048B1206C042804D12068016841F40071B6
:101D1000016001207FE71F3454F81F0C016841F473
:101D2000007101602020A077E7776777002072E7D5
:101D3000020010000000FFFF10B586B000210291E4
:101D40000391049105910068104988421BD1104C01
:101D5000A06940F00800A061A06900F008000190AF
:101D60004FF440600290122003900320059002A9D6
:101D70000848FFF7F3FBE06940F48000E061E069A8
:101D800000F48000019006B010BD00000058004033
:101D900000100240000C01400248816802781144A2
:101DA000816070472C00002010B50748016841F0A1
:101DB00010010160032000F077F80F2000F006F812
:101DC00000F026F8002010BD0020024070B5044647
:101DD0000D4D4FF47A712878B1FBF0F00B4909688A
:101DE000B1FBF0F000F02AFB08B1012070BD102C0F
:101DF00007D200222146501E00F036F86C60002009
:101E000070BD012070BD00002C00002038000020B3
:101E100008B50C48816941F001018161816901F0D7
:101E200001010091C16941F08051C161C06900F0B8
:101E3000805000900449486820F0E06040F0007055
:101E4000486008BD0010024000000140002809DB86
:101E500000F01F02012191404009800000F1E020C4
:101E6000C0F8001170470000F0B40D460D4B1B6820
:101E7000C3F30223C3F10704042C00D90424191D61
:101E8000072901D2002300E0DB1E012606FA04F137
:101E9000491E294099409E40761E16403143F0BCB1
:101EA00002F04EB90CED00E000F00701054A1068A1
:101EB0004FF6FF03184040EA012003490843106031
:101EC000704700000CED00E00000FA052DE9F04736
:101ED00004460D46002C17D0DFF83081D8F80000FA
:101EE00000F00700A84211D2D8F8000020F0070047
:101EF0002843C8F80000D8F8000000F00700A84206
:101F000004D00120BDE8F0870120FBE72068404EA7
:101F1000810712D5400703D5706840F4E060706017
:101F20002078000703D5706840F4605070607068D6
:101F3000A16820F0F000084370602078C0072CD022
:101F40006068012806D0022809D0316889070BD4BF
:101F50000120D7E73168890306D40120D2E7316830
:101F6000890101D40120CDE7716821F0030101430B
:101F70007160FFF701FC074641F2883906E0FFF780
:101F8000FBFBC01B484501D90320BBE770686168B3
:101F900000F00C00B0EB810FF1D1D8F8000000F098
:101FA0000700A8420ED9D8F8000020F00700284307
:101FB000C8F80000D8F8000000F00700A84201D0DF
:101FC00001209FE72078400705D57068E16820F47C
:101FD000E060084370602078000706D570682169CA
:101FE00020F4605040EAC100706000F03FF8716872
:101FF000084AC1F30311515CC8400749086007480B
:102000000068FFF7E3FE00207CE7000000200240AC
:10201000001002406A4C0008380000203000002008
:1020200001480068704700003800002000B5FFF745
:10203000F7FF04494968044AC1F30221515CC840D2
:1020400000BD0000001002407A4C000800B5FFF708
:10205000E7FF04494968044AC1F3C221515CC84002
:1020600000BD0000001002407A4C00080E4B596879
:102070000E4801F00C02042A11D0082A0FD10C4896
:10208000C1F38342805CC9030AD55968084AC1F389
:102090004041921E515C054A5043B0FBF1F070473D
:1020A00004494843704700000010024000127A00C3
:1020B0005A4C000800093D002DE9F84F0446002C59
:1020C0000ED02078D94DC0075ED06868C0F381007B
:1020D00001280BD06868C0F38100022803D00CE00F
:1020E0000120BDE8F88F6868C00306D52868800322
:1020F0004AD56068A8BB0120F3E76068B0F5803F6F
:1021000011D0A8B1B0F5A02F1BD0286820F48030E2
:102110002860286820F480202860606830B3FFF7CA
:102120002BFB06461EE0286840F480302860F4E768
:10213000286820F480302860286820F480202860F7
:10214000EBE7286840F480202860286840F480305D
:102150002860E2E7FFF710FB801B642802D9032008
:10216000BFE711E028688003F4D50DE0FFF704FB1A
:10217000064606E0FFF700FB801B642801D9032018
:10218000AFE728688003F5D42078DFF8A4828007C1
:102190004FF0010A4FF0000945D5686810F00C0FA8
:1021A00007D06868C0F38100022812D16868C003B4
:1021B0000FD42868800704D52069012801D00120A8
:1021C0008FE72868616920F0F80040EAC1002860C4
:1021D00029E02069B8B1C8F800A0FFF7CDFA06469B
:1021E00006E0FFF7C9FA801B022801D9032078E72F
:1021F00028688007F5D52868616920F0F80040EA72
:10220000C10028600FE0C8F80090FFF7B5FA064655
:1022100006E0FFF7B1FA801B022801D9032060E72E
:1022200028688007F5D42078000726D58148A16961
:1022300099B1C0F800A0FFF79FFA064606E0FFF745
:102240009BFA801B022801D903204AE7686A8007AD
:10225000F5D5012001F0BAFA0FE0C0F80090FFF7C1
:102260008BFA064606E0FFF787FA801B022801D9A1
:10227000032036E7686A8007F5D42078400773D5D5
:102280000026E869C00008D4E86940F08050E861A1
:10229000E86900F0805000900126DFF89CB1DBF87F
:1022A0000000C00514D4DBF8000040F48070CBF8C7
:1022B0000000FFF761FA074606E0FFF75DFAC01B72
:1022C000642801D903200CE7DBF80000C005F4D531
:1022D000E068012812D0B0B105281DD0286A20F08E
:1022E00001002862286A20F004002862E06841F2B8
:1022F000883B28B3FFF740FA07461DE0286A40F004
:1023000001002862F2E7286A20F001002862286AAA
:1023100020F004002862E9E7286A40F004002862FF
:10232000286A40F001002862E0E7FFF725FAC01BA9
:10233000584501D90320D4E6286A8007F5D50DE079
:10234000FFF71AFA074606E0FFF716FAC01B5845D2
:1023500001D90320C5E6286A8007F5D4012E03D1F0
:10236000E86920F08050E861E069A0B36968C1F3D2
:102370008101022946D0022805D0C8F86090FFF7F5
:10238000FBF904463AE0C8F86090FFF7F5F9064615
:1023900006E0FFF7F1F9801B022801D90320A0E62F
:1023A00028688001F5D4206AB0F5803F05D16868BF
:1023B000A16820F4003008436860D4E908010843AC
:1023C000696821F4741108436860C8F860A0FFF7D9
:1023D000D3F9044607E026E0FFF7CEF9001B0228F8
:1023E00001D903207DE628688001F5D51BE0FFF7C1
:1023F000C3F9001B022801D9032072E62868800176
:10240000F5D410E001280CD06868226A00F480310D
:10241000914204D1616A00F47010884203D0012017
:102420005FE601205DE600205BE600000010024050
:1024300000004242800442420070004010B5401E3D
:10244000B0F1807F01D3012010BD4FF0E024606126
:102450000F21601701F074FE0020A06107202061A9
:10246000002010BD7047704770B590F83C20012ADD
:1024700025D0012680F83C60022280F83D200268C9
:102480005468936824F070050C682C4354600D4C1C
:102490000268A24208D0B2F1804F05D00A4CA24295
:1024A00002D00A4CA24204D123F0800349681943A8
:1024B00091603C30467000210170002070BD022008
:1024C00070BD0000002C01400004004000080040E6
:1024D00010B50446002C03D094F83D0010B107E07D
:1024E000012010BD002084F83C00204600F016F8C2
:1024F000022084F83D00211D206801F0F1FB01203D
:102500003D3460726070A070E07020716071A071E5
:10251000E07120722070002010BD000008B5006836
:102520001549B0F1804F14D0144A904223D1C869A4
:1025300040F00400C861C86900F004000090002267
:1025400011461E20FFF790FCBDE808401E20FFF753
:102550007DBCC86940F00100C861C86900F0010095
:102560000090002211461C20FFF77EFCBDE80840C9
:102570001C20FFF76BBC08BD0010024000080040A3
:1025800090F83D10012901D001207047022180F808
:102590003D100168CA6842F00102CA6000680E4935
:1025A000884208D0B0F1804F05D00C49884202D053
:1025B0000B49884209D1816801F00701062908D03A
:1025C000016841F00101016003E0016841F001018F
:1025D0000160002070470000002C01400004004012
:1025E0000008004070B50446002594F83C0001281E
:1025F00017D0012684F83C60022084F83D00206852
:10260000826822F0770222F47F42826008685028B4
:1026100038D00DDC202853D005DC90B3102811D120
:102620004EE0022070BD30284AD040280AD13DE05B
:10263000602831D070280CD0B0F5805F03D0B0F5A1
:10264000005F12D001253C346670002020702846BF
:1026500070BDCB68D1E90121206801F077FB2068CB
:10266000816841F077018160EDE7CB68D1E9012114
:10267000206801F06BFB2068816841F48041816033
:10268000E1E71DE0CA684968206801F071FB50214C
:10269000206801F065FBD6E7CA684968206801F048
:1026A00078FB6021206801F05BFBCCE7CA684968D1
:1026B000206801F05DFB4021206801F051FBC2E77A
:1026C00022680146104601F04BFBBCE7704770B52D
:1026D0000446206801694FF00005C943890716D4F4
:1026E000C168C943890712D4E91E0161012020771E
:1026F00020688069800703D02046FFF7E7FF05E0E8
:10270000204600F09BF8204600F099F825772068D5
:102710000169C943490718D4C168C943490714D49A
:102720006FF004010161022020772068806910F4B5
:10273000407F03D02046FFF7C9FF05E0204600F0A8
:102740007DF8204600F07BF8257720680169C943B1
:10275000090717D4C168C943090713D46FF00801EA
:102760000161042020772068C069800703D02046DB
:10277000FFF7ACFF05E0204600F060F8204600F0CF
:102780005EF8257720680169C943C90618D4C16875
:10279000C943C90614D46FF01001016108202077E5
:1027A0002068C06910F4407F03D02046FFF78EFFF9
:1027B00005E0204600F042F8204600F040F825777A
:1027C00020680169C943C90708D1C168C943C9075D
:1027D00004D1891E0161204600F032F820680169A9
:1027E000C943090609D4C168C943090605D46FF075
:1027F000800101612046FFF735FE20680169C94369
:10280000490609D4C168C943490605D46FF040019F
:102810000161204600F022F820680169C943890659
:102820000BD4C168C943890607D46FF02001016148
:102830002046BDE87040FFF716BE70BD7047704778
:1028400000680449884203D103484188491C4180FB
:1028500070470000000800403C00002070477047AF
:1028600070470000F8B5044622681068D1685369C3
:1028700000F00F06002E08D1850606D58D0604D57A
:102880002046BDE8F84001F0D2BA0025002E66D0FF
:1028900003F0010601F49077374360D0C20705D0FA
:1028A000CA0503D5626C42F001026264420705D595
:1028B000DA0703D0626C42F002026264820705D537
:1028C000DA0703D0626C42F004026264020707D5A3
:1028D00001F02002324303D0626C42F008026264CD
:1028E000626C002A31D0800604D5880602D52046C5
:1028F00001F09DFA20684069C0F38010616C0907FF
:1029000000D438B3204601F05EFA206840694006E2
:102910001CD52068143050E8001F21F0400140E829
:102920000012002AF5D1E06B60B159494163E06BB8
:10293000FEF7B6FD002808D0E06B416B01B0BDE8A2
:10294000F04008472046FFF78BFFF8BD2046FFF711
:1029500087FFF8BD2046FFF783FF6564F8BD236B52
:10296000012B7DD1C3067BD5CB067ED51068506880
:10297000009050694FF0200340064FF0020643D507
:10298000E16B0868406880B20028E7D0A28D8242DF
:10299000E4D9E085886920282DD020680C3050E8E3
:1029A000001F21F4807140E80012002AF5D1206850
:1029B000143050E8001F21F0010140E80012002A05
:1029C000F5D12068143050E8001F21F0400140E8A4
:1029D0000012002AF5D184F84230256320680C30BB
:1029E00050E8001F21F0100140E80012002AF5D144
:1029F000E06BFEF731FD6663A08DE18D401A81B278
:102A00002046FFF72CFFF8BDA08DE18D401A81B262
:102A1000E08D0028F7D00029F5D020680C3050E870
:102A2000002F22F4907240E80027002FF5D1206893
:102A3000143050E8002F22F0010240E80027002F58
:102A4000F5D184F84230256320680C3050E8002F1F
:102A500022F0100240E80023002BF5D1666300E06D
:102A600003E02046FFF7FBFEF8BD020606D50A0686
:102A700004D52046BDE8F84001F0B6BA4006F3D5CB
:102A80004806F1D52046BDE8F84001F0C3B9000082
:102A9000B73D000870B50446002C04D094F84100FE
:102AA000002510B106E0012070BD84F8405020469A
:102AB00000F024F8242084F841002068C16821F443
:102AC0000051C160204601F017FA2068016921F425
:102AD000904101612068416921F02A01416120682B
:102AE000C16841F40051C1606564202084F8410050
:102AF00084F842006563002070BD000070B586B0A8
:102B0000002402940394049405942B4E02682B49EC
:102B1000022003232A4DB24221D18A6942F4804225
:102B20008A618A6902F4804201928A6942F0040251
:102B30008A61896901F00401019101020291039007
:102B4000059302A92846FEF709FD29150291039471
:102B5000049402A92846FEF701FD06B070BD194E87
:102B6000B242FAD1CA6942F40032CA61CA6902F4B7
:102B7000003201928A6942F004028A61896901F097
:102B800004010191042102910390059302A92846B2
:102B9000FEF7E4FC082102910394049402A928465C
:102BA000FEF7DCFC002211462620FFF75DF9262007
:102BB000FFF74CF9D1E70000003801400010024057
:102BC000000801400044004090F84230202B01D022
:102BD0000220704721B11AB10023036301F0E8B964
:102BE0000120704707490878642805D24B78087897
:102BF000421C0A7004490B5402490122491C034833
:102C0000FFF7E2BF3C000020B40200206C0200206D
:102C10002DE9F84304460E4615461F4694F8410038
:102C2000202802D00220BDE8F8837EB175B10020D3
:102C30006064212084F84100FEF79EFD8046A58453
:102C4000E584A068B0F5805F02D003E00120EAE7E8
:102C5000206910B13546002613E0002511E04346F7
:102C6000002280212046009701F0EDF908B10320F1
:102C7000D9E79DB1216815F8010B4860E08C401E32
:102C8000E084E08C0028EAD143460022402120461F
:102C9000009701F0D8F940B10320C4E736F8020BE1
:102CA0002168C0F308004860E8E7202084F841006C
:102CB0000020B8E77047FEE701684A69D243520531
:102CC0000FD46FF480624A61002140F8301F202247
:102CD00042738173026942F00402026101730120B0
:102CE00070470020704700002DE9F84F04460B9E06
:102CF0000F4690461D462068016841F480610160DE
:102D00002068016841F48071016000964FF0011A5B
:102D10000022514620460A9B00F014F94FF4007936
:102D200040B120680068C00501D5C4F84090032078
:102D3000BDE8F88F216807F0FE000861DFF8E4B015
:102D40003346594620460A9A00F052F908B101204C
:102D5000EEE72068416980690090324620460A9972
:102D600000F0E5F948B1206C042804D1206801681E
:102D700041F4007101600120DAE7284608F0FF0500
:102D800001280DD021684FEA1820086132462046FC
:102D90000A9900F0CCF968B1206C042803D007E050
:102DA0002068056108E02068016841F40071016055
:102DB0000120BDE720680561324620460A9900F0EF
:102DC000B6F948B1206C042804D12068016841F4A8
:102DD000007101600120ABE72068016841F4807157
:102DE000016000960022514620460A9B00F0AAF896
:102DF00038B120680068C00501D5C4F840900320B0
:102E000096E72168F8B240F0010008613346594660
:102E100020460A9A00F0ECF808B1012088E700206B
:102E200086E70000020001002DE9F8430446DDE9D1
:102E300008970D46164698462068016841F480714F
:102E400001604B4600224FF001112046009700F030
:102E500079F848B120680068C00502D54FF40070C9
:102E600020640320BDE8F883216805F0FE000861B6
:102E70003B464A461C49204600F0BAF808B10120FA
:102E8000F0E720684169806900903A46494620464B
:102E900000F04DF948B1206C042804D12068016885
:102EA00041F4007101600120DCE7F5B2B8F1010FD7
:102EB0000CD02168300A08613A464946204600F0A5
:102EC00036F968B1206C042803D007E0206805615A
:102ED00008E02068016841F4007101600120C1E749
:102EE000206805610020BDE70200010070B50446BE
:102EF0000D4616461FE02046FFF7DEFE08B1012012
:102F000070BD681C17D0FEF737FC801BA84200D8A4
:102F10008DB920684069C04340070CD5002044F8B3
:102F2000300F20216173A073216941F020012161DC
:102F30002073012070BD20684069C0434007DAD487
:102F4000002070BD2DE9F0470446DDF820900D46C5
:102F500090461E46C5F307472FE0701C2DD0FEF7A4
:102F60000BFCA0EB0900B04200D836BB012F17D0F4
:102F70002068806925EA00000004000C1BD00020B6
:102F800040451AD1002044F8300F20216173A0730E
:102F9000216941F02001216120730120BDE8F08703
:102FA0002068406925EA00000004000C01D00020E0
:102FB000E6E70120E4E70120E2E7012F0BD02068DB
:102FC000806925EA00000004000C0FD00020404575
:102FD000C3D00020E2E72068406925EA0000000431
:102FE000000C01D00020F2E70120F0E70120EEE71D
:102FF0002DE9F04704460D46164698464FF0000965
:103000004FF0200AC5F3074743E020684069C043FA
:10301000400517D42068016841F4007101602168FF
:103020006FF480604861C4F8309084F83DA084F863
:103030003E90206C40F00400206484F83C90012015
:10304000BDE8F087701C24D0FEF796FBA0EB0800CB
:10305000B04200D8EEB9012F14D02068806925EA6B
:1030600000000004000C14D0C4F8309084F83DA097
:1030700084F83E90206C40F02000206484F83C905E
:103080000120DDE72068406925EA00000004000C0B
:10309000EAD1012F08D02068806925EA00000004E9
:1030A000000CB2D10020CBE72068406925EA00007F
:1030B0000004000CF6D0A8E72DE9F04104460D46C7
:1030C000164600274FF020082AE04069C043C0069A
:1030D0000FD421686FF010004861276384F83D80A9
:1030E00084F83E70206C206484F83C700120BDE8B8
:1030F000F081FEF741FB801BA84200D885B920680B
:103100004069C04340060BD544F8307F84F80D80F9
:10311000A773206940F02000206127730120E6E7B3
:1031200020684169C9434906CFD40020DFE770B564
:1031300004460D4616461FE02046FFF7BDFD08B1C8
:10314000012070BD681C17D0FEF716FB801BA8423B
:1031500000D88DB920684069C04300060CD5002016
:1031600044F8300F20216173A073216941F02001E0
:1031700021612073012070BD20684069C0430006B2
:10318000DAD4002070BD000010B564210348FDF7BB
:1031900023F803490020087010BD0000B40200208D
:1031A0003C0000201FB5FFF7EFFF60A160A000F01A
:1031B0004BF902E03220FEF7BFF960A160A000F0F9
:1031C00043F90028F6D102E03220FEF7B5F95DA1FF
:1031D0005AA000F039F90028F6D102E03220FEF7BB
:1031E000ABF958A158A000F02FF90028F6D102E061
:1031F0003220FEF7A1F953A158A000F025F90028CC
:10320000F6D102E03220FEF797F94EA157A000F068
:103210001BF90028F6D102E03220FEF78DF949A112
:1032200055A000F011F90028F6D102E03220FEF797
:1032300083F944A154A000F007F90028F6D102E078
:103240003220FEF779F93FA153A000F0FDF80028E5
:10325000F6D102E03220FEF76FF93AA152A000F059
:10326000F3F80028F6D102E03220FEF765F935A127
:1032700051A000F0E9F80028F6D102E03220FEF774
:103280005BF930A14FA000F0DFF80028F6D102E092
:103290003220FEF751F92BA14DA000F0D5F80028FF
:1032A000F6D102E03220FEF747F926A14BA000F04C
:1032B000CBF80028F6D1FDF745FE02464BA1684643
:1032C00000F02AFF02E03220FEF736F91DA1684621
:1032D00000F0BAF80028F6D102E03220FEF72CF90F
:1032E00018A146A000F0B0F80028F6D102E0322084
:1032F000FEF722F913A144A000F0A6F80028F6D1A9
:1033000002E03220FEF718F90EA143A000F09CF86D
:103310000028F6D102E03220FEF70EF946A148A0BF
:1033200000F092F80028F6D11FBD00000000000058
:1033300041542B454E544D0D0A0000006100000021
:103340002B2B2B004F4B000041542B574D4F444526
:103350003D5452414E530D0A0000000041542B5081
:103360004D4F44453D52554E0D0A000041542B49E6
:10337000544D3D32300D0A0041542B57544D3D32CF
:103380003030300D0A00000041542B52544F3D356F
:1033900030300D0A0000000041542B46444D4F448C
:1033A000453D4F46460D0A0041542B43483D3437B6
:1033B00030300D0A0000000041542B5350443D3181
:1033C000300D0A0041542B5057523D32320D0A0045
:1033D00041542B4645433D310D0A000041542B4CCE
:1033E00042543D4F46460D0A0000000041542B4117
:1033F0004444523D25640D0A0000000041542B4C0A
:1034000052544F3D330D0A0041542B5541525446FE
:10341000543D31300D0A000041542B554152543D6A
:103420003131353230302C382C312C4E4F4E452C2A
:103430004E46430D0A000000537461727400000090
:1034400041542B5A0D0A00002DE9F041A2B08046EC
:103450000E46C8244046FCF7DCFE87B226222349EC
:1034600010A8FCF7A0FE214DE88CADF86600A86A14
:103470001A90A88DADF86C00E88DADF86E00286B41
:103480001C90686B1D90092205F138011EA8FCF7FD
:103490008AFE95F841008DF8810095F842008DF87C
:1034A0008200686C2190CDE90E87382214A9684605
:1034B000FCF779FE10A80FC800F007FE10E000F03E
:1034C00053F850B931460A48FCF791FE28B1FFF78E
:1034D0005BFE002022B0BDE8F0810A20FEF72CF848
:1034E000641EE4B2EBD20120F4E700006C0200207D
:1034F000B402002070B5A2B005460E46FFF744FEA8
:103500002622184910A8FCF74EFE164CE08CADF8A8
:103510006600A06A1A90A08DADF86C00E08DADF841
:103520006E00206B1C90606B1D90092204F1380125
:103530001EA8FCF738FE94F841008DF8810094F83D
:1035400042008DF88200606C2190CDE90E56382241
:1035500014A96846FCF727FE10A80FC800F0B5FDB7
:1035600022B070BD6C02002009480178002908D003
:10357000027808490B889A4205D100210170002089
:1035800070470120704700780880012070470000D4
:103590003C000020460000202DE9F04186B00024C8
:1035A00002940394049405942348816941F0200116
:1035B0008161816901F020010191816941F004017B
:1035C0008161816901F004010191816941F0080183
:1035D0008161806900F008000190184F012248F2D3
:1035E00012013846FEF7C1F8DFF8548001220821A5
:1035F0004046FEF7BAF80225029501260396049488
:103600000320059002A93846FDF7A8FF48F21000F4
:10361000029003960494059502A93846FDF79EFF93
:103620000820029003960494059502A94046FDF7F0
:1036300095FF06B0BDE8F08100100240000801408F
:10364000000C014010B50D480B4901600C49416068
:1036500000218160C1604FF480420261416181615B
:10366000C1610162FEF78EF8002803D0BDE810406A
:10367000FDF777BE10BD000000580040400100205B
:10368000A086010010B586B000240294039404942F
:1036900005940094019414484FF08041016041F674
:1036A0001F414160846041F28731C16004618461DF
:1036B000FEF70EFF08B1FDF754FE4FF48050029064
:1036C00002A90948FEF78EFF08B1FDF74AFE0094F3
:1036D000019469460448FEF7C7FE002801D0FDF7B3
:1036E00040FE06B010BD00009401002010B586B069
:1036F00000240294039404940594009401941448C3
:103700001249016040F2CF214160846040F2E7310C
:10371000C16004618461FEF7DBFE08B1FDF721FEA4
:103720004FF48050029002A90948FEF75BFF08B1F0
:10373000FDF717FE0094019469460548FEF794FED4
:10374000002801D0FDF70DFE06B010BD00080040B6
:10375000DC01002010B50C480A4901604FF4E1314A
:10376000416000218160C16001610C224261816180
:10377000C161FFF78FF9002803D0BDE81040FDF7C5
:10378000F0BD10BD003801402402002010B50C48E7
:103790000A4901604FF4E131416000218160C1605C
:1037A00001610C2242618161C161FFF773F9002858
:1037B00003D0BDE81040FDF7D4BD10BD004400406B
:1037C0006C020020FEE7FEE77047000008B50749DD
:1037D0004FF4FA520968B1FBF2F14143009100BF86
:1037E0000098411E0091FAD208BD00003800002068
:1037F000704700002DE9F05F0024DFF878A01E4F2D
:103800000AF1180B5AF824803BF814900026002582
:1038100006E02946204601F01DF940B36D1CEDB2CB
:10382000385DA842F5D8E6B172B649464046FDF784
:10383000A9FC4FF4F070FDF743FBCC22494640460B
:10384000FDF77BFD442249464046FDF776FD62B612
:1038500049464046FDF71EFC012249464046FDF719
:1038600084FF641CE4B2062CCCD3BDE8F09F012693
:10387000D9E7000008000020400000202DE9FE43A9
:10388000074688460026002541463846FDF7C7FB17
:10389000012241463846FDF768FF4FF4FA60FDF714
:1038A0004BFE002241463846FDF786FC00232B489C
:1038B000294990F800C019E00124002201EBC3005F
:1038C00010F80290B9F1000F01D0002403E0521C5F
:1038D000D2B2082AF4D33CB911F83300282800D119
:1038E00001262C2800D101255B1CDBB29C45E3D8C6
:1038F00056EA050027D141463846FDF743FC3C20F7
:10390000FDF7DEFACC2241463846FDF716FDBE2211
:1039100041463846FDF711FD0024E9464146384648
:10392000FDF71CFC09F80400641CE4B2092CF5D373
:10393000002019F80010FF2901D0012503E0401CE8
:10394000C0B20928F5D315B10220BDE8FE830EB13F
:103950000120FAE70020F8E71803002040000020CB
:103960002DE9F04F95B04FF00008CDF85080CDF81C
:103970004C80CDF84880A0480078002805D012ABD4
:1039800013AA14A99D48FDF7ECF91498FCF71CFD47
:103990009B49FCF7CFFC11901298FCF71EFD6FF0CD
:1039A0000901FCF705FD10900027DFF858929248B6
:1039B000083050F827A0183030F817000F90002476
:1039C00000252BE02946384601F044F820BB03AE21
:1039D0000DF1240B06EB84000BEB8401CDE9001004
:1039E0002B463A4650460F99FDF7BEFC5BF8240083
:1039F0008549884202DC8549884201D94BF82480F8
:103A000056F824007E49884202DC10F1FF4F01D3B2
:103A100046F82480641CE4B26D1CEDB219F807006E
:103A2000A84201D9062CCDD320460DF1240A03AEBD
:103A300005E04AF8208046F82080401CC0B20628E5
:103A4000F7D3BCB9CDF82480CDF82880CDF82C80F0
:103A5000CDF83080CDF83480CDF83880CDF80C80AA
:103A6000CDF81080CDF81480CDF81880CDF81C80EA
:103A7000CDF820806148C821C838FCF7ADFB5F480D
:103A800023463A4662A1C83800F046FB84B20025BE
:103A9000D346DFF868A1AAF1C80A5BF82500FCF755
:103AA000A1FC0AEB040C02460B465FA1604600F045
:103AB00033FB204484B2052D06D20AEB04005CA13E
:103AC00000F02AFB204484B26D1CEDB2062DE4D335
:103AD0000AEB040057A100F01FFB204484B200252C
:103AE00056F82500FCF77EFC0AEB040C02460B4658
:103AF0004DA1604600F010FB204484B2052D06D293
:103B00000AEB04004AA100F007FB204484B26D1CBC
:103B1000EDB2062DE4D313986421B0FBF1FB1198AC
:103B2000FCF760FC05460E461098FCF75BFC8DE840
:103B30006008544402460B4640A1204600F0ECFACF
:103B40002E48C838FCF765FB81B22C48C838FFF70F
:103B5000D1FC7F1CFFB2062FFFF429AF2649C8789D
:103B6000401CC0B2C8700A2842D381F803800026E6
:103B70000025002408E02146284600F06BFF08B924
:103B8000761CF6B2641CE4B219F80500A042F2D823
:103B90006D1CEDB2062DECD3002E29D00122304F42
:103BA000D50329463846FDF7E0FD4FF4FA60FDF7EE
:103BB000C3FC00244FF448784FF4C87911E0002288
:103BC00029463846FDF7D1FD4046FDF7B5FC0122F8
:103BD00029463846FDF7C9FD4846FDF7ADFC641C93
:103BE000E4B2B442EBD3002229463846FDF7BDFDCE
:103BF00015B0BDE8F08F0000000000201401002087
:103C00000000C842400000200000A0420000A0C107
:103C1000504F52543A253032642C4E554D3A25308F
:103C200032642C544D3A0000252E3166000000000D
:103C30002F0000002C484D3A000000002C424D455A
:103C40005F483A252E31662C424D455F543A252E69
:103C500031662C50726573737572653A256C750008
:103C600000080140FEF798B830B58FB0282105A8AC
:103C7000FCF7B2FA14216846FCF7AEFA012105916F
:103C80000804069000240794099102250C950D90D4
:103C90004FF4E0100E9005A8FEF70EFA08B1FDF7FC
:103CA00060FB0F200090019502944FF48060039018
:103CB000049402216846FEF709F9002801D0FDF7B7
:103CC00050FB0FB030BD70470148FEF700BD00004B
:103CD000940100200148FEF7FABC0000DC0100203E
:103CE000F0B50268164C174D174E4FF08047A042B2
:103CF00005D0B84203D0A84201D0B04203D122F08F
:103D000070034A681A43A04205D0B84203D0A842C3
:103D100001D0B04203D122F44073CA681A434B6900
:103D200022F080021A4302608A68C2620A688262D4
:103D3000A04201D10969016301214161F0BD000088
:103D4000002C0140000400400008004010B58468C9
:103D500024F47F4442EA03220A432243826010BDD6
:103D6000826822F070020A4342F0070181607047C6
:103D700010B5036A046A24F001040462846924F023
:103D8000F00444EA021423F00A020A438461026246
:103D900010BD10B5036A046A24F01004046284693B
:103DA00024F4704444EA023223F0A00343EA0111F0
:103DB0008261016210BD10B5406A0021C185C184D5
:103DC000FEF74EFD10BD01680C3151E8002F22F4C2
:103DD000907241E80023002BF5D10168143151E8BD
:103DE000002F22F0010241E80023002BF5D1016BE6
:103DF000012909D101680C3151E8002F22F010028D
:103E000041E80023002BF5D1202180F84210002149
:103E10000163704710B50168CA6822F04002CA60A9
:103E2000202180F84110FEF745FF002010BD08B5A5
:103E300090F84210222901D0022008BD82684FF478
:103E400080539A4201D1016921B1816A9A421DD001
:103E500052B10BE0816A02685268C2F308020A801C
:103E6000816A891C816209E002697AB1026852683C
:103E700002F07F020A70816A491C8162C18D491E6D
:103E80000904090CC18505D0002008BD02685268EC
:103E90000A70F0E70168CA6822F02002CA6001686F
:103EA000CA6822F48072CA6001684A6922F001027D
:103EB0004A61202180F8421000214163026B012AEF
:103EC00003D0FEF78FFE002008BD016301680C31AE
:103ED00051E8002F22F0100241E80023002BF5D119
:103EE00001680A68D20602D50A6849680091818D86
:103EF000FEF7B5FCE7E7000070B5044620680169ED
:103F0000E26821F4405111430161A1682069014335
:103F1000606901432068C26841F20C639A430A4316
:103F2000C26020684169A26921F440711143416176
:103F30001E492068884202D1FEF788F801E0FEF7AA
:103F400075F800EBC00101EB001061686422890084
:103F5000B0FBF1F3B3FBF2F36FF018067343B0FB61
:103F6000F1F5B0FBF1F605EB8305322303EB051504
:103F7000B5FBF2F5B6FBF2F605F0F00505EB06151C
:103F8000B0FBF1F6B0FBF1F0B0FBF2F06FF018010E
:103F9000484306EB800003EB0010B0FBF2F0216811
:103FA00000F00F002844886070BD00000038014018
:103FB00081628285C28500214164222180F84210FD
:103FC0000169002904D00168CA6842F48072CA609D
:103FD00001684A6942F001024A610068C16841F023
:103FE0002001C1600020704790F84110212901D0C4
:103FF000022070478168B1F5805F01D1016961B12C
:10400000016A4A1C0262026809785160C18C491E2B
:104010000904090CC1840AD013E0016A0268098806
:10402000C1F308015160016A891C0162EEE7016871
:10403000CA6822F08002CA600068C16841F040018D
:10404000C160002070472DE9F04104460E46174636
:104050009846069D25E0681C23D02DB1FDF78CFB0A
:10406000A0EB0800A8421CD920680C3050E8001FC3
:1040700021F4D07140E80012002AF5D120681430F4
:1040800050E8001F21F0010140E80012002AF5D19C
:10409000202040346070A070002020700320BDE814
:1040A000F0812068006836EA000004D00020B842A1
:1040B000D1D00020F3E70120F9E700000148FEF726
:1040C000D1BB00006C020020FEE70FB42DE9F041E7
:1040D000DDE918560024671E08E029466D1C3B46A2
:1040E000012206A8FEF794FD641CA4B2B442F4D3E6
:1040F000BDE8F0015DF814FB0FB4054B10B503A942
:10410000044A029800F0FEF810BC5DF814FB0000B1
:104110003D4A0008480000200FB4084B10B504A920
:1041200002AA039800F0EEF8044602A9002000F06D
:1041300080FC204610BC5DF814FB0000334A0008E8
:104140000907090E002804DB00F1E02080F80014C4
:10415000704700F00F0000F1E02080F8141D704758
:1041600002E008C8121F08C1002AFAD17047704740
:10417000002001E001C1121F002AFBD1704700009E
:104180002DE9FF5F82B00021DDE90430020DDDF88A
:1041900040B0034318D044F61050A2F2FF3242431D
:1041A0001514119801281FD0A5EB0B00401C5FEAE5
:1041B000000A4FF000064E4FDFF83891B0465046E7
:1041C00015D5CAF1000413E0119801244AA301286F
:1041D00001D16FEA0B010298119AC0E90031C0E9E0
:1041E000024206B0BDE8F09FCBF10000DFE70446D5
:1041F0000021404A491842EB0450CDE9001012E07A
:10420000E00707D032463B4640464946FCF722FAD3
:104210008046894632463B4610461946FCF71AFA54
:1042200006460F466410002CEAD1DDE90401DDE901
:104230000023BAF1000F06DAFCF70CFA42464B46AF
:10424000FCF708FA05E0FCF777FA42464B46FCF724
:1042500073FA04460E460022284BFCF7F5FA03D801
:104260004FF0FF30014607E00022254B2046314643
:10427000FCF749F9FCF7CFFA102409E0002C0ADB1F
:104280000A220023FCF7D7F8039B30321A55641E2C
:1042900050EA0102F2D1641C039AC4F111031444E0
:1042A000119A012A03D0012208430DD10AE00843E4
:1042B00004D000204FF0110B119072E7A3EB0B0517
:1042C0006D1E0DE05B4504DD4FF0000205F10105B8
:1042D00004E003DA4FF00002A5F10105002AECD05A
:1042E00002981199C0E90231C0E9004579E7000060
:1042F000000014400000F03F300000000000F043D8
:104300000000E03F2DE9FF4F95B09B4689460646E9
:1043100000250FE2252877D100242746F84A0121FD
:10432000059400E0044316F8013F203B01FA03F036
:104330001042F7D130782A2811D06FF02F0330784F
:10434000A0F13002092A16D8059A44F0020402EBC3
:10435000820203EB42021044761C0590EFE759F805
:10436000042B0592002A03DA504244F400540590CD
:1043700044F00204761C30782E2816D116F8010F6E
:1043800044F004042A280DD06FF02F023078A0F1F9
:104390003003092B09D807EB870302EB4303C71847
:1043A000761CF3E759F8047B761C30786C280FD024
:1043B00006DC4C2817D068280DD06A2814D104E0F8
:1043C000742810D07A280FD10DE044F400140AE0CC
:1043D00044F4801401E044F440147278824202D123
:1043E00004F58014761C761C307866280BD013DC1C
:1043F000582877D009DC002875D04528F6D0462803
:10440000F4D047281AD19DE118E0632835D06428FC
:1044100079D0652812D195E1702873D008DC67281F
:10442000F1D069286FD06E280DD06F2806D1B5E085
:1044300073282CD0752875D0782874D05A461799CF
:1044400090476D1C75E1C4F30250022809D003287F
:104450000DD0D9F8001004280DD00D6009F1040921
:1044600067E1D9F80010EA17C1E90052F6E7D9F878
:1044700000100D80F2E70D70F0E719F8041B8DF8BD
:10448000001000208DF80100EA46012003E059F8F1
:1044900004AB4FF0FF3061074FF0000102D40DE094
:1044A00008F101018846B9420FDA8045F8DB1AF8B5
:1044B00008100029F4D108E008F101018846814282
:1044C000FADB1AF808100029F6D105985B46A0EB34
:1044D000080721463846179A00F094FA284400EB62
:1044E000080507E04DE029E10DE01AF8010B5A46F6
:1044F00017999047B8F10108F7D25B462146384634
:10450000179A13E142E00A220092C4F302524FF0DC
:10451000000A022A08D059F804CB032A4FEAEC71AA
:104520000AD00DE029E02AE009F1070121F0070295
:10453000F2E802C1914609E00FFA8CFC4FEAEC71F7
:10454000042A03D14FFA8CFC4FEAEC71002907DAF8
:104550000A460021DCF1000C61EB02012D2202E091
:10456000220504D52B228DF80420012203E0E20766
:1045700001D02022F7E7904659E00A2102E01022FC
:104580000DE010214FF0000A00910BE010224FF0D7
:10459000000A44F004040827009203E008224FF0C8
:1045A000000A0092C4F30252022A05D059F804CB43
:1045B0000021032A08D009E009F1070121F00702D0
:1045C000F2E802C1914605E01FFA8CFC042A01D1F1
:1045D0000CF0FF0C4FF00008220728D5702806D0F9
:1045E000009B83F0100353EA0A0305D00EE040223B
:1045F0008DF80420012208E05CEA010206D0302296
:104600008DF804208DF8050002229046009B83F06F
:10461000080353EA0A030AD15CEA010201D16207E6
:1046200005D530228DF804204FF001087F1E582850
:1046300004D034A003900EA802900DE036A0F9E754
:1046400053466046009AFBF7F6FE84460398825C68
:104650000298401E029002705CEA0100F0D10298BC
:1046600006A9081A00F1200A600702D524F4803454
:1046700000E00127574502DDA7EB0A0000E000201B
:1046800000EB0A01009005984144401A0590E003B0
:1046900006D45B462146179A059800F0B3F9054405
:1046A000002706E001A85A46C05D179990476D1C87
:1046B0007F1C4745F6DBE0030CD55B462146179A85
:1046C000059800F09FF9054404E030205A461799F8
:1046D00090476D1C0099481E00900029F5DC08E009
:1046E000029802995A460078491C029117999047FE
:1046F0006D1CBAF10001AAF1010AF1DC65E10000CC
:1047000009280100303132333435363738396162A7
:10471000636465660000000030313233343536376B
:1047200038394142434445460000000000F058F942
:104730000544761C307800287FF4ECAD19B028468B
:10474000BDE8F08F620700D4062709F1070222F0C6
:10475000070CFCE80223E14603F000485FEA080C7E
:1047600002D00FF2702C0DE05FEA045C02D50FF26C
:10477000682C07E05FEAC47C02D00FF2602C01E0F5
:10478000AFF2700C4FF0FF3823F00043CDF850C06B
:1047900065280CD006DC452809D046281DD04728BE
:1047A0003DD13DE0662818D067287ED138E0002151
:1047B000112F01DB112000E0781CCDE9000106A9D2
:1047C0000EA8FFF7DDFCDDE90F010E9A0391002131
:1047D000009207F1010A04914DE04FF0004000976C
:1047E000CDE9011006A90EA8FFF7CAFCDDE90F020A
:1047F00003920E9B11990022DDF80CA00093049205
:1048000011B9791C00EB010AB7EB0A0004D4C0F11E
:10481000FF3007F1010A0490AAEB0700019044E081
:10482000012F00DA01270021112F01DD112000E006
:104830003846CDE9000106A90EA8FFF7A1FCDDE985
:104840000F010E9A0391002104910092BA462107AC
:104850000CD40399514500DA8A46BAF1010F05DDFF
:10486000009AAAF10101515C302908D0B84202DA5D
:1048700010F1040F06DA0121CDE9011015E0AAF1CB
:104880000101E9E7002805DC049901440491AAEB41
:10489000000102E0411C514500DD8A460499401A9E
:1048A000401C01904FF000400290200704D4019872
:1048B000504501DBCDF8048000208DF84F000298B0
:1048C0000DF14F07B0F1004F25D02B200E9002982C
:1048D0004FF0020800280CDA404202902D200E9082
:1048E00007E00A210298FBF790FD3031029007F8AB
:1048F000011DB8F10001A8F10108F2DC02980028BE
:10490000EFD1791E0E980870307800F0200040F04A
:10491000450007F8020D12A8C01B00F10708149803
:10492000007800B1012000EB0A01019801EBE07171
:1049300005984144401A401E0590E00306D45B46AA
:104940002146179A059800F05DF805441498007800
:1049500018B15A46179990476D1CE00324D55B4661
:104960002146179A059800F04DF805441CE004987C
:10497000002807DBDDE90301884203DD0098405C85
:10498000179901E0179930205A469047049805F18D
:104990000105401C04900198401E019004D12E2076
:1049A0005A46179990476D1CBAF10001AAF1010A05
:1049B000DDDC05E017F8010B5A46179990476D1C8E
:1049C000B8F10001A8F10108F4DC5B462146179A12
:1049D0000598ABE62D0000002B0000002000000031
:1049E0002DE9F041044600251E461746880404D4EC
:1049F00005E039462020B0476D1C641EF9D52846D5
:104A0000BDE8F0812DE9F041044600251E469046A0
:104A1000C80301D5302700E02027880404D505E02D
:104A200041463846B0476D1C641EF9D52846BDE89E
:104A3000F0810A68531C0B601070704713B54FF477
:104A40007A73012269460248FEF7E2F800981CBD1D
:104A5000240200200022074B03EB801000EBC10072
:104A6000815C09B100207047521CD2B2082AF7D3EA
:104A7000012070471803002008B5FDF795F9FFF7EE
:104A8000F3F8FEF789FDFEF731FEFEF7FBFDFEF7BA
:104A900061FEFEF77BFEFEF7D5FD4F48FDF74CF9B2
:104AA0004EA0FFF729FBFCF72FFA76224A4954481B
:104AB000FCF7B4F8534F4FF001084FF0020958B318
:104AC000772245494E48FCF7A9F828B34EA0FFF7D6
:104AD00013FB5248FDF754FD012251495148FEF79E
:104AE00073F83220FCF728FDFEF75CFB00224FF440
:104AF00000414D48FCF739FEFCF7CAF9414D20351D
:104B0000A5F1180629883068FEF7B8FE387101282B
:104B100010D0022814D018E00123052202213848C1
:104B2000CDF80090FCF752F887F800803FA0FFF71F
:104B3000E3FACEE7002208213F48FCF716FE04E026
:104B4000012208213C48FCF710FE0024DFF8ECA00D
:104B50004FF4FA7B35F8141056F82400FCF773FA7A
:104B60005846FCF7E9FC35F8141056F824002246A4
:104B7000FCF722FB1AF80420214631A0FFF7BCFA0B
:104B8000641CE4B2062CE5D30024324D1FE02C80D7
:104B9000387918B908212848FCF7DFFD787820B16A
:104BA000012808D0022812D10EE0FEF723FE87F874
:104BB0000180BC700BE0B878401CC0B2B870082807
:104BC00005D387F8019002E0FEF7CAFE7C702888C2
:104BD0000A28FCD3DBE70000400100200D0A207505
:104BE00061727431207072696E746620696E6974C6
:104BF00020737563636573732121200D0A00000023
:104C00001401002000000020424D45323830204E73
:104C10004F5420464F554E440D0A0000DC01002041
:104C20003D0000206C02002000080140424D45324A
:104C30003830204F4B0D0A00000C0140400000208E
:104C4000434825642073656E736F72733A25640D53
:104C50000A0000003E0000200102020304050607CE
:104C600008090A0B0C0D0E0F1010000000000000C8
:104C70000000010203040607080900000000010209
:104C800003040000A44C0008000000204C000000B9
:104C900060410008F04C00084C0000204C08000067
:104CA0007041000800000000000000000008014002
:104CB000000801400008014000080140000C0140CC
:104CC000000C0140200040008000000100800040F6
:104CD0000100000010000000000000000024F400AB
:104CE00000000000000000000000000000000000C4
:04000005080000ED02
:00000001FF
