:020000040800F2
:100000000809002005010008273200087B240008A9
:10001000253200087D060008253900080000000090
:100020000000000000000000000000005132000845
:10003000050B00080000000029320008C134000848
:100040001F0100081F0100081F0100081F01000810
:100050001F0100081F0100081F0100081F01000800
:100060001F0100081F0100081F0100081F010008F0
:100070001F0100081F0100081F0100081F010008E0
:100080001F0100081F0100081F0100081F010008D0
:100090001F0100081F0100081F0100081F010008C0
:1000A0001F0100081F0100081F0100081F010008B0
:1000B000253500081F010008313500081F01000820
:1000C0001F0100081F0100081F0100081F01000890
:1000D0001F0100081F010008193900081F0100084E
:1000E0001F0100081F0100081F010008DFF810D0E1
:1000F00000F0B6F900480047493E0008AFF3008021
:10010000080900200648804706480047FEE7FEE74A
:10011000FEE7FEE7FEE7FEE7FEE7FEE7FEE7FEE7B7
:1001200023350008ED000008202A04DB203A21FADC
:1001300002F00021704721FA02F3D040C2F1200200
:10014000914008431946704740EA01039B0703D0DA
:1001500009E008C9121F08C0042AFAD203E011F806
:10016000013B00F8013B521EF9D27047D2B201E0C8
:1001700000F8012B491EFBD270470022F6E710B5AC
:1001800013460A4604461946FFF7F0FF204610BD05
:1001900030B505462A460B4612F8010B13F8014B01
:1001A00008B1A042F8D01CB1002802D06D1CF1E7C4
:1001B000284630BD421C10F8011B0029FBD1801AD3
:1001C0007047F0B480EA0102D40F4200B2EB410F55
:1001D00002D20246084611464A0042D0C30DDDB2A3
:1001E000C1F3C752AD1A202D35DAC1F3160141F41F
:1001F000000204B15242C5F1200602FA06F12A417A
:100200001044B3EBD05F23D0C4B1012DA0EBC35099
:1002100009DCF0BC4FF0004202EAC352DBB200F549
:10022000000000F0EEB8400000F1807000EBC35019
:10023000A0F1807040EAD170490009E0490841EA24
:10024000C071A0EBC35000F50000400800EBC350A4
:10025000F0BC00F0CDB86142012202EB4101001B6D
:10026000F6E7F0BC704781F00041AAE780F000405B
:10027000A7E780EA010210B502F00043400022D057
:100280004A001FD0010E01EB1261C0F35600C2F309
:10029000560240F4000042F40002A0FB02200004D9
:1002A0007F39140400D0401C50EA124001D44000B1
:1002B000491EC2B20C0604EBD010401C4008802A34
:1002C00002D003E0002010BD20F00100002900DA78
:1002D0000020184310BD30B480EA010202F000454E
:1002E00030F0004221F0004013D090B1C30DD40D86
:1002F000C2F31601C0F31600E41A41F4000140F401
:1003000000027D34914201D3641C00E04900002CBE
:1003100002DA30BC002070474FF400000023914205
:1003200001D3891A034340084FEA4101F7D151B183
:10033000914202D14FF0004105E002D24FF001019D
:1003400001E06FF0010103EBC450284430BC00F021
:100350004FB896230022114600F053B800F0004237
:1003600020F00040C10DC0F3160040F400007F29CA
:1003700001DA00207047962903DCC1F19601C840DC
:1003800001E096398840002AF4D0404270472DE9B8
:10039000F05F0546002092469B4688460646814609
:1003A00040241BE02846414647462246FFF7BCFE54
:1003B00053465A46C01A914110D311461846224658
:1003C00000F060F82D1A67EB01084F462246012025
:1003D000002100F057F817EB00094E41201EA4F150
:1003E0000104DFDC484631462A464346BDE8F09F1B
:1003F0000029A8BF7047401C490008BF20F0010039
:10040000704710B4B0FA80FC00FA0CF050EA010416
:1004100004BF10BC704749B1CCF1200421FA04F4A8
:1004200011FA0CF118BF012121430843A3EB0C0181
:10043000CB1D4FEA00614FEA102042BF002010BCE4
:10044000704700EBC35010440029A4BF10BC704794
:10045000401C490008BF20F0010010BC704700009C
:10046000064C074D06E0E06840F0010394E8070001
:1004700098471034AC42F6D3FFF73CFE58400008D2
:1004800078400008202A04DB203A00FA02F100201C
:1004900070479140C2F1200320FA03F319439040C2
:1004A00070472DE9F0410646069C0D46174603F0BD
:1004B0000702F221304600F0D1F810B10120BDE86A
:1004C000F0816007C20EF521304600F0C7F808B190
:1004D0000120F4E76807000E07F0070140EA8102F7
:1004E000F421304600F0BAF808B10120E7E7002017
:1004F000E5E710B58AB0044600200990216022711A
:10050000A062012309AAD021204600F095F810B17D
:1005100001200AB010BD9DF82400602803D058289F
:1005200001D00120F5E7204600F094F80A2000F001
:10053000D5FB1A2302AA8821204600F07DF89DF8F9
:1005400008009DF8091040EA0120E0809DF80A00AB
:100550009DF80B1040EA012020819DF80C009DF8C9
:100560000D1040EA012060819DF80E009DF80F10EB
:1005700040EA0120A0819DF810009DF8111040EA8A
:100580000120E0819DF812009DF8131040EA01203F
:1005900020829DF814009DF8151040EA0120608229
:1005A0009DF816009DF8171040EA0120A0829DF8E2
:1005B00018009DF8191040EA0120E0829DF81A0009
:1005C0009DF81B1040EA012020839DF81C009DF837
:1005D0001D1040EA012060839DF81E009DF81F1049
:1005E00040EA0120A0839DF82100A07707236A46F6
:1005F000E121204600F020F89DF800009DF8011050
:1006000040EA012024F8200F9DF8020004F8010CB4
:100610009DF80300A0709DF8040000F00F00E0704A
:100620009DF8050020719DF80400000960719DF897
:100630000600A07100206CE73EB50C46CDE9002312
:10064000642102910179006849000123224600F0EB
:1006500037FD3EBDB622E021AFF3008017B583B071
:100660000A46012305ACCDE90043642102910179DA
:100670000068490000F090FE06B010BDFEE70000E3
:100680000648016841F08071016005480021416021
:10069000016841F00101016070470000FCED00E0DD
:1006A000001000E00148406870470000001000E0C2
:1006B00001B50022FFF7E4FF0D480E490068B0FBCA
:1006C000F1F300984343FFF7EDFF0146FFF7EAFF20
:1006D0008842FBD003D9A0EB01010A4403E06FEA92
:1006E000010101440A4401469A42EFD308BD0000CB
:1006F0003800002040420F0000B585B00020029075
:100700000A48816941F008018161806900F00800B0
:10071000009001200390022004904FF44C5001906F
:1007200001A9034800F0ECFA05B000BD001002403A
:10073000000C014070B505460E460024314628469F
:1007400000F064F804E0641CE4B20120FFF7B0FF9D
:100750003146284600F0CCFB08B1642CF3D3642C5E
:1007600001D3012070BD002404E0641CE4B2012028
:10077000FFF79EFF3146284600F0BAFB08B9F02C7F
:10078000F3D3F02C01D3012070BD002070BD30B533
:100790000446002011E014F8013B002280EA030522
:1007A000ED0705D080F01800400840F0800000E020
:1007B00040085B08521C082AF0DB491EC9B2EAD285
:1007C00030BD7FB505460C460021029100941121F1
:1007D0000191032103916946284600F091FA012214
:1007E0002146284600F093FB7FBD70B504460D46B8
:1007F00029462046FFF7E5FF2946204600F094F8F9
:1008000029462046BDE87040FFF794BF1FB500227F
:100810000192029203920091694600F071FA1FBDA5
:100820001FB5002202920091112101910321039131
:10083000694600F065FA1FBD1FB5002202920091C3
:100840000121019103210391694600F059FA1FBD6E
:100850002DE9F04106460F46002402256006040EED
:1008600039463046FFF7DCFF00223946304600F0BB
:100870004EFB0220FFF71CFF01223946304600F0F4
:1008800046FB39463046FFF7C1FF0C20FFF710FF4B
:100890003946304600F02CFB08B144F00104322008
:1008A000FFF706FF6D1EEDB2002DD7D12046BDE843
:1008B000F08170B505460E46002431462846FFF704
:1008C000AFFF00223146284600F021FB0220FFF74F
:1008D000EFFE01223146284600F019FB314628463A
:1008E000FFF794FF0C20FFF7E3FE3146284600F0A7
:1008F000FFFA00B101243220FFF7DAFE204670BD76
:100900002DE9F04106460F460025002439463046C1
:10091000FFF7CFFFA0402843C5B2641CE4B2082C07
:10092000F4D32846BDE8F08170B504460D4629464B
:100930002046FFF775FF00222946204600F0E7FA1F
:100940004FF4F070FFF7B4FE01222946204600F074
:10095000DEFABDE870400F20FFF7AABE2DE9F74F81
:1009600092B000201090119000278146EA46DDE900
:100970001201FFF7D9FF4FF4F070FFF799FEDDE9A0
:100980001201F02200F0ABF8002600240025DDE97A
:100990001201FFF75DFF00F003006408012803D097
:1009A00002280CD0C0B148E0DDE91201002200F0BD
:1009B00069F805EBC60100200AF801003DE044F0AB
:1009C0008004DDE91201012200F05CF805EBC601AC
:1009D00001200AF8010030E005EBC60808F101002B
:1009E00000F0FF0B10A8C05D58450ED2DDE91201E2
:1009F0004FF0000200F046F800200AF808007F1CC3
:100A0000FFB210A800F807B017E00AD91AF80820BA
:100A100002F0010044EAC014DDE9120100F032F8EE
:100A20000BE044F08004DDE91201012200F02AF815
:100A300001200AF808007F1EFFB26D1CEDB2082DE0
:100A4000A5D30E49149801EB801000EBC900845522
:100A5000761CF6B2082E98D309F1010909F0FF09B6
:100A600010A8C05D10B1B9F1080F80D304491498E3
:100A700001F8009015B0BDE8F08F0000840200205E
:100A80004000002070B505460E4614463146284603
:100A9000FFF7C6FE8CB100223146284600F037FA37
:100AA0000220FFF705FE01223146284600F02FFA0A
:100AB000BDE870403C20FFF7FBBD002231462846D0
:100AC00000F025FA3C20FFF7F3FD012231462846CD
:100AD00000F01DFABDE870400220FFF7E9BD2DE9E6
:100AE000F04106460F461546002405F0010239463E
:100AF0003046FFF7C7FF6D08641CE4B2082CF4D33E
:100B0000BDE8F081704772B6FEE700002DE9FE4FA8
:100B10000746DDE90C568846924699460020286033
:100B2000306041463846FFF77BFE72B64146384694
:100B3000FFF7FAFE4FF4F070FFF7BAFD5522414679
:100B40003846FFF7CCFF0024264800EB8A1000EB64
:100B5000C909414619F804203846FFF7C0FF641C54
:100B6000E4B2082CF5D3BE2241463846FFF7B7FF62
:100B70000024E94641463846FFF7C2FE09F8040062
:100B8000641CE4B2092CF5D362B608216846FFF76D
:100B9000FEFD9DF80810884222D19DF800009DF8C6
:100BA000011040EA0120C0F30B00FFF7D2FB0E4911
:100BB000FFF75FFB0D49FFF78EFB0D49FFF753FB76
:100BC00028609DF807009DF8061040EA0120FFF715
:100BD000C0FB0849FFF74DFB0749FFF77CFB30607E
:100BE000BDE8FE8F8402002000002F4300F07F4507
:100BF000000034420000C84200FF7F4710B590F863
:100C000021100022022905D00421816380F82020D0
:100C1000012010BD01680B6823F00E030B60016812
:100C20000B6823F001030B6090F84030C46B012186
:100C300001FA03F3636080F8211080F82020104649
:100C400010BD000010B5002490F82110022903D037
:100C50000421816301243DE001680A6822F00E024C
:100C60000A6001680A6822F001020A601A4A0168F3
:100C7000914201D1012121E0174A1432914201D160
:100C800010211BE0144A2832914201D1891515E048
:100C9000114A3C32914201D189140FE00E4A503280
:100CA000914202D14FF4803108E00B4A6432914204
:100CB00002D14FF4801101E04FF08071064A083AEA
:100CC0005160012180F82110002180F82010416B33
:100CD00001B18847204610BD0800024070B50446A7
:100CE00000F01CF90546601C02D00448007804445A
:100CF00000F014F9401BA042FAD370BD2C00002074
:100D00002DE9F84F00240023DFF8C4914FF00F08BD
:100D1000A9F1040B09F1040AABF1040ED1E001279B
:100D2000A7403A40BA4275D1DFF8A8C14D68A5EB9B
:100D30000C0665452BD00DDC032D34D005DC35B316
:100D4000012D19D0022D2FD11BE0112D16D0122DFF
:100D50002AD119E0B6F5881F19D006DCB6F5803F18
:100D600015D0B6F5801F1FD111E0B6F5001F0ED0CB
:100D7000B6F5041F18D10AE0CB6815E0CB681B1D3F
:100D800012E0CB6808330FE0CB680C330CE08B68C3
:100D900023B1012B04D00823476105E0042303E0BD
:100DA0000823076100E00023FF2A01D8054601E07F
:100DB00000F1040502D84FEA840603E0A4F1080616
:100DC0004FEA86062F6808FA06FC27EA0C0703FAA2
:100DD00006F647EA06072F604D68ED0070D53E4DD8
:100DE000AE6946F00106AE61AD6905F001050095FA
:100DF0003A4D24F003067719BE68A5072D0F08FAAF
:100E000005FC26EA0C06DFF8D8C0604503D14FF098
:100E1000000C17E054E0DFF8CCC0604502D14FF081
:100E2000010C0FE0DFF8C0C0604502D14FF0020CAA
:100E300008E0DFF8B8C0604502D14FF0030C01E0D4
:100E40004FF0040C0CFA05FC4CEA060CC7F808C07D
:100E50004D68ED0205D5D9F800501543C9F800508A
:100E600004E0D9F800509543C9F800504D68AD0230
:100E700005D5DAF800501543CAF8005004E0DAF856
:100E800000509543CAF800504D68AD0305D5DBF816
:100E900000501543CBF8005004E0DBF800509543B8
:100EA000CBF800504D68ED0305D5DEF80050154332
:100EB000CEF8005004E0DEF800509543CEF8005024
:100EC000641C0A6832FA04F57FF429AFBDE8F88F94
:100ED0000804014000001110001002400000014011
:100EE00000080140000C01400010014000140140C6
:100EF0008068084201D00120704700207047C26816
:100F000021EA02030A4043EA024101617047002AD4
:100F100001D0016170470904016170470148806890
:100F2000704700002C00002070B50446002C04D04F
:100F300094F83D00002510B106E0012070BD84F852
:100F40003C50204600F0CAFA242084F83D00206876
:100F5000016821F0010101602068016841F400414D
:100F600001602068016821F40041016000F030FC5C
:100F70004F4B6168994203D84E49884203D304E03D
:100F80004D49884201D2012070BD4C49B0FBF1F1BE
:100F90002268566826F03F060E43566062689A4201
:100FA00001D8491C07E04FF4967251434FF47A720E
:100FB000B1FBF2F1491C2268166A26F03F06314364
:100FC00011626168994210D84900401EB0FBF1F2ED
:100FD000521CC2F30B02042A01D2042022E0B0FB0F
:100FE000F1F0401CC0F30B001CE0A268F2B301EB6F
:100FF000C10303EB0116431EB3FBF6F35B1C43F482
:1010000080431B0549D092B301EBC10202EB0111F1
:10101000401EB0FBF1F0401CC0F30B0040F48040D8
:1010200040F400402168CA694CF6FF739A431043AC
:10103000C861D4E9071001432068026822F0C002A9
:1010400011430160D4E9030101432068826848F23A
:10105000FF339A4311438160D4E9051001432068AE
:10106000C26822F0FF021143C16001E00EE016E009
:101070002068016841F0010101602564202084F8A6
:101080003D00256384F83E50002070BD01EB410611
:10109000431EB3FBF6F35B1CB3E70120C2E701EB91
:1010A0004101401EB0FBF1F0401CC0F30B00B7E75C
:1010B000A086010080841E0000093D0040420F0010
:1010C0002DE9FF4F83B00446DDE91198109F8A4651
:1010D000934600260296FFF721FF054694F83D004F
:1010E000202803D0022007B0BDE8F08F1923012289
:1010F000A5492046009501F007FB08B10220F2E760
:1011000094F83C00012807D0012084F83C002068B6
:101110000168C90702D005E00220E4E7016841F058
:10112000010101602068016821F400610160222052
:1011300084F83D00402084F83E0026646762A4F8ED
:101140002A90608D20859148E062CDE900855A465D
:1011500051462046069B01F0A9F908B10120C2E7DB
:10116000208D80B1012817D0022825D02068016881
:1011700041F4806101602068416980690190202705
:10118000DFF80C92F6E020684169816901910168FD
:1011900041F400710160F2E72068016821F4806188
:1011A000016072B62068416981690191016841F46A
:1011B0000071016062B6E2E72068016841F40061F5
:1011C000016072B62068416981690191016821F46A
:1011D0008061016062B6D2E703287DD801280BD078
:1011E00002281FD04346002249462046009501F0C0
:1011F0008BFAE8B3012076E72A464146204601F003
:101200003DFB08B101206EE720680069616A087043
:10121000606A401C6062208D401E2085608D401EEB
:101220006085A7E04346002249462046009501F02C
:101230006BFA08B1012056E772B62068016841F4E4
:101240000071016020680069616A0870606A401C72
:101250006062218D491E2185618D491E618562B6BE
:10126000216809690170606A401C6062208D00E09D
:1012700005E0401E2085608D401E60857AE0206874
:10128000016821F48061016072B620680069616ABA
:101290000870606A401C6062208D401E2085608D51
:1012A000401E60853B4846F2A8110068B0FBF1F093
:1012B000C0EBC00000EB800002900298401E02903C
:1012C000029830B320684069C0434007F5D42068D5
:1012D000016841F4007100E027E0016020680069C6
:1012E000616A0870606A401C6062218D491E218518
:1012F000618D491E618562B6216809690170606A65
:10130000401C6062208D401E2085608D401E6085DF
:1013100030E044F8306F6773A673206940F0200016
:10132000206162B626730120DDE62A46414620464A
:1013300001F0A4FA08B10120D5E620680069616ACD
:101340000870606A401C6062218D491E2185618D94
:10135000491E618521684A69D24352070AD4096946
:101360000170606A401C6062208D401E2085608D87
:10137000401E6085208D00287FF42EAF3C346770BE
:10138000A6702670AFE60000020010000000FFFF0C
:1013900004000100380000202DE9FF4F83B004460F
:1013A000DDE911988A469346109DFFF7B7FD064682
:1013B00094F83D00202803D0022007B0BDE8F08F4C
:1013C0001923012243492046009601F09DF908B1F6
:1013D0000220F2E794F83C00012807D0012084F8AD
:1013E0003C0020680168C90702D005E00220E4E75C
:1013F000016841F0010101602068016821F4006189
:101400000160212084F83D00402084F83E00002740
:1014100027646562A4F82A90608D20852E48E062DA
:10142000CDE900865A4651462046069B01F0DEF87B
:1014300080B30120C1E732464146204601F059FA07
:1014400048B1206C042804D12068016841F400717F
:1014500001600120B1E7606A216800780861656A6F
:101460006D1C6562208D401E80B22085618D491EF5
:10147000618523685969C94349070BD450B128785D
:101480001861606A401C6062208D401E2085608D5E
:10149000401E6085208D0028CDD132464146204631
:1014A00001F006F948B1206C042804D120680168D5
:1014B00041F40071016001207FE71F3454F81F0CD4
:1014C000016841F4007101602020A077E777677719
:1014D000002072E7020010000000FFFF10B586B088
:1014E00000210291039104910591006810498842FE
:1014F0001BD1104CA06940F00800A061A06900F069
:10150000080001904FF440600290122003900320E5
:10151000059002A90848FFF7F3FBE06940F480005A
:10152000E061E06900F48000019006B010BD0000A9
:101530000058004000100240000C01400248816841
:1015400002781144816070472C00002010B50748D4
:10155000016841F010010160032000F077F80F20CE
:1015600000F006F800F026F8002010BD0020024030
:1015700070B504460D4D4FF47A712878B1FBF0F048
:101580000B490968B1FBF0F000F02AFB08B101201B
:1015900070BD102C07D200222146501E00F036F8F4
:1015A0006C60002070BD012070BD00002C00002088
:1015B0003800002008B50C48816941F001018161C3
:1015C000816901F001010091C16941F08051C1615F
:1015D000C06900F0805000900449486820F0E06045
:1015E00040F00070486008BD00100240000001405B
:1015F000002809DB00F01F02012191404009800012
:1016000000F1E020C0F8001170470000F0B40D4672
:101610000D4B1B68C3F30223C3F10704042C00D94C
:101620000424191D072901D2002300E0DB1E012636
:1016300006FA04F1491E294099409E40761E164044
:101640003143F0BC02F096B90CED00E000F0070168
:10165000054A10684FF6FF03184040EA012003498D
:1016600008431060704700000CED00E00000FA0530
:101670002DE9F04704460D46002C17D0DFF83081E5
:10168000D8F8000000F00700A84211D2D8F80000F6
:1016900020F007002843C8F80000D8F8000000F048
:1016A0000700A84204D00120BDE8F0870120FBE735
:1016B0002068404E810712D5400703D5706840F47A
:1016C000E06070602078000703D5706840F46050D7
:1016D00070607068A16820F0F000084370602078A6
:1016E000C0072CD06068012806D0022809D03168D4
:1016F00089070BD40120D7E73168890306D401207C
:10170000D2E73168890101D40120CDE7716821F069
:10171000030101437160FFF701FC074641F288397C
:1017200006E0FFF7FBFBC01B484501D90320BBE7E0
:101730007068616800F00C00B0EB810FF1D1D8F84F
:10174000000000F00700A8420ED9D8F8000020F0F1
:1017500007002843C8F80000D8F8000000F0070090
:10176000A84201D001209FE72078400705D5706886
:10177000E16820F4E060084370602078000706D537
:101780007068216920F4605040EAC100706000F088
:101790003FF87168084AC1F30311515CC84007491A
:1017A000086007480068FFF7E3FE00207CE70000C0
:1017B00000200240001002403E4000083800002097
:1017C0003000002001480068704700003800002009
:1017D00000B5FFF7F7FF04494968044AC1F3022145
:1017E000515CC84000BD0000001002404E4000089F
:1017F00000B5FFF7E7FF04494968044AC1F3C22175
:10180000515CC84000BD0000001002404E4000087E
:101810000E4B59680E4801F00C02042A11D0082A18
:101820000FD10C48C1F38342805CC9030AD55968C3
:10183000084AC1F34041921E515C054A5043B0FB37
:10184000F1F070470449484370470000001002401F
:1018500000127A002E40000800093D002DE9F84FE3
:101860000446002C0ED02078D94DC0075ED06868A1
:10187000C0F3810001280BD06868C0F38100022802
:1018800003D00CE00120BDE8F88F6868C00306D5DE
:10189000286880034AD56068A8BB0120F3E7606828
:1018A000B0F5803F11D0A8B1B0F5A02F1BD02868AB
:1018B00020F480302860286820F480202860606848
:1018C00030B3FFF72BFB06461EE0286840F480305B
:1018D0002860F4E7286820F480302860286820F425
:1018E00080202860EBE7286840F480202860286882
:1018F00040F480302860E2E7FFF710FB801B64288B
:1019000002D90320BFE711E028688003F4D50DE079
:10191000FFF704FB064606E0FFF700FB801B642888
:1019200001D90320AFE728688003F5D42078DFF8D9
:10193000A48280074FF0010A4FF0000945D568687E
:1019400010F00C0F07D06868C0F38100022812D194
:101950006868C0030FD42868800704D5206901286F
:1019600001D001208FE72868616920F0F80040EA83
:10197000C100286029E02069B8B1C8F800A0FFF7CD
:10198000CDFA064606E0FFF7C9FA801B022801D906
:10199000032078E728688007F5D52868616920F07A
:1019A000F80040EAC10028600FE0C8F80090FFF797
:1019B000B5FA064606E0FFF7B1FA801B022801D906
:1019C000032060E728688007F5D42078000726D533
:1019D0008148A16999B1C0F800A0FFF79FFA0646B7
:1019E00006E0FFF79BFA801B022801D903204AE793
:1019F000686A8007F5D5012001F018FC0FE0C0F8F7
:101A00000090FFF78BFA064606E0FFF787FA801B87
:101A1000022801D9032036E7686A8007F5D42078C8
:101A2000400773D50026E869C00008D4E86940F093
:101A30008050E861E86900F0805000900126DFF8EE
:101A40009CB1DBF80000C00514D4DBF8000040F4C2
:101A50008070CBF80000FFF761FA074606E0FFF759
:101A60005DFAC01B642801D903200CE7DBF80000F5
:101A7000C005F4D5E068012812D0B0B105281DD00A
:101A8000286A20F001002862286A20F004002862F9
:101A9000E06841F2883B28B3FFF740FA07461DE0B3
:101AA000286A40F001002862F2E7286A20F001006D
:101AB0002862286A20F004002862E9E7286A40F0DA
:101AC00004002862286A40F001002862E0E7FFF77E
:101AD00025FAC01B584501D90320D4E6286A80079F
:101AE000F5D50DE0FFF71AFA074606E0FFF716FAFC
:101AF000C01B584501D90320C5E6286A8007F5D4E4
:101B0000012E03D1E86920F08050E861E069A0B3BC
:101B10006968C1F38101022946D0022805D0C8F8BE
:101B20006090FFF7FBF904463AE0C8F86090FFF7D1
:101B3000F5F9064606E0FFF7F1F9801B022801D906
:101B40000320A0E628688001F5D4206AB0F5803F24
:101B500005D16868A16820F4003008436860D4E9C2
:101B600008010843696821F4741108436860C8F8E3
:101B700060A0FFF7D3F9044607E026E0FFF7CEF9AF
:101B8000001B022801D903207DE628688001F5D5D5
:101B90001BE0FFF7C3F9001B022801D9032072E6FE
:101BA00028688001F5D410E001280CD06868226A0A
:101BB00000F48031914204D1616A00F470108842CF
:101BC00003D001205FE601205DE600205BE6000017
:101BD0000010024000004242800442420070004077
:101BE00010B5401EB0F1807F01D3012010BD4FF031
:101BF000E02460610F21601701F0BCFE0020A061AD
:101C000007202061002010BD7047704770B590F824
:101C10003C20012A25D0012680F83C60022280F871
:101C20003D2002685468936824F070050C682C43CA
:101C300054600D4C0268A24208D0B2F1804F05D02A
:101C40000A4CA24202D00A4CA24204D123F08003E3
:101C50004968194391603C304670002101700020B2
:101C600070BD022070BD0000002C01400004004047
:101C70000008004010B50446002C03D094F83D0045
:101C800010B107E0012010BD002084F83C00204680
:101C900000F016F8022084F83D00211D206801F0B4
:101CA0004DFC01203D3460726070A070E0702071C6
:101CB0006071A071E07120722070002010BD0000E2
:101CC00008B500681549B0F1804F14D0144A90420D
:101CD00023D1C86940F00400C861C86900F004005D
:101CE0000090002211461E20FFF790FCBDE808403E
:101CF0001E20FFF77DBCC86940F00100C861C869BB
:101D000000F001000090002211461C20FFF77EFC2D
:101D1000BDE808401C20FFF76BBC08BD0010024066
:101D20000008004090F83D10012901D001207047C3
:101D3000022180F83D100168CA6842F00102CA60C1
:101D400000680E49884208D0B0F1804F05D00C4998
:101D5000884202D00B49884209D1816801F007010D
:101D6000062908D0016841F00101016003E0016823
:101D700041F001010160002070470000002C01408B
:101D8000000400400008004070B50446002594F8A7
:101D90003C00012817D0012684F83C60022084F81A
:101DA0003D002068826822F0770222F47F42826040
:101DB0000868502838D00DDC202853D005DC90B3BB
:101DC000102811D14EE0022070BD30284AD04028A2
:101DD0000AD13DE0602831D070280CD0B0F5805F8A
:101DE00003D0B0F5005F12D001253C3466700020AE
:101DF0002070284670BDCB68D1E90121206801F030
:101E0000D3FB2068816841F077018160EDE7CB6802
:101E1000D1E90121206801F0C7FB2068816841F405
:101E200080418160E1E71DE0CA684968206801F0EF
:101E3000CDFB5021206801F0C1FBD6E7CA68496894
:101E4000206801F0D4FB6021206801F0B7FBCCE7EB
:101E5000CA684968206801F0B9FB4021206801F098
:101E6000ADFBC2E722680146104601F0A7FBBCE7C4
:101E7000704770B50446206801694FF00005C943FA
:101E8000890716D4C168C943890712D4E91E0161C4
:101E90000120207720688069800703D02046FFF763
:101EA000E7FF05E0204600F09BF8204600F099F897
:101EB000257720680169C943490718D4C168C94317
:101EC000490714D46FF004010161022020772068D3
:101ED000806910F4407F03D02046FFF7C9FF05E07A
:101EE000204600F07DF8204600F07BF8257720683A
:101EF0000169C943090717D4C168C943090713D445
:101F00006FF008010161042020772068C069800714
:101F100003D02046FFF7ACFF05E0204600F060F854
:101F2000204600F05EF8257720680169C943C9069C
:101F300018D4C168C943C90614D46FF010010161F7
:101F4000082020772068C06910F4407F03D0204625
:101F5000FFF78EFF05E0204600F042F8204600F033
:101F600040F8257720680169C943C90708D1C168CD
:101F7000C943C90704D1891E0161204600F032F827
:101F800020680169C943090609D4C168C943090623
:101F900005D46FF0800101612046FFF735FE20680F
:101FA0000169C943490609D4C168C943490605D432
:101FB0006FF040010161204600F022F820680169BD
:101FC000C94389060BD4C168C943890607D46FF099
:101FD000200101612046BDE87040FFF716BE70BDCC
:101FE0007047704700680449884203D1034841881C
:101FF000491C418070470000000800403C00002060
:102000007047704770470000F8B5044622681068B2
:10201000D168536900F00F06002E08D1850606D559
:102020008D0604D52046BDE8F84001F02EBB002502
:10203000002E66D003F0010601F49077374360D09C
:10204000C20705D0CA0503D5626C42F00102626482
:10205000420705D5DA0703D0626C42F002026264DF
:10206000820705D5DA0703D0626C42F0040262648D
:10207000020707D501F02002324303D0626C42F020
:1020800008026264626C002A31D0800604D588069A
:1020900002D5204601F0F9FA20684069C0F38010AB
:1020A000616C090700D438B3204601F0BAFA206801
:1020B000406940061CD52068143050E8001F21F00C
:1020C000400140E80012002AF5D1E06B60B15949A7
:1020D0004163E06BFEF7B6FD002808D0E06B416B72
:1020E00001B0BDE8F04008472046FFF78BFFF8BD80
:1020F0002046FFF787FFF8BD2046FFF783FF6564A2
:10210000F8BD236B012B7DD1C3067BD5CB067ED5D5
:1021100010685068009050694FF0200340064FF05F
:10212000020643D5E16B0868406880B20028E7D01A
:10213000A28D8242E4D9E085886920282DD02068CC
:102140000C3050E8001F21F4807140E80012002A92
:10215000F5D12068143050E8001F21F0010140E85B
:102160000012002AF5D12068143050E8001F21F039
:10217000400140E80012002AF5D184F8423025637E
:1021800020680C3050E8001F21F0100140E80012D8
:10219000002AF5D1E06BFEF731FD6663A08DE18D7D
:1021A000401A81B22046FFF72CFFF8BDA08DE18DCB
:1021B000401A81B2E08D0028F7D00029F5D02068C0
:1021C0000C3050E8002F22F4907240E80027002FD6
:1021D000F5D12068143050E8002F22F0010240E8C9
:1021E0000027002FF5D184F84230256320680C3099
:1021F00050E8002F22F0100240E80023002BF5D118
:10220000666300E003E02046FFF7FBFEF8BD020630
:1022100006D50A0604D52046BDE8F84001F012BBF9
:102220004006F3D54806F1D52046BDE8F84001F058
:102230001FBA00001336000870B50446002C04D005
:1022400094F84100002510B106E0012070BD84F82B
:102250004050204600F024F8242084F841002068F3
:10226000C16821F40051C160204601F073FA206872
:10227000016921F4904101612068416921F02A013E
:1022800041612068C16841F40051C160656420204B
:1022900084F8410084F842006563002070BD0000AE
:1022A00070B586B0002402940394049405942B4ED8
:1022B00002682B49022003232A4DB24221D18A69A8
:1022C00042F480428A618A6902F4804201928A69FA
:1022D00042F004028A61896901F00401019101025E
:1022E00002910390059302A92846FEF709FD2915DE
:1022F00002910394049402A92846FEF701FD06B05A
:1023000070BD194EB242FAD1CA6942F40032CA61B4
:10231000CA6902F4003201928A6942F004028A61B9
:10232000896901F004010191042102910390059350
:1023300002A92846FEF7E4FC0821029103940494C4
:1023400002A92846FEF7DCFC002211462620FFF7F2
:102350005DF92620FFF74CF9D1E700000038014075
:1023600000100240000801400044004090F8423054
:10237000202B01D00220704721B11AB10023036342
:1023800001F044BA0120704710B500680D49884239
:1023900017D10D4C607800F0C5FC20787F2808D25A
:1023A00062782078411C217008490A542278002064
:1023B000885405490122BDE81040491C0448FFF734
:1023C000D5BF10BD004400403C00002004020020A6
:1023D000BC0100202DE9F84304460E4615461F4671
:1023E00094F84100202802D00220BDE8F8837EB195
:1023F00075B100206064212084F84100FEF78EFD55
:102400008046A584E584A068B0F5805F02D003E033
:102410000120EAE7206910B13546002613E00025C7
:1024200011E04346002280212046009701F039FA4E
:1024300008B10320D9E79DB1216815F8010B486068
:10244000E08C401EE084E08C0028EAD14346002264
:1024500040212046009701F024FA40B10320C4E750
:1024600036F8020B2168C0F308004860E8E7202036
:1024700084F841000020B8E77047FEE701684A6928
:10248000D24352050FD46FF480624A61002140F8B4
:10249000301F202242738173026942F004020261FC
:1024A0000173012070470020704700002DE9F84FAC
:1024B00004460B9E0F4690461D462068016841F475
:1024C000806101602068016841F4807101600096BC
:1024D0004FF0011A0022514620460A9B00F014F9E1
:1024E0004FF4007940B120680068C00501D5C4F8F8
:1024F00040900320BDE8F88F216807F0FE000861D6
:10250000DFF8E4B03346594620460A9A00F052F903
:1025100008B10120EEE720684169806900903246E9
:1025200020460A9900F0E5F948B1206C042804D14E
:102530002068016841F4007101600120DAE7284653
:1025400008F0FF0501280DD021684FEA1820086126
:10255000324620460A9900F0CCF968B1206C042874
:1025600003D007E02068056108E02068016841F4B5
:10257000007101600120BDE72068056132462046F8
:102580000A9900F0B6F948B1206C042804D12068FB
:10259000016841F4007101600120ABE72068016827
:1025A00041F48071016000960022514620460A9B4A
:1025B00000F0AAF838B120680068C00501D5C4F859
:1025C0004090032096E72168F8B240F001000861CE
:1025D0003346594620460A9A00F0ECF808B101202B
:1025E00088E7002086E70000020001002DE9F8439B
:1025F0000446DDE908970D461646984620680168AE
:1026000041F4807101604B4600224FF001112046D9
:10261000009700F079F848B120680068C00502D53D
:102620004FF4007020640320BDE8F883216805F0B2
:10263000FE0008613B464A461C49204600F0BAF8B5
:1026400008B10120F0E720684169806900903A46AE
:102650004946204600F04DF948B1206C042804D1C9
:102660002068016841F4007101600120DCE7F5B2E7
:10267000B8F1010F0CD02168300A08613A4649468A
:10268000204600F036F968B1206C042803D007E03A
:102690002068056108E02068016841F4007101606C
:1026A0000120C1E7206805610020BDE702000100AC
:1026B00070B504460D4616461FE02046FFF7DEFEC5
:1026C00008B1012070BD681C17D0FEF727FC801BE5
:1026D000A84200D88DB920684069C04340070CD596
:1026E000002044F8300F20216173A073216941F06C
:1026F000200121612073012070BD20684069C04322
:102700004007DAD4002070BD2DE9F0470446DDF81B
:1027100020900D4690461E46C5F307472FE0701CDB
:102720002DD0FEF7FBFBA0EB0900B04200D836BB72
:10273000012F17D02068806925EA00000004000CF2
:102740001BD0002040451AD1002044F8300F202132
:102750006173A073216941F0200121612073012080
:10276000BDE8F0872068406925EA00000004000CFD
:1027700001D00020E6E70120E4E70120E2E7012F95
:102780000BD02068806925EA00000004000C0FD0FF
:1027900000204045C3D00020E2E72068406925EAD8
:1027A00000000004000C01D00020F2E70120F0E757
:1027B0000120EEE72DE9F04704460D4616469846FF
:1027C0004FF000094FF0200AC5F3074743E02068A7
:1027D0004069C043400517D42068016841F4007186
:1027E000016021686FF480604861C4F8309084F81B
:1027F0003DA084F83E90206C40F00400206484F8F2
:102800003C900120BDE8F087701C24D0FEF786FBC9
:10281000A0EB0800B04200D8EEB9012F14D0206818
:10282000806925EA00000004000C14D0C4F8309040
:1028300084F83DA084F83E90206C40F02000206495
:1028400084F83C900120DDE72068406925EA00001B
:102850000004000CEAD1012F08D02068806925EA25
:1028600000000004000CB2D10020CBE720684069D2
:1028700025EA00000004000CF6D0A8E72DE9F0419D
:1028800004460D46164600274FF020082AE040690E
:10289000C043C0060FD421686FF010004861276361
:1028A00084F83D8084F83E70206C206484F83C708D
:1028B0000120BDE8F081FEF731FB801BA84200D863
:1028C00085B920684069C04340060BD544F8307F85
:1028D00084F80D80A773206940F0200020612773E1
:1028E0000120E6E720684169C9434906CFD40020AA
:1028F000DFE770B504460D4616461FE02046FFF799
:10290000BDFD08B1012070BD681C17D0FEF706FBA5
:10291000801BA84200D88DB920684069C0430006DA
:102920000CD5002044F8300F20216173A073216979
:1029300041F0200121612073012070BD20684069B1
:10294000C0430006DAD4002070BD000010B5EFF3DC
:10295000108472B680210748FDF70FFC064900205D
:1029600008700649C88004B962B6BDE8104000F09E
:102970001BBA0000040200203C0000204800002098
:1029800010B5FFF7E3FF5CA15CA000F043F902E0A3
:102990003220FEF7A3F95CA15CA000F03BF900280F
:1029A000F6D102E03220FEF799F959A156A000F0C5
:1029B00031F90028F6D102E03220FEF78FF954A158
:1029C00054A000F027F90028F6D102E03220FEF7EB
:1029D00085F94FA154A000F01DF90028F6D102E0BE
:1029E0003220FEF77BF94AA153A000F013F900282A
:1029F000F6D102E03220FEF771F945A151A000F0B6
:102A000009F90028F6D102E03220FEF767F940A16B
:102A100050A000F0FFF80028F6D102E03220FEF7C7
:102A20005DF93BA14FA000F0F5F80028F6D102E0D7
:102A30003220FEF753F936A14EA000F0EBF8002843
:102A4000F6D102E03220FEF749F931A14DA000F0A5
:102A5000E1F80028F6D102E03220FEF73FF92CA180
:102A60004BA000F0D7F80028F6D102E03220FEF7A4
:102A700035F927A149A000F0CDF80028F6D102E0F1
:102A80003220FEF72BF922A147A000F0C3F800285E
:102A9000F6D102E03220FEF721F91DA146A000F098
:102AA000B9F80028F6D102E03220FEF717F918A194
:102AB00045A000F0AFF80028F6D102E03220FEF782
:102AC0000DF913A143A000F0A5F80028F6D102E00B
:102AD0003220FEF703F90EA142A000F09BF8002877
:102AE000F6D102E03220FEF7F9F846A147A000F047
:102AF00091F80028F6D110BD0000000041542B458C
:102B00004E544D0D0A000000610000002B2B2B00DD
:102B10004F4B000041542B574D4F44453D545241BB
:102B20004E530D0A0000000041542B504D4F4445B8
:102B30003D52554E0D0A000041542B49544D3D3233
:102B4000300D0A0041542B57544D3D323030300D7A
:102B50000A00000041542B52544F3D3530300D0ACD
:102B60000000000041542B46444D4F44453D4F4624
:102B7000460D0A0041542B43483D343730300D0A8E
:102B80000000000041542B5350443D31300D0A00E9
:102B900041542B5057523D32320D0A0041542B46BE
:102BA00045433D310D0A000041542B4C42543D4FEA
:102BB00046460D0A0000000041542B414444523D5A
:102BC00038380D0A0000000041542B4C52544F3D40
:102BD000330D0A0041542B5541525446543D313077
:102BE0000D0A000041542B554152543D31313532CC
:102BF00030302C382C312C4E4F4E452C4E46430D48
:102C00000A000000537461727400000041542B5A92
:102C10000D0A00002DE9F041A2B080460E46C824FE
:102C20004046FDF7C7FA87B22622234910A8FDF7D0
:102C30008BFA214DE88CADF86600A86A1A90A88D31
:102C4000ADF86C00E88DADF86E00286B1C90686BD9
:102C50001D90092205F138011EA8FDF775FA95F8B7
:102C600041008DF8810095F842008DF88200686C73
:102C70002190CDE90E87382214A96846FDF764FA41
:102C800010A80FC800F04FFE10E000F019F850B97E
:102C900031460A48FDF77CFA28B1FFF757FE0020BD
:102CA00022B0BDE8F0810A20FEF718F8641EE4B2F5
:102CB000EBD20120F4E70000BC0100200402002058
:102CC00009480178002908D002780849CB889A423F
:102CD00005D1002101700020704701207047007865
:102CE000C8800120704700003C0000204800002000
:102CF00070B505464FF6FF7000234AF201040EE05E
:102D0000EA5C50400022C60702D084EA500000E08E
:102D10004008521CD2B2082AF5D35B1C9BB28B42EE
:102D2000EED370BD30B51E4A917800290BD11178D1
:102D30001C4B49B11178002401290CD011786D2960
:102D400016D31470547030BDAA28FCD111784C1CD5
:102D50001470585430BD552803D0AA2806D01470DA
:102D600030BD11784C1C1470585430BD187030BDF3
:102D700011784D1C1570585410780B2806D1987A8C
:102D8000602801D9147030BD0D3050705078002883
:102D9000F9D0107851788842F5D10120907030BD7B
:102DA0004800002004040020EFF3108272B60020D7
:102DB0000349087048708870002A00D162B67047D5
:102DC00048000020F0B59DB00D461646DDE92272A0
:102DD000DDE92414602C34D84FF0AA0C8DF804C01F
:102DE0004FF0550C8DF805C04FF0010C8DF806C062
:102DF0008DF807008DF808508DF809608DF80A30BD
:102E00008DF80B708DF80C20100A8DF80D008DF8E0
:102E10000E402CB121B122460DF10F00FDF794F9BF
:102E20000B34214601A8FFF763FF01A9085521448F
:102E3000000A4870A41CA2B2642301A90248FFF74B
:102E4000C9FA1DB0F0BD0000BC0100202DE9F04121
:102E500004460027002C10D01D48817869B11D4E12
:102E6000B57A05F10B01602D2DD84278881C82427D
:102E700029D1B078012803D025E00020BDE8F081F9
:102E80007218705C527840EA02281248FFF730FF4F
:102E9000804518D1F0782070307960707079A0701A
:102EA000B079E070F0792071307A717A40EA0120CF
:102EB000E080257235B107492A460B3104F109003B
:102EC000FDF742F90127FFF76FFF3846D6E700000C
:102ED0004800002004040020074BD878002809D1BE
:102EE0000649074A22F81010401CC0B22428F9D322
:102EF0000120D87070470000480000200080FFFFCC
:102F00007204002070B5A0B02F4D01262F4C2879F7
:102F1000002815D0FEF702F86969401A10D42989F3
:102F20004820CDE90061CDE90240022301220321BE
:102F30001846FFF747FF2869401C286100202871C8
:102F400005A8FFF783FF00283BD09DF81400012857
:102F500037D19DF81500022833D19DF816000128BD
:102F60002FD19DF8170003282BD19DF818000128B8
:102F700027D19DF81C00012823D19DF81D000028B1
:102F80001FD1FFF7A9FFE868401CE86028790028F6
:102F900017D10E49483911F8102004F8102031F8E3
:102FA000102004EB4003120A5A70401CC0B22428BF
:102FB000F1D3BDF81A002881FDF7B0FF3230686107
:102FC0002E7120B070BD000048000020BA0400201F
:102FD00000280CD00021064A30F8113022F81130B8
:102FE000491CC9B22429F7D302490120C87070478F
:102FF00072040020480000202DE9F04186B0002432
:1030000002940394049405942348816941F02001BB
:103010008161816901F020010191816941F0040120
:103020008161816901F004010191816941F0080128
:103030008161806900F008000190184F012248F278
:1030400012013846FDF763FFDFF8548001220821A2
:103050004046FDF75CFF0225029501260396049485
:103060000320059002A93846FDF74AFE48F21000F9
:10307000029003960494059502A93846FDF740FE98
:103080000820029003960494059502A94046FDF796
:1030900037FE06B0BDE8F081001002400008014094
:1030A000000C014010B50D480B4901600C4941600E
:1030B00000218160C1604FF4804202614161816101
:1030C000C1610162FDF730FF002803D0BDE8104068
:1030D000FDF719BD10BD0000005800409000002011
:1030E000A086010010B586B00024029403940494D5
:1030F00005940094019414484FF08041016041F61A
:103100001F414160846041F28731C1600461846184
:10311000FEF7B0FD08B1FDF7F6FC4FF480500290C9
:1031200002A90948FEF730FE08B1FDF7ECFC009457
:10313000019469460448FEF769FD002801D0FDF7B7
:10314000E2FC06B010BD0000E400002010B586B01F
:103150000024029403940494059400940194144868
:103160001249016040F2CF214160846040F2E731B2
:10317000C16004618461FEF77DFD08B1FDF7C3FC09
:103180004FF48050029002A90948FEF7FDFD08B1F6
:10319000FDF7B9FC0094019469460548FEF736FD39
:1031A000002801D0FDF7AFFC06B010BD00080040BC
:1031B0002C01002010B50C480A4901604FF4E131A0
:1031C000416000218160C16001610C224261816126
:1031D000C161FFF731F8002803D0BDE81040FDF7CA
:1031E00092BC10BD003801407401002010B50C489D
:1031F0000A4901604FF4E131416000218160C16002
:1032000001610C2242618161C161FFF715F800285C
:1032100003D0BDE81040FDF776BC10BD004400406F
:10322000BC010020FEE7FEE77047000008B5074933
:103230004FF4FA520968B1FBF2F14143009100BF2B
:103240000098411E0091FAD208BD0000380000200D
:103250007047000010B504460949FDF70AF84FF021
:103260007C5114F1FF4F05D2FCF7ABFFFDF776F868
:1032700000B210BDFCF7F7FFFDF770F800B210BD0B
:10328000000020412DE9F05F0024DFF878A01E4FF8
:103290000AF1180B5AF824803BF8149000260025F8
:1032A00006E02946204600F0BDFD40B36D1CEDB29E
:1032B000385DA842F5D8E6B172B649464046FDF7FA
:1032C00033FB4FF4F070FDF7F3F9CC22494640464A
:1032D000FDF705FC442249464046FDF700FC62B676
:1032E00049464046FDF7A8FA012249464046FDF707
:1032F0000EFE641CE4B2062CCCD3BDE8F09F012680
:10330000D9E7000008000020400000202DE9FE431E
:10331000074688460026002541463846FDF751FA03
:10332000012241463846FDF7F2FD4FF4FA60FDF701
:10333000D5FC002241463846FDF710FB00232B4800
:10334000294990F800C019E00124002201EBC300D4
:1033500010F80290B9F1000F01D0002403E0521CD4
:10336000D2B2082AF4D33CB911F83300282800D18E
:1033700001262C2800D101255B1CDBB29C45E3D83B
:1033800056EA050027D141463846FDF7CDFA3C20E4
:10339000FDF78EF9CC2241463846FDF7A0FBBE2250
:1033A00041463846FDF79BFB0024E9464146384636
:1033B000FDF7A6FA09F80400641CE4B2092CF5D361
:1033C000002019F80010FF2901D0012503E0401C5E
:1033D000C0B20928F5D315B10220BDE8FE830EB1B5
:1033E0000120FAE70020F8E78402002040000020D6
:1033F0002DE9F04F97B000202B4905AF27F81010AA
:10340000401CC0B22428F9D30024DFF8A0B0DFF8B4
:10341000A0805BF824902548183030F814A00025CF
:10342000002621E03146204600F0FCFCD0B903A87C
:1034300004A9CDE900103346224651464846FDF71F
:1034400065FB1C49049888420AD81B49884207DC5E
:10345000FFF700FF04EB440105EB410127F81100E1
:103460006D1CEDB2761CF6B218F80400B04201D91A
:10347000062DD7D3641CE4B2062CCAD305A8FFF7E7
:10348000A7FD0A490839C878401CC0B2C8700A288C
:1034900006D30020C8704FF400410848FDF72FFD07
:1034A00017B0BDE8F08F00000080FFFF080000208B
:1034B000400000200000A0C10000A0420008014020
:1034C000FEF73CB830B58FB0282105A8FCF755FEB3
:1034D00014216846FCF751FE01210591080406906D
:1034E00000240794099102250C950D904FF4E010EB
:1034F0000E9005A8FEF7B2F908B1FDF704FB0F2006
:103500000090019502944FF480600390049402218E
:103510006846FEF7ADF8002801D0FDF7F4FA0FB0C9
:1035200030BD70470148FEF7A4BC0000E400002055
:103530000148FEF79EBC00002C010020F0B5026897
:10354000164C174D174E4FF08047A04205D0B84299
:1035500003D0A84201D0B04203D122F070034A68E0
:103560001A43A04205D0B84203D0A84201D0B042CD
:1035700003D122F44073CA681A434B6922F08002D7
:103580001A4302608A68C2620A688262A04201D15C
:103590000969016301214161F0BD0000002C014077
:1035A000000400400008004010B5846824F47F4403
:1035B00042EA03220A432243826010BD826822F05D
:1035C00070020A4342F007018160704710B5036A38
:1035D000046A24F001040462846924F0F00444EADB
:1035E000021423F00A020A438461026210BD10B57E
:1035F000036A046A24F010040462846924F47044A9
:1036000044EA023223F0A00343EA0111826101621D
:1036100010BD10B5406A0021C185C184FEF7F2FCDF
:1036200010BD01680C3151E8002F22F4907241E87E
:103630000023002BF5D10168143151E8002F22F04E
:10364000010241E80023002BF5D1016B012909D1CA
:1036500001680C3151E8002F22F0100241E80023EC
:10366000002BF5D1202180F8421000210163704722
:1036700010B50168CA6822F04002CA60202180F8B3
:103680004110FEF7F9FE002010BD08B590F8421079
:10369000222901D0022008BD82684FF480539A424B
:1036A00001D1016921B1816A9A421DD052B10BE06A
:1036B000816A02685268C2F308020A80816A891C22
:1036C000816209E002697AB10268526802F07F0201
:1036D0000A70816A491C8162C18D491E0904090C66
:1036E000C18505D0002008BD026852680A70F0E765
:1036F0000168CA6822F02002CA600168CA6822F420
:103700008072CA6001684A6922F001024A61202180
:1037100080F8421000214163026B012A03D0FEF7BA
:1037200033FE002008BD016301680C3151E8002F11
:1037300022F0100241E80023002BF5D101680A684D
:10374000D20602D50A6849680091818DFEF759FCBE
:10375000E7E7000070B5044620680169E26821F4DB
:10376000405111430161A16820690143606901432F
:103770002068C26841F20C639A430A43C260206821
:103780004169A26921F44071114341611E492068D9
:10379000884202D1FEF72CF801E0FEF719F800EBA1
:1037A000C00101EB0010616864228900B0FBF1F3F5
:1037B000B3FBF2F36FF018067343B0FBF1F5B0FB07
:1037C000F1F605EB8305322303EB0515B5FBF2F5A6
:1037D000B6FBF2F605F0F00505EB0615B0FBF1F6C9
:1037E000B0FBF1F0B0FBF2F06FF01801484306EBCC
:1037F000800003EB0010B0FBF2F0216800F00F0036
:103800002844886070BD00000038014081628285D4
:10381000C28500214164222180F8421001690029FB
:1038200004D00168CA6842F48072CA6001684A69BB
:1038300042F001024A610068C16841F02001C160A4
:103840000020704790F84110212901D002207047D4
:103850008168B1F5805F01D1016961B1016A4A1CDB
:103860000262026809785160C18C491E0904090C82
:10387000C1840AD013E0016A02680988C1F3080113
:103880005160016A891C0162EEE70168CA6822F092
:103890008002CA600068C16841F04001C160002038
:1038A00070472DE9F04104460E4617469846069D9E
:1038B00025E0681C23D02DB1FDF730FBA0EB0800FC
:1038C000A8421CD920680C3050E8001F21F4D071A8
:1038D00040E80012002AF5D12068143050E8001F9B
:1038E00021F0010140E80012002AF5D120204034E7
:1038F0006070A070002020700320BDE8F081206877
:10390000006836EA000004D00020B842D1D0002080
:10391000F3E70120F9E700000148FEF775BB00005E
:10392000BC010020FEE70FB42DE9F041DDE9185697
:103930000024671E08E029466D1C3B46012206A8AC
:10394000FEF748FD641CA4B2B442F4D3BDE8F00114
:103950005DF814FB0FB4054B10B503A9044A029897
:1039600000F028F810BC5DF814FB00000D3E0008C4
:10397000600000200907090E002804DB00F1E020A8
:1039800080F80014704700F00F0000F1E02080F88C
:10399000141D704702E008C8121F08C1002AFAD19E
:1039A00070477047002001E001C1121F002AFBD1BF
:1039B000704700002DE9FF4F8DB00F4605460026E9
:1039C00006E025280BD0DDE90F1290476D1C761C10
:1039D00028780028F5D111B03046BDE8F08F0024DA
:1039E000A246A1460122E94900E0044315F8013F3F
:1039F000203B02FA03F00842F7D128782A2810D099
:103A00006FF02F022878A0F13001092914D80AEBB1
:103A10008A0102EB410144F0020400EB010A6D1C33
:103A2000F0E701CF5FEA000A03D544F40054CAF17D
:103A3000000A44F002046D1C28782E2817D115F8CE
:103A4000010F44F004042A280ED06FF02F022878CA
:103A5000A0F1300109290AD809EB890102EB4101E3
:103A600000EB01096D1CF2E757F8049B6D1C2878E8
:103A70006C280FD006DC4C2817D068280DD06A2897
:103A800014D104E0742810D07A280FD10DE044F44A
:103A900000140AE044F4801401E044F4401469780E
:103AA000814202D104F580146D1C6D1C28786E28AB
:103AB0001ED00CDC632830D004DC00288BD05828C2
:103AC00011D19FE0642867D069280CD164E0732885
:103AD0002DD004DC6F2872D0702804D194E07528B2
:103AE0006ED078286DD0DDE90F129047761C4BE13F
:103AF000C4F30250022806D0032809D0042801CFBD
:103B000009D0066040E101CFF117C0E900613BE157
:103B100001CF068038E1067036E117F8040B8DF806
:103B2000000000208DF80100EB46012003E057F86B
:103B300004BB4FF0FF3061074FF0000102D40DE0ED
:103B400008F10101884649450FDA8045F8DB1BF88A
:103B500008100029F4D108E008F1010188468142EB
:103B6000FADB1BF808100029F6D1DDE90F23AAEBD8
:103B700008008146214600F031F9304400EB080688
:103B800004E0DDE90F121BF8010B9047B8F10108C2
:103B9000F7D221464846F2E00A21C4F302524FF020
:103BA000000B0891022A04D001CFC117032A09D0C3
:103BB0000AE0FF1D27F00707F7E8020108E02CE004
:103BC0001EE01FE000B2C117042A01D140B2C117A4
:103BD000021E71F1000206DA0023D0EB030063EB52
:103BE00001012D2202E0220504D52B228DF824208C
:103BF000012203E0E20701D02022F7E7904653E0DC
:103C00000A210BE0102109E010214FF0000B44F0D5
:103C100004044FF00809089103E008214FF0000B5D
:103C20000891C4F30252022A04D001CF0021032AD2
:103C300006D006E0FF1D27F00707F7E8020103E0C2
:103C400080B2042A00D1C0B24FF0000822072BD561
:103C50002A78702A07D0DDF820C08CF0100C5CEABE
:103C60000B0C05D00EE040228DF82420012208E044
:103C700050EA010306D030238DF824308DF825203A
:103C800002229046089B83F0080353EA0B030BD1F2
:103C900050EA010201D1620706D530228DF82420B6
:103CA0004FF00108A9F101092A78582A04D038A256
:103CB0000B9208AA0A920BE03AA2F9E75B46089A2F
:103CC000FCF765FB0B9B9B5C0A9A521E0A921370D1
:103CD00050EA0102F2D10A98ADEB000000F1200B8E
:103CE000600702D524F4803401E04FF00109D94582
:103CF00002DDA9EB0B0000E0002000EB0B014144CA
:103D00000890AAEB010AE00306D4DDE90F2321465F
:103D1000504600F063F806444FF0000908E009A996
:103D200011F80900DDE90F12904709F10109761C2D
:103D3000C145F4DBE0030CD5DDE90F2321465046F5
:103D400000F04CF8064404E0DDE90F123020904703
:103D5000761C0899481E08900029F5DC08E00A98AE
:103D60000A990078491C0A91DDE90F129047761CE8
:103D7000BBF10001ABF1010BF1DC21465046DDE95E
:103D80000F2300F019F806446D1C21E609280100F4
:103D900030313233343536373839616263646566C1
:103DA0000000000030313233343536373839414283
:103DB00043444546000000002DE9F041044600253B
:103DC0001E461746880404D405E039462020B04733
:103DD0006D1C641EF9D52846BDE8F0812DE9F0413F
:103DE000044600251E469046C80301D5302700E052
:103DF0002027880404D505E041463846B0476D1CAD
:103E0000641EF9D52846BDE8F081000013B54FF4D3
:103E10007A73012269460248FEF7DCFA00981CBD5D
:103E2000740100200022074B03EB801000EBC1005F
:103E3000815C09B100207047521CD2B2082AF7D326
:103E4000012070478402002008B5FDF77FFBFFF7D3
:103E500039FBFFF7D1F8FFF779F9FFF743F9FFF7DF
:103E6000A9F9FFF7C3F9FFF71DF95048FDF736FB35
:103E70004FA0FFF76FFDFCF73FFC76224B495548FA
:103E8000FCF737FB544F4FF001084FF0020958B3CD
:103E9000772246494F48FCF72CFB28B34FA0FFF789
:103EA00059FD5348FDF73EFF012252495248FEF7A3
:103EB0005DFA3220FCF712FFFEF762FD00224FF49C
:103EC00000414E48FDF723F8FCF7DAFB424D203560
:103ED000A5F1180629883068FFF718FA387101280B
:103EE00010D0022814D018E00123052202213948FD
:103EF000CDF80090FCF7D5FA87F8008040A0FFF7D6
:103F000029FDCEE7002208214048FDF700F804E033
:103F1000012208213D48FCF7FAFF0024DFF8F0A059
:103F20004FF4FA7B35F8141056F82400FCF75DFCCA
:103F30005846FCF7D3FE35F8141056F824002246F4
:103F4000FCF70CFD1AF80420214632A0FFF702FD11
:103F5000641CE4B2062CE5D30024334D1FE02C8012
:103F6000387918B908212948FCF7C9FF787820B1B9
:103F7000012808D0022812D10EE0FFF783F987F854
:103F80000180BC700BE0B878401CC0B2B870082843
:103F900005D387F8019002E0FFF72AFA7C70FEF75C
:103FA000B1FF28880A28FAD3D9E700009000002042
:103FB0000D0A207561727431207072696E7466200A
:103FC000696E697420737563636573732121200DB5
:103FD0000A0000006400002000000020424D45322D
:103FE0003830204E4F5420464F554E440D0A0000A5
:103FF0002C0100203D000020BC01002000080140F1
:10400000424D45323830204F4B0D0A00000C014024
:1040100040000020434825642073656E736F7273FF
:104020003A25640D0A0000003E0000200102020350
:104030000405060708090A0B0C0D0E0F10100000EE
:104040000000000000000102030406070809000048
:104050000000010203040000784000080000002076
:104060006400000094390008DC400008640000206F
:10407000A4080000A43900080000000000000000AF
:10408000000801400008014000080140000801400C
:10409000000C0140000C01402000400080000001A5
:1040A000008000400100000010000000000000003F
:1040B0000024F400000000000000000000000000E8
:1040C00000000000000000000000000000000000F0
:0C40D000000000000000000000000000E4
:04000005080000ED02
:00000001FF
